:04000000803185289E
:100008007E148031873115278031013A031D0D2870
:100018000E2811288F31BA27803120005308F100AB
:100028005208F0005B08B2003208F200873142271C
:10003800803120005508031D222823282B28F00191
:100048000C3084310A2480318731EA27803120003E
:100058005503031D302831286F288531D525803177
:1000680071082000CB007008CA008431C424803194
:100078007C082000C9007B08C8005408031D4528D7
:1000880046284F28F001F00A0C3084310A248031C8
:100098008031AB20803120005403031D542855289B
:1000A800652885317A2580317C082000C5007B08C9
:1000B800C40085311F2580317C082000C7007B08DB
:1000C800C6005403031D69286B2801306C280030D2
:1000D800B2003208D4005503031D73287528013077
:1000E80076280030B2003208D5000B118F31CC27AA
:1000F800803171082000CF007008CE0011117E10E9
:1001080009008031872840308400003085001C3089
:100118008F319A278031A03084000030850040302C
:100128008F319A278031203084000130850040309B
:100138008F319A278031A03084000130850020302B
:100148008F319A2780317E1020008631E62E2000DC
:100158005A03031DB028B12886290130A6002608B5
:10016800D60720305606031DBA28BB28862946081C
:10017800D33EF000FF30473DF100F201F3010030BB
:10018800F7000030F6000030F5009030F4008631BA
:10019800B326803170082000A6007108A7007208F5
:1001A800A8007308A9000A30A936A80CA70CA60C49
:1001B800890BD82826080F3EAA002A08DB00440825
:1001C800D33EF000FF30453DF100F201F3015B083A
:1001D800A600A701A801A9012908F7002808F60028
:1001E8002708F5002608F4008631B3268031700808
:1001F8002000AA007108AB007208AC007308AD00BB
:100208000830AD36AC0CAB0CAA0C890B05292B08B1
:10021800D3002A08D2000030F9000030F80000307E
:10022800F7001930F6005A30F2000030F3005B088E
:10023800A600A7012608F0002708F1008731AE279D
:10024800803170082000A8007108A900AA01AB013C
:100258002B08FD002A08FC002908FB002808FA00E2
:1002680084316924803177082000AF007608AE0019
:100278000030F9000030F8000030F7001930F600BF
:100288000A30F2000030F3005B08A600A701260838
:10029800F0002708F1008731AE2780317008200070
:1002A800A8007108A900AA01AB012B08FD002A08C3
:1002B800FC002908FB002808FA00843169248031F1
:1002C80077082000B1007608B00053082F02031DFC
:1002D8006F2952082E0203187229732977292F08CB
:1002E800D3002E08D20031085302031D7D2930089F
:1002F800520203188029812985293108D300300842
:10030800D200D60108002000B500362A8730210027
:100318009905991300302000C3000030C2007930DD
:10032800C1001830C000612A210019088739203817
:100338009900991300302000C3000030C200F43047
:10034800C1002430C000612A2100190887392838E3
:100358009900991300302000C3000130C200E83032
:10036800C1004830C000612A210019088739303897
:100378009900991300302000C3000330C200D03028
:10038800C1009030C000612A210019088739383827
:100398009900991300302000C3000730C200A13033
:1003A800C1002030C000612A210019088739583857
:1003B8009900991300302000C3000F30C20042306A
:1003C800C1004030C000612A21001908873960380F
:1003D8009900991300302000C3001E30C2008430F9
:1003E800C1008030C000612A2100190887396838A7
:1003F8009900991300302000C3003D30C200093035
:10040800C1000030C000612A2100190887397038FE
:100418009900991300302000C3007A30C2001230CE
:10042800C1000030C000612A783021009904991376
:1004380000302000C300F430C2002430C100003076
:10044800C000612A21001908873970389900991766
:1004580001302000C300E830C2004830C10000303D
:10046800C000612A3508B300B4013408003A031902
:100478003E2A612A3308003A03198A29013A0319E6
:100488009829033A0319A829013A0319B829073A00
:100498000319C829013A0319D829033A0319E82985
:1004A800013A0319F8290F3A0319082A013A0319DE
:1004B800182A033A0319262A612A08002000B700DF
:1004C800B60108303702031C6A2A6B2A732A3708D8
:1004D800F83EB4003408B800B601B60A782A3708DE
:1004E800B4003408B800B6013608031D7C2A7D2AFA
:1004F800AB2A33080319812A822A9D2A0130B400C5
:10050800380A872AB435890B862A3408B500350895
:1005180021008C0401302000B400380A942AB43534
:10052800890B932A3408FF3AB500350823008C0557
:10053800DD2A0130B400380AA22AB435890BA12A71
:100548003408FF3AB500350821008C05DD2A36034A
:10055800031DAF2AB02ADD2A33080319B42AB52AA5
:10056800D02A0130B400380ABA2AB435890BB92A1E
:100578003408B500350821008D0401302000B4008E
:10058800380AC72AB435890BC62A3408FF3AB50099
:10059800350823008D05DD2A0130B400380AD52A34
:1005A800B435890BD42A3408FF3AB5003508210040
:1005B8008D0508002000B800B701B601B501043068
:1005C80038020318E82AE92AF02A3808B300330861
:1005D800B700B601B501B50A09303802031CF52A7F
:1005E800F62A052B103038020318FB2AFC2A052BA3
:1005F8003808F83EB3003308B700B601B60AB501AB
:10060800B50A35080319092B0A2B472B3608031D91
:100618000E2B0F2B292B0130B300370A142BB335BF
:10062800890B132B3308B400340821008C040130E3
:100638002000B300370A212BB335890B202B330850
:10064800B400340823008C04472B3603031D2D2BDC
:100658002E2B472B0130B300370A332BB335890BC8
:10066800322B3308B400340821008D0401302000F7
:10067800B300370A402BB335890B3F2B3308B4003E
:10068800340823008D040800FA00F601F70104304D
:100698007A020318502B512B572B7A08F200720854
:1006A800F600F701F70A09307A02031C5C2B5D2B70
:1006B8006A2B10307A020318622B632B6A2B7A0894
:1006C800143CF2007208F600F701F70A77080319DC
:1006D8006E2B6F2BA92B21001D088330F2007208A6
:1006E8009D057608F2000130F235FF3E031D782B98
:1006F8007235F30073089D04F8010130F2007208A6
:10070800F80708307802031C8A2B8B2B812B2100D9
:100718009D149D18902B912B8D2B1C08F5001B0800
:10072800F4008330F20072089D059D15F90101302F
:10073800F2007208F90708307902031CA42BA52BD4
:100748009B2B7508F1007408F00008002000B70022
:10075800B60108303702031CB22BB32BBB2B37086A
:10076800F83EB4003408B800B601B60AC02B370802
:10077800B4003408B800B6013608031DC42BC52BD5
:10078800E52B33080319C92BCA2BD72B0130B4002A
:10079800380ACF2BB435890BCE2B3408B500350871
:1007A80022008C04092C0130B400380ADC2BB43543
:1007B800890BDB2B3408FF3AB500350822008C057D
:1007C800092C3603031DE92BEA2B092C33080319DE
:1007D800EE2BEF2BFC2B0130B400380AF42BB43588
:1007E800890BF32B3408B500350822008D04092C39
:1007F8000130B400380A012CB435890B002C3408B8
:10080800FF3AB500350822008D050800F400F30111
:1008180008307402031C112C122C1A2C7408F83E90
:10082800F1007108F500F301F30A1F2C7408F100B8
:100838007108F500F3017308031D232C242C442CA4
:1008480070080319282C292C362C0130F100750A60
:100858002E2CF135890B2D2C7108F200720822001C
:100868008C04682C0130F100750A3B2CF135890B9A
:100878003A2C7108FF3AF200720822008C05682CA5
:100888007303031D482C492C682C700803194D2C40
:100898004E2C5B2C0130F100750A532CF135890B75
:1008A800522C7108F200720822008D04682C013065
:1008B800F100750A602CF135890B5F2C7108FF3A3D
:1008C800F200720822008D05080000302000A40004
:1008D8000030A3000030A2000030A100790878049D
:1008E800770476040319792C7A2CBB2CA501A50A68
:1008F800882C0130F635F70DF80DF90D890B7E2C93
:100908000130A0002008A507F91F8B2C8C2C7D2C0A
:100918000130A135A20DA30DA40D890B8D2C7908EA
:100928007D02031DA12C78087C02031DA12C7708E9
:100938007B02031DA12C76087A02031CA42CA52C8B
:10094800AE2C7608FA027708FB3B7808FC3B79085E
:10095800FD3B21140130F936F80CF70CF60C890B25
:10096800AF2C0130A502031DBA2CBB2C8C2C2408FB
:10097800F9002308F8002208F7002108F60008000B
:100988002000A9012935423E86000130870029351B
:10099800403E840001308500403F803F413F813F19
:1009A8000130A0002008A9070F302902031CDD2C04
:1009B800DE2CC62C04308331482384317108220090
:1009C800DF007008DE0000302000A7000030A6001D
:1009D8000030A5000030A400A8012835403E86005C
:1009E80001308700403FA000413FA1002008A40734
:1009F8002108A53D0030A63DA73D0130A0002008F4
:100A0800A80710302802031C0A2D0B2DF12C2408EE
:100A1800A0002508A1002608A2002708A30004308A
:100A2800A336A20CA10CA00C890B142D2108FC00E4
:100A38002008FB0008002000A9012935223E860075
:100A4800013087002935203E840001308500403F71
:100A5800803F413F813F0130A0002008A9070F30A7
:100A68002902031C382D392D212D0A3083314823C2
:100A7800853171082200BF007008BE0000302000D8
:100A8800A7000030A6000030A5000030A400A8018F
:100A98002835203E860001308700403FA000413FB6
:100AA800A1002008A4072108A53D0030A63DA73DC8
:100AB8000130A0002008A80710302802031C652D6B
:100AC800662D4C2D2408A0002508A1002608A200A8
:100AD8002708A3000430A336A20CA10CA00C890B94
:100AE8006F2D2108FC002008FB0008002000A90148
:100AF8002935A23E8600013087002935A03E8400B2
:100B080001308500403F803F413F813F0130A000D8
:100B18002008A9070F302902031C932D942D7C2D42
:100B2800093083314823853171082300BF007008DC
:100B3800BE0000302000A7000030A6000030A5004D
:100B48000030A400A8012835A03E860001308700A7
:100B5800403FA000413FA1002008A4072108A53D6F
:100B68000030A63DA73D0130A0002008A80710309E
:100B78002802031CC02DC12DA72D2408A00025087C
:100B8800A1002608A2002708A3000430A336A20C5F
:100B9800A10CA00C890BCA2D2108FC002008FB0021
:100BA8000800FB017B35A23E860087017B35A03E0D
:100BB80084008501403F803F413F813F0130F20082
:100BC8007208FB070F307B02031CEB2DEC2DD62D92
:100BD80020004F082100BF0020004E082100BE0061
:100BE8000030F9000030F8000030F7000030F6005F
:100BF800FA017A35A03E86008701403FF200413F66
:100C0800F3007208F6077308F73D0030F83DF93D28
:100C18000130F2007208FA0710307A02031C152E10
:100C2800162EFD2D7608F2007708F3007808F400F8
:100C38007908F5000430F536F40CF30CF20C890B46
:100C48001F2E7308F1007208F0000800F800F70181
:100C580008307802031C312E322E3A2E7808F83EDE
:100C6800F0007008F600F701F70A3F2E7808F00048
:100C78007008F600F7017708031D432E442E572EFF
:100C880020000C08F0007008F2007208F000760AE4
:100C98004E2EF036890B4D2E70080139F10071087F
:100CA800F30073086E2E7703031D5B2E5C2E6E2EE9
:100CB80020000D08F0007008F4007408F000760AAF
:100CC800662EF036890B652E70080139F10071081F
:100CD800F500750808002000BB00BA0108303B0287
:100CE800031C772E782E802E3B08F83EB30033087D
:100CF800B900BA01BA0A852E3B08B3003308B90017
:100D0800BA013A08031D892E8A2E9C2E0C08B300BE
:100D18003308B5003508B300390A932EB336890B6A
:100D2800922E33080139B4003408B6003608B22EC2
:100D38003A03031DA02EA12EB22E0D08B3003308CE
:100D4800B7003708B300390AAA2EB336890BA92E83
:100D580033080139B4003408B800380808000030F6
:100D6800FB000030FA000030F9000030F800701C79
:100D7800BE2EBF2EC72E7408F8077508F93D7608F1
:100D8800FA3D7708FB3D0130F435F50DF60DF70D0A
:100D9800890BC82E0130F336F20CF10CF00C890BDC
:100DA800CF2E7308720471047004031DDC2EDD2E2F
:100DB800BB2E7B08F3007A08F2007908F100780866
:100DC800F00008000A308131872186318731CD272C
:100DD80086318F31A02786318F3188278631873138
:100DE8008E2786318F31C32786312000B3010C301E
:100DF800823162228631083086316F268631013A87
:100E08000319072F082F0F2F8F31942786318F3121
:100E18008E278631122F8F3184278631122F803109
:100E28008528013086312A268731013A031D1D2F76
:100E38001F2F0130202F0030F90079082000D8003A
:100E4800033086312A268731013A031D2C2F2E2F95
:100E580001302F2F0030F90079082000D700FA015F
:100E6800FA0A5708031D392F3A2F402F5808031D37
:100E78003E2F3F2F402FFA017A0808007208200001
:100E88009B007108F4007008F300F436F30CF43694
:100E9800F30C73082500910070080139F300F30E74
:100EA80013087306EF397306930002307005F300D8
:100EB80000307105F4000030740202300319730227
:100EC8000318672F6A2F250093166C2F250093129D
:100ED80008007708FB007608FA007B08F1007A081A
:100EE800F000F530F2000030F3008731AE2787318B
:100EF8007008F8007108F9000A30F936F80C890B07
:100F0800812F7808FC007908FD007D08F7007C082F
:100F1800F60008002000B301B30A033082316222D0
:100F280087312000B301B30A013082316222873150
:100F380000308231DE22873102308231DE22873171
:100F48002000B3010B308231622287318F31D827DC
:100F580087310800F401F501701CB32FB42FB82FA6
:100F68007208F4077308F53D0130F235F30D890B6B
:100F7800B92F0130F136F00C890BBE2F70087104BF
:100F8800031DC72FC82FB02F7508F1007408F00093
:100F980008000C302500930020009B0125009101DA
:100FA80022001D15250096151610FC3020009C0502
:100FB8002100911020001C150B172100111520008D
:100FC800B3010630823162228731080002302000E6
:100FD8005A06031DF02FF12FF42F8F31B1278731D7
:100FE800033020005A06031DFA2FFB2FFE2F8F31E6
:100FF800A827873108002834283449344E3454341B
:1010080043344F344E34293426343034373446345C
:10101800683429342C343234003428342834503499
:101028004934523431342934263430343734463450
:0A103800683429342C3432340034BB
:101F08002000DA01DA0A0800013021009D00803043
:101F18009E00080003302000B3003308DA000800F0
:101F280002302000B3003308DA00080064008001A2
:101F38000131890B9B2F00348B178B1621009512CA
:101F4800951104309500080020004B08F7004A0856
:101F5800F6008F31E6278F31080020004908F70086
:101F68004808F60087316D278F3108002000D2011C
:101F7800D301DB010430F0007008DA0008000930F2
:101F88008231DE228F310A308231DE228F31080021
:101F980021001D089D149D18D22FD32FCF2F1C0868
:101FA800F1001B08F00008002000B3010B3083315A
:101FB800AA238F312000B301B30A0B308331AA233F
:101FC8008F3108007608433EF800FE30773DF9006F
:101FD8007908F1007808F0002930F2000B30F3009E
:101FE8008731AE278F317108FB007008FA007B0833
:081FF800F7007A08F60008006A
:020000040001F9
:08000000FF3FFF3FFF3FFF3F00
:04000E00A40FFF1C20
:00000001FF
