:0400000080316C28B7
:100008007E148031853142258031003A031D0D2848
:100018000E281A280130FD007D082000D20000308B
:10002800F000F100F2018431C82480312000540826
:10003800031D1F2820282528F0010C3083313A237E
:10004800803120005403031D2A282B285A285308DE
:10005800031D2F2830284F28F001F00A0C30833177
:100068003A2380318331992380317C082000C500F0
:100078007B08C4008331F42380317C082000C7004A
:100088007B08C600520303194A284B284F2882319F
:100098006B2280314F2820005303031D5428562813
:1000A800013057280030FD007D08D3005403031D9C
:1000B8005E286028013061280030FD007D08D400EA
:1000C8000B110030CC000030CD0011117E1009005A
:1000D80080316E282030840000308500383085312A
:1000E8008C258031A0308400003085004030853177
:1000F8008C25803120308400013085002030853106
:100108008C2580317E1020008431F32C2000E400FF
:100118003929873021009905991300302000C30040
:100128000030C2007930C1001830C00064292100B5
:100138001908873920389900991300302000C30026
:100148000030C200F430C1002430C000642921000E
:100158001908873928389900991300302000C300FE
:100168000130C200E830C1004830C00064292100D5
:100178001908873930389900991300302000C300D6
:100188000330C200D030C1009030C0006429210083
:100198001908873938389900991300302000C300AE
:1001A8000730C200A130C1002030C00064292100FE
:1001B8001908873958389900991300302000C3006E
:1001C8000F30C2004230C1004030C0006429210015
:1001D8001908873960389900991300302000C30046
:1001E8001E30C2008430C1008030C0006429210064
:1001F8001908873968389900991300302000C3001E
:100208003D30C2000930C1000030C000642921001F
:100218001908873970389900991300302000C300F5
:100228007A30C2001230C1000030C0006429783032
:1002380021009904991300302000C300F430C20053
:100248002430C1000030C000642921001908873912
:1002580070389900991701302000C300E830C200B7
:100268004830C1000030C00064296408E200E3019E
:100278006308003A0319412964296208003A0319FE
:100288008D28013A03199B28033A0319AB28013A30
:100298000319BB28073A0319CB28013A0319DB28AD
:1002A800033A0319EB28013A0319FB280F3A0319FB
:1002B8000B29013A03191B29033A0319292964292F
:1002C80008002100E100E00108306102031C6D29EB
:1002D8006E2978296108F83E2000E30063082100B0
:1002E800E200E001E00A7F2961082000E3006308DA
:1002F8002100E200E0016008031D83298429B9294F
:1003080020006208031989298A29A9290130E300F4
:100318002100620A20009129E335890B902963089E
:10032800E400640821008C0401302000E30021006F
:10033800620A2000A029E335890B9F296308FF3A48
:10034800E400640823008C05F2290130E300210051
:10035800620A2000B029E335890BAF296308FF3A08
:10036800E400640821008C05F2296003031DBD29FF
:10037800BE29F229200062080319C329C429E329E8
:100388000130E3002100620A2000CB29E335890B04
:10039800CA296308E400640821008D0401302000A4
:1003A800E3002100620A2000DA29E335890BD92904
:1003B8006308FF3AE400640823008D05F229013040
:1003C800E3002100620A2000EA29E335890BE929C4
:1003D8006308FF3AE400640821008D050800210045
:1003E800E300E201E101E001043063020318FD29A2
:1003F800FE29072A63082000E20062082100E200C3
:10040800E101E001E00A09306302031C0C2A0D2A0D
:100418001E2A103063020318122A132A1E2A6308A0
:10042800F83E2000E20062082100E200E101E10A52
:10043800E001E00A60080319222A232A6A2A6108CF
:10044800031D272A282A472A01302000E20021001C
:10045800620A2000302AE235890B2F2A6208E3005D
:10046800630821008C0401302000E2002100620AA8
:1004780020003F2AE235890B3E2A6208E300630820
:1004880023008C046A2A6103031D4B2A4C2A6A2A1A
:1004980001302000E2002100620A2000542AE235DF
:1004A800890B532A6208E300630821008D04013098
:1004B8002000E2002100620A2000632AE235890B4D
:1004C800622A6208E300630823008D0408000130F3
:1004D8002000D8005808D50720305506031D752A76
:1004E800762AD72A4608D33EF000FF30473DF10070
:1004F800F201F3010030F7000030F6000030F5009B
:100508009030F40084319524823170082000D8009E
:100518007108D9007208DA007308DB000A30DB368C
:10052800DA0CD90CD80C890B932A58080F3EDC003A
:100538005C08D7004408D33EF000FF30453DF10089
:10054800F201F3015708D800D901DA01DB015B0891
:10055800F7005A08F6005908F5005808F4008431E5
:100568009524823170082000DC007108DD007208D3
:10057800DE007308DF000830DF36DE0CDD0CDC0C33
:10058800890BC02A5D08D1005C08D0005108F10031
:100598005008F0005708D8005808F2008431C824E1
:1005A80082312000D5010800FA00F601F701043075
:1005B8007A020318E02AE12AE72A7A08F200720888
:1005C800F600F701F70A09307A02031CEC2AED2A33
:1005D800FA2A10307A020318F22AF32AFA2A7A0839
:1005E800143CF2007208F600F701F70A77080319BD
:1005F800FE2AFF2A392B21001D088330F2007208D9
:100608009D057608F2000130F235FF3E031D082BE8
:100618007235F30073089D04F8010130F200720886
:10062800F80708307802031C1A2B1B2B112B21000A
:100638009D149D18202B212B1D2B1C08F5001B0831
:10064800F4008330F20072089D059D15F901013010
:10065800F2007208F90708307902031C342B352B95
:100668002B2B7508F1007408F0000800F400F30162
:1006780008307402031C412B422B4A2B7408F83EA5
:10068800F1007108F500F301F30A4F2B7408F1002B
:100698007108F500F3017308031D532B542B742BB9
:1006A80070080319582B592B662B0130F100750A75
:1006B8005E2BF135890B5D2B7108F2007208220060
:1006C8008C04982B0130F100750A6B2BF135890BDE
:1006D8006A2B7108FF3AF200720822008C05982BE9
:1006E8007303031D782B792B982B700803197D2B26
:1006F8007E2B8B2B0130F100750A832BF135890B8A
:10070800822B7108F200720822008D04982B0130A8
:10071800F100750A902BF135890B8F2B7108FF3A80
:10072800F200720822008D0508002000E101613501
:10073800223E8600013087006135203E840001306A
:100748008500403F803F413F813F0130D800580835
:10075800E1070F306102031CB22BB32B9B2B09302E
:100768008231D822833171082200BF007008BE0090
:1007780000302000DF000030DE000030DD000030F7
:10078800DC00E0016035203E860001308700403FF4
:10079800D800413FD9005808DC075908DD3D003032
:1007A800DE3DDF3D0130D8005808E0071030600218
:1007B800031CDF2BE02BC62B5C08D8005D08D90092
:1007C8005E08DA005F08DB000430DB36DA0CD90C8F
:1007D800D80C890BE92B5908FC005808FB000800C5
:1007E8002000E1016135A23E860087016135A03E07
:1007F80084008501403F803F413F813F0130D80060
:100808005808E1070F306102031C0B2C0C2CF62B47
:100818000A308231D822833171082100BF00700864
:10082800BE0000302000DF000030DE000030DD00B8
:100838000030DC00E0016035A03E86008701403FC3
:10084800D800413FD9005808DC075908DD3D003081
:10085800DE3DDF3D0130D8005808E0071030600267
:10086800031C372C382C1F2C5C08D8005D08D900D5
:100878005E08DA005F08DB000430DB36DA0CD90CDE
:10088800D80C890B412C5908FC005808FB000800BB
:10089800F400F30108307402031C532C542C5C2C14
:1008A8007408F83EF0007008F500F301F30A612CB3
:1008B8007408F0007008F500F3017308031D652C37
:1008C800662C7B2C0130F000750A6B2CF035890BF7
:1008D8006A2C7008F100710820008C050C08F200E1
:1008E800750A772CF236890B762C7208942C7303D0
:1008F800031D7F2C802C942C0130F000750A852C68
:10090800F035890B842C7008F100710820008D05E2
:100918000D08F200750A912CF236890B902C72089A
:1009280008000030FB000030FA000030F900003009
:10093800F800701CA02CA12CA92C7408F8077508C5
:10094800F93D7608FA3D7708FB3D0130F435F50DA1
:10095800F60DF70D890BAA2C0130F336F20CF10CC9
:10096800F00C890BB12C7308720471047004031D18
:10097800BE2CBF2C9D2C7B08F3007A08F200790866
:10098800F1007808F0000800720820009B00710848
:10099800F4007008F300F436F30CF436F30C730823
:1009A8002500910070080139F300F30E130873064F
:1009B800EF397306930002307005F30000307105BB
:1009C800F400003074020230031973020318ED2C8E
:1009D800F02C25009316F22C2500931208000A30FB
:1009E80080318A20843185310F25843185318425F1
:1009F800843185319225843185312B2584318531A7
:100A08007B2584312000E2010C308131652184315D
:100A18000C2D80316C280C302500930020009B01A0
:100A28002500910122001D1525009615FC30200097
:100A38009C052100911020001C150B172100111591
:100A48002000E2010630813165218531080020004F
:100A5800E201E20A03308131652185312000E2019B
:100A6800E20A013081316521853100308131F3217D
:100A7800853103308131F32185310800F601F60A0A
:100A8800033084314C248531003A031D4C2D4D2D03
:100A9800572D013084314C248531003A031D552DE2
:100AA800562D572DF6017608080028342834493485
:100AB8004E34543443344F344E342934263430348D
:100AC80037344634683429342C34323400342834EA
:100AD80028345034493452343134293426343034AB
:100AE80037344634683429342C34323400340930ED
:100AF8008131F32185310A308131F32185310800B4
:100B08008B178B162100951295110430950008005B
:100B1800640080010131890B8D2D003401302100E2
:080B28009D0080309E000800D2
:020000040001F9
:08000000FF3FFF3FFF3FFF3F00
:04000E00A40FFF1C20
:00000001FF
