:04000000803186289D
:100008007E148031F001F00A0C308631722680317E
:100018008C31F524803120006408F1006308F00079
:100028006E08DC005C08F2008D3119258031200053
:100038006708031D20282128292882319822803129
:10004800F0010C3086317226803120006703031DD1
:100058002E282F287828F001F00A0D3086317226D4
:1000680080318E31F326803171082000E00070085D
:10007800DF008631D12680317B082000DE007A0837
:10008800DD006608031D49284A284D28833192233C
:10009800803120006603031D5228532863288731C6
:1000A800872780317B082200E1007A08E000873149
:1000B8002C2780317B082100C1007A08C00020006D
:1000C8006603031D68286A2801306B280030DC00AD
:1000D8005C08E600F0010C30863172268031F001B0
:1000E8000D3086317226803120006703031D7D287C
:1000F8007F28013080280030DC005C08E7000B1105
:100108007E100900803188285D3084000030850029
:1001180012308C3125248031A030840000308500D5
:1001280042308C3125248031203084000130850014
:1001380042308C3125248031A03084000130850084
:1001480040308C31252480312030840002308500F5
:1001580020308C31252480317E1020008D31A42D53
:1001680020005E08FD005D08FC008D31D925803136
:100178007D082000D1007C08D00008308E3116267A
:100188008031003A0319C928CA28D92880302000AC
:10019800B0003E30B100500830022100C6002000F7
:1001A8005108313B2100C700E728E0302000B000AB
:1001B8002E30B100500830022100C600200051083E
:1001C800313B2100C70046082000A0002100470855
:1001D8002000A100890D893B8909A200A300A40081
:1001E800A500A600A7000030AF000030AE00003028
:1001F800AD000030AC000030AB000030AA00023087
:10020800A9009E30A8008E31A72680312000200842
:10021800C0002108C1002208C2002308C300240826
:10022800C4002508C5002608C6002708C7004308DB
:100238002100CB00200042082100CA00200041080C
:100248002100C900200040082100C8000E30C63E29
:1002580086008701403F2000B000413FB100423F87
:10026800B200433FB300443FB400453FB500463FAA
:10027800B600473FB700210048082000B800210019
:1002880049082000B90021004A082000BA002100CE
:100298004B082000BB000030BB1BFF30BC00BD007A
:1002A800BE00BF003808B0073908B13D3A08B23D72
:1002B8003B08B33D3C08B43D3D08B53D3E08B63D5E
:1002C8003F08B73D37082100DB0020003608210031
:1002D800DA00200035082100D90020003408210068
:1002E800D800200033082100D70020003208210060
:1002F800D600200031082100D50020003008210058
:10030800D400DB1B9E295B08031D9F295A08031D87
:100318009F295908031D9F295808031D9F2901304B
:1003280054020030553B0030563B4030573B031CCD
:100338009E299F29B02900302100DB000030DA0017
:100348000030D9000030D8004030D7000030D60047
:100358000030D5000030D4000E30C63E860087013C
:10036800473F2000B000B01FBA29BB29EA29210065
:100378005508F1005408F0008C319C248031700835
:100388002000B0007108B1000030B11BFF30B2008E
:10039800B300013030020030313B0030323B403096
:1003A800333B031CD829D929EA2900302100DB0076
:1003B8000030DA000030D9000030D800C030D70053
:1003C8000030D6000030D5000030D4000E30C63ED4
:1003D80086008701403F2000B000413FB100423F06
:1003E800B200433FB300443FB400453FB500463F29
:1003F800B600473FB7001430B8002000B737B60C36
:10040800B50CB40CB30CB20CB10CB00CB80B012A7F
:10041800200033082100D300200032082100D20038
:10042800200031082100D100200030082100D00030
:100438004608F0004708F100890D893B8909F20058
:10044800F3000030F7000030F6000030F5001230FD
:10045800F4008D317125803170082000C8007108C2
:10046800C9007208CA007308CB000030CB1BFF30EC
:10047800CC00CD00CE00CF00483086000030870089
:10048800403FB000413FB100423FB200433FB3009C
:10049800443FB400453FB500463FB600473FB7006C
:1004A8000A30B8002000B737B60CB50CB40CB30C42
:1004B800B20CB10CB00CB80B562A2000330821003E
:1004C800CF00200032082100CE0020003108210092
:1004D800CD00200030082100CC0050084C07200037
:1004E800B000210051084D3D2000B1002100520804
:1004F8004E3D2000B200210053084F3D2000B300BC
:1005080033082100DF00200032082100DE0020002F
:1005180031082100DD00200030082100DC004708F8
:10052800E1004608E0000800023020006C06031DC8
:100538009E2A9F2ADA2A8031B42082314F30200047
:10054800D2005208EE001630C63E86008701003001
:10055800F9000030F8000030F7001930F6003230AA
:10056800F2000030F3006E08D200D3015208F00008
:100578005308F1008C31B624823170082000D40071
:100588007108D500D601D7015708FD005608FC00B0
:100598005508FB005408FA008F31A5278231403FE7
:1005A80076072000E300413F773DE40003306C0606
:1005B800031DDF2AE02A1B2B8C31412482314F3066
:1005C8002000D2005208EE001630A03E86008701B7
:1005D8000030F9000030F8000030F7001930F6005C
:1005E8003230F2000030F3006E08D200D301520816
:1005F800F0005308F1008C31B624823170082000D5
:10060800D4007108D500D601D7015708FD00560857
:10061800FC005508FB005408FA008F31A5278231E9
:10062800403F76072000E300413F773DE40000307B
:10063800F9000030F8000030F7001930F6005A30A1
:10064800F2000030F3006E08D200D3015208F00027
:100658005308F1008C31B624823170082000D40090
:100668007108D500D601D7015708FD005608FC00CF
:100678005508FB005408FA008F31A5278231770806
:100688002000D9007608D8000030F9000030F800C2
:100698000030F7001930F6000A30F2000030F3009D
:1006A8006E08D200D3015208F0005308F1008C31D3
:1006B800B624823170082000D4007108D500D60114
:1006C800D7015708FD005608FC005508FB005408E0
:1006D800FA008F31A527823177082000DB007608E1
:1006E800DA0064085902031D7B2B630858020318BB
:1006F8007E2B7F2B832B5908E4005808E3005B0806
:100708006402031D892B5A08630203188C2B8D2B56
:10071800912B5B08E4005A08E300080020006C03F2
:10072800031D972B982B702C0130A6002608E8078C
:1007380020306806031DA12BA22B702C2100400835
:10074800D33EF000FF30413DF100F201F3010030EB
:10075800F7000030F6000030F5009030F4008D31DD
:100768007125833170082000A6007108A70072085F
:10077800A8007308A9000A30A936A80CA70CA60C73
:10078800890BC02B26080F3EAA002A08EE0022007B
:100798006008D33EF000FF30613DF100F201F30143
:1007A80020006E08A600A701A801A9012908F700E2
:1007B8002808F6002708F5002608F4008D31712571
:1007C800833170082000AA007108AB007208AC00E1
:1007D8007308AD000830AD36AC0CAB0CAA0C890B15
:1007E800EF2B2B08E4002A08E3000030F900003062
:1007F800F8000030F7001930F6005A30F2000030E7
:10080800F3006E08A600A7012608F0002708F100EB
:100818008C31B624833170082000A8007108A90023
:10082800AA01AB012B08FD002A08FC002908FB00DF
:100838002808FA008F31A527833177082000AF00F8
:100848007608AE000030F9000030F8000030F700FC
:100858001930F6000A30F2000030F3006E08A600E6
:10086800A7012608F0002708F1008C31B62483314F
:1008780070082000A8007108A900AA01AB012B0884
:10088800FD002A08FC002908FB002808FA008F311F
:10089800A527833177082000B1007608B0006408E6
:1008A8002F02031D592C63082E0203185C2C5D2CA3
:1008B800612C2F08E4002E08E30031086402031DB0
:1008C800672C3008630203186A2C6B2C6F2C3108D4
:1008D800E4003008E300E80108002100E4000A2DE4
:1008E8008730990599130030BF000030BE00793079
:1008F800BD001830BC00352D1908873920389900FB
:1009080099130030BF000030BE00F430BD00243021
:10091800BC00352D190887392838990099130030FB
:10092800BF000130BE00E830BD004830BC00352DA6
:10093800190887393038990099130030BF000330FF
:10094800BE00D030BD009030BC00352D1908873965
:100958003838990099130030BF000730BE00A13025
:10096800BD002030BC00352D19088739583899004A
:1009780099130030BF000F30BE004230BD00403038
:10098800BC00352D19088739603899009913003053
:10099800BF001E30BE008430BD008030BC00352D45
:1009A800190887396838990099130030BF003D301D
:1009B800BE000930BD000030BC00352D190887394C
:1009C8007038990099130030BF007A30BE00123099
:1009D800BD000030BC00352D7830990499130030E3
:1009E800BF00F430BE002430BD000030BC00352DFF
:1009F800190887397038990099170130BF00E83015
:100A0800BE004830BD000030BC00352D6408E2004F
:100A1800E3016308003A0319122D352D6208003AE4
:100A28000319742C013A0319802C033A03198E2CEC
:100A3800013A03199C2C073A0319AA2C013A031905
:100A4800B82C033A0319C62C013A0319D42C0F3ACF
:100A58000319E22C013A0319F02C033A0319FC2C70
:100A6800352D08002100E600E50108306602031C68
:100A78003E2D3F2D472D6608F83EE3006308E7004A
:100A8800E501E50A4C2D6608E3006308E700E50187
:100A98006508031D502D512D7C2D62080319552D15
:100AA800562D6F2D0130E300670A5B2DE335890B66
:100AB8005A2D6308E40064088C040130E300670AD7
:100AC800662DE335890B652D6308FF3AE400640859
:100AD80023008C05AB2D0130E300670A742DE33544
:100AE800890B732D6308FF3AE40064088C05AB2D6D
:100AF8006503031D802D812DAB2D62080319852DFB
:100B0800862D9F2D0130E300670A8B2DE335890B75
:100B18008A2D6308E40064088D040130E300670A45
:100B2800962DE335890B952D6308FF3AE400640898
:100B380023008D05AB2D0130E300670AA42DE335B2
:100B4800890BA32D6308FF3AE40064088D050800AB
:100B58002100E700E601E501E4010430670203181B
:100B6800B62DB72DBE2D6708E2006208E600E50144
:100B7800E401E40A09306702031CC32DC42DD32DF8
:100B8800103067020318C92DCA2DD32D6708F83E07
:100B9800E2006208E600E501E50AE401E40A640807
:100BA8000319D72DD82D112E6508031DDC2DDD2D39
:100BB800F52D0130E200660AE22DE235890BE12DC0
:100BC8006208E30063088C040130E200660AED2D38
:100BD800E235890BEC2D6208E300630823008C04DE
:100BE800112E6503031DF92DFA2D112E0130E20097
:100BF800660AFF2DE235890BFE2D6208E3006308C3
:100C08008D040130E200660A0A2EE235890B092EAE
:100C18006208E300630823008D0408002100E60051
:100C2800E50108306602031C1A2E1B2E232E6608C7
:100C3800F83EE3006308E700E501E50A282E6608A8
:100C4800E3006308E700E5016508031D2C2E2D2E3F
:100C58004D2E62080319312E322E3F2E0130E3004B
:100C6800670A372EE335890B362E6308E4006408DB
:100C780022008C04712E0130E300670A442EE3350C
:100C8800890B432E6308FF3AE400640822008C05B0
:100C9800712E6503031D512E522E712E6208031901
:100CA800562E572E642E0130E300670A5C2EE3357A
:100CB800890B5B2E6308E400640822008D04712E02
:100CC8000130E300670A692EE335890B682E630853
:100CD800FF3AE400640822008D050800F400F301DF
:100CE80008307402031C792E7A2E822E7408F83E7E
:100CF800F1007108F500F301F30A872E7408F1007A
:100D08007108F500F3017308031D8B2E8C2EAC2E91
:100D180070080319902E912E9E2E0130F100750A4D
:100D2800962EF135890B952E7108F2007208220073
:100D38008C04D02E0130F100750AA32EF135890BF1
:100D4800A22E7108FF3AF200720822008C05D02EFC
:100D58007303031DB02EB12ED02E70080319B52EC3
:100D6800B62EC32E0130F100750ABB2EF135890B62
:100D7800BA2E7108F200720822008D04D02E0130BC
:100D8800F100750AC82EF135890BC72E7108FF3A94
:100D9800F200720822008D0508002000A9012935FB
:100DA800C23E8600013087002935C03E84000130EC
:100DB8008500403F803F413F813F0130A00020082F
:100DC800A9070F302902031CEA2EEB2ED32E04307C
:100DD8008F314B27863171082300DF007008DE0051
:100DE80000302000A7000030A6000030A500003029
:100DF800A400A8012835C03E860001308700403F86
:100E0800A000413FA1002008A4072108A53D00300B
:100E1800A63DA73D0130A0002008A80710302802F1
:100E2800031C172F182FFE2E2408A0002508A10048
:100E38002608A2002708A3000430A336A20CA10CA0
:100E4800A00C890B212F2108FB002008FA000800BC
:100E58002000A9012935A23E8600013087002935E6
:100E6800A03E840001308500403F803F413F813FE4
:100E78000130A0002008A9070F302902031C452FC4
:100E8800462F2E2F0A308F314B27873171082300C8
:100E9800BF007008BE0000302000A7000030A60088
:100EA8000030A5000030A400A8012835A03E860027
:100EB80001308700403FA000413FA1002008A4075F
:100EC8002108A53D0030A63DA73D0130A00020081F
:100ED800A80710302802031C722F732F592F2408DB
:100EE800A0002508A1002608A2002708A3000430B6
:100EF800A336A20CA10CA00C890B7C2F2108FB00A7
:100F08002008FA0008002000A9012935223E8600A1
:100F1800023087002935203E840002308500403F9A
:100F2800803F413F813F0130A0002008A9070F30D2
:100F38002902031CA02FA12F892F09308F314B279D
:100F4800873171082400BF007008BE0000302000FF
:100F5800A7000030A6000030A5000030A400A801BA
:100F68002835203E860002308700403FA000413FE0
:100F7800A1002008A4072108A53D0030A63DA73DF3
:100F88000130A0002008A80710302802031CCD2F2C
:100F9800CE2FB42F2408A0002508A1002608A200FF
:100FA8002708A3000430A336A20CA10CA00C890BBF
:100FB800D72F2108FB002008FA0008000C30250074
:100FC800930020009B012500910122001D1525009A
:100FD80096151610FC3020009C0521009110200069
:100FE8001C150B1721001115E20106308531362535
:100FF800873108002834283449344E345434433473
:101008004F344E3429342634303437344634683437
:0810180029342C343234003479
:101836002000EC01EC0A0800013021009D009030E8
:101846009E000800640080010131890B262C0034BB
:1018560003302100E20062082000EC00080002309C
:101866002100E20062082000EC0008008B178B16AE
:10187600210095129511053095000800200060089A
:10188600F7005F08F6008C3182248C3108002000B6
:10189600E301E401EE010430F0007008EC000800FA
:1018A60009308531AC258C310A308531AC258C3137
:1018B6000800F0010B30863172268C31F001F00AF7
:1018C6000B30863172268C3108002100E201E20AD3
:1018D6000430853136258C3104308531AC258C3188
:1018E60008002100E2010B30863112268C312100DE
:1018F600E201E20A0B30863112268C3108007608A6
:10190600433EF800FE30773DF9007908F10078088B
:10191600F0002930F2000B30F3008C31B6248C3104
:101926007108FB007008FA007B08F7007A08F600D9
:1019360008007108803AF20080307202031DA52C5F
:10194600013070020318A82CA92CB52C7009F200DE
:101956007109F300F20A0319F30A7208F00073081A
:10196600F100B52C0800F401F501701CBB2CBC2C51
:10197600C02C7208F4077308F53D0130F235F30DFB
:10198600890BC12C0130F136F00C890BC62C70087E
:101996007104031DCF2CD02CB82C7508F1007408E7
:1019A600F00008002100E201E20A03308531362505
:1019B6008C312100E201E20A0130853136258C3175
:1019C60000308531AC258C3102308531AC258C3127
:1019D6002100E2010B30853136258C318C3174249F
:1019E6008C3108008D3144258C31013A031DFC2CC5
:1019F600FD2C102D0130FB007B082000E907033089
:101A06006906031D072D082D0C2D8C314A248C31B7
:101A1600182D8C315C248C31182D2000690803198F
:101A2600152D162D182D0130E90208007208200028
:101A36009B007108F4007008F300F436F30CF436DA
:101A4600F30C73082500910070080139F300F30EBA
:101A560013087306EF397306930002307005F3001E
:101A660000307105F400003074020230031973026D
:101A760003183E2D412D25009316432D2500931264
:101A8600080001308E3116268D31013A031D4C2D8A
:101A96004E2D01304F2D0030F90079082000EB0063
:101AA60003308E3116268D31013A031D5B2D5D2DD7
:101AB60001305E2D0030F90079082000EA00FA01B5
:101AC600FA0A6A08031D682D692D6F2D6B08031D20
:101AD6006D2D6E2D6F2DFA017A0808000030FB007F
:101AE6000030FA000030F9000030F800701C7C2D40
:101AF6007D2D852D7408F8077508F93D7608FA3DA1
:101B06007708FB3D0130F435F50DF60DF70D890B21
:101B1600862D0130F336F20CF10CF00C890B8D2D6D
:101B26007308720471047004031D9A2D9B2D792D80
:101B36007B08F3007A08F2007908F1007808F000D3
:101B460008000A30843171248D318731E2278D31C6
:101B56008C3139248D318C311F248D318C31D52433
:101B66008D318C3153248D318C3168248D31210097
:101B7600E2010C30853136258D312100E2010D3030
:101B8600853136258D3108308E315D268D31013A0D
:101B96000319CE2DCF2DD32D8C3132248D31D62D58
:101BA6008C311B248D31D62D803186287C08F63E5B
:101BB6002000A900FF307D3DAA002908F0002A0870
:101BC600F100890D893B8909F200F3000030F70026
:101BD6000030F6001730F500D430F4008D31712551
:101BE6008D3173082000A8007208A7007108A600AE
:101BF6007008A5002508A0002608A1002708A20055
:101C06002808A3000830A400A337A20CA10CA00C3E
:101C1600A40B072E2108AC002008AB002C08FD0001
:101C26002B08FC000800F800F70108307802031CB6
:101C36001D2E1E2E262E7808F83EF0007008F6009F
:101C4600F701F70A2B2E7808F0007008F600F70166
:101C56007708031D2F2E302E432E20000C08F0008F
:101C66007008F2007208F000760A3A2EF036890BF8
:101C7600392E70080139F1007108F30073085C2EE3
:101C86007703031D472E482E5B2E20000D08F0001B
:101C96007008F4007408F000760A522EF036890BAC
:101CA600512E70080139F1007108F50075085C2E97
:101CB600003008002100EA00E90108306A02031C2E
:101CC600652E662E6E2E6A08F83EE2006208E8006F
:101CD600E901E90A732E6A08E2006208E800E901F0
:101CE6006908031D772E782E8C2E20000C08210003
:101CF600E2006208E4006408E200680A832EE23625
:101D0600890B822E62080139E3006308E500650845
:101D1600A62E6903031D902E912EA52E20000D08D8
:101D26002100E2006208E6006608E200680A9C2ECE
:101D3600E236890B9B2E62080139E3006308E7004F
:101D46006708A62E00300800713086000030870034
:101D56000830F00000301E00F00BAE2E2000201CD4
:101D6600B52EB62EC62E2808F1072908F23D2A08F8
:101D7600F33D2B08F43D2C08F53D2D08F63D2E08C5
:101D8600F73D2F08F83DA835A90DAA0DAB0DAC0DF2
:101D9600AD0DAE0DAF0DA736A60CA50CA40CA30C6D
:101DA600A20CA10CA00C2008210422042304240464
:101DB600250426042704031DE12EE22EB12E710808
:101DC600A0007208A1007308A2007408A300750899
:101DD600A4007608A5007708A6007808A7000800E2
:101DE600FB017B35223E8600013087007B35203E95
:101DF600840001308500403F803F413F813F0130F4
:101E0600F2007208FB070F307B02031C0B2F0C2F0E
:101E1600F42E200062082200BF0020006108220084
:101E2600BE000030F9000030F8000030F700003046
:101E3600F600FA017A35203E860001308700403FE1
:101E4600F200413FF3007208F6077308F73D0030D1
:101E5600F83DF93D0130F2007208FA0710307A02B7
:101E6600031C362F372F1D2F7608F2007708F30054
:101E76007808F4007908F5000430F536F40CF30C14
:101E8600F20C890B402F7308F1007208F00008006D
:101E9600F900F601F701053079020318532F542F84
:101EA6005A2F7908F2007208F600F701F70A09308E
:101EB6007902031C5F2F602F6D2F103079020318F3
:101EC600652F662F6D2F7908143CF2007208F60014
:101ED600F701F70A77080319712F722FA22F210035
:101EE6001D088330F20072089D057608F200013065
:101EF600F235FF3E031D7B2F7235F30073089D04F8
:101F0600F8010130F2007208F80710307802031C5D
:101F16008D2F8E2F842F21009D149D18932F942F83
:101F2600902F1C08F5001B08F4008330F20072089D
:101F36009D059D157508F1007408F000A42FF001A9
:101F4600F101080000302000A4000030A30000309A
:101F5600A2000030A10079087804770476040319FA
:101F6600B52FB62FF72FA501A50AC42F0130F635D8
:101F7600F70DF80DF90D890BBA2F0130A0002008D6
:101F8600A507F91FC72FC82FB92F0130A135A20DFC
:101F9600A30DA40D890BC92F79087D02031DDD2F22
:101FA60078087C02031DDD2F77087B02031DDD2FD9
:101FB60076087A02031CE02FE12FEA2F7608FA0250
:101FC6007708FB3B7808FC3B7908FD3B2114013080
:101FD600F936F80CF70CF60C890BEB2F0130A5023D
:101FE600031DF62FF72FC82F2408F9002308F80041
:0A1FF6002208F7002108F600080099
:020000040001F9
:08000000FF3FFF3FFF3FFF3F00
:04000E00A40FFF1C20
:00000001FF
