:04000000803186289D
:100008007E148031F001F00A0C30873127278031C7
:100018008C313E24803120006408F1006308F00030
:100028006E08DE005E08F2008C3162248031200008
:100038006708031D2028212829288431502480316D
:10004800F0010C3087312727803120006703031D1A
:100058002E282F287828F001F00A0D30873127271D
:1000680080318E313D26803171082100B100700841
:10007800B0008731862780317B082000E0007A08AD
:10008800DF006608031D49284A284D2883311323B9
:10009800803120006603031D5228532863288F31BE
:1000A8004A2780317B082100AD007A08AC008F31E7
:1000B800A52780317B082100AF007A08AE00200018
:1000C8006603031D68286A2801306B280030DE00AB
:1000D8005E08E600F0010C30873127278031F001F7
:1000E8000D3087312727803120006703031D7D28C5
:1000F8007F28013080280030DE005E08E7000B1101
:100108007E100900803188285F3084000030850027
:1001180010308B3183238031A0308400003085007B
:1001280032308B31832380312030840001308500C8
:1001380040308B3183238031A0308400013085002A
:1001480040308B3183238031203084000230850099
:1001580020308B31832380317E1020008C31ED2CB0
:1001680020006008FD005F08FC008D3125258031E6
:100178007D082000D1007C08D00008308D31602532
:100188008031003A0319C928CA28D92880302000AC
:10019800B0003E30B100500830022100B600200007
:1001A8005108313B2100B700E728E0302000B000BB
:1001B8002E30B100500830022100B600200051084E
:1001C800313B2100B70036082000A0002100370885
:1001D8002000A100890D893B8909A200A300A40081
:1001E800A500A600A7000030AF000030AE00003028
:1001F800AD000030AC000030AB000030AA00253064
:10020800A9008C30A8008D31F1258031200020080C
:10021800C0002108C1002208C2002308C300240826
:10022800C4002508C5002608C6002708C7004308DB
:100238002100BB00200042082100BA00200041082C
:100248002100B900200040082100B8000E30B63E59
:1002580086008701403F2000B000413FB100423F87
:10026800B200433FB300443FB400453FB500463FAA
:10027800B600473FB700210038082000B800210029
:1002880039082000B90021003A082000BA002100EE
:100298003B082000BB000030BB1BFF30BC00BD008A
:1002A800BE00BF003808B0073908B13D3A08B23D72
:1002B8003B08B33D3C08B43D3D08B53D3E08B63D5E
:1002C8003F08B73D37082100CB0020003608210041
:1002D800CA00200035082100C90020003408210088
:1002E800C800200033082100C70020003208210080
:1002F800C600200031082100C50020003008210078
:10030800C4002708803A2000B00021004B08803A3A
:10031800200030022100031DAB294A082602031DD4
:10032800AB2949082502031DAB2948082402031DEF
:10033800AB2947082302031DAB2946082202031DE7
:10034800AB2945082102031DAB29440820020318E4
:10035800AE29AF29BF292008C4002108C5002208FA
:10036800C6002308C7002408C8002508C9002608B5
:10037800CA002708CB000E30B63E86008701473FEB
:100388002000B000B01FC929CA29672A21004508E2
:10039800F1004408F0008B31CB2380317008200035
:1003A800B0007108B1000030B11BFF30B200B300DB
:1003B800B400B500B600B70021002708803A200035
:1003C800B8003708803A38022100031D132A20009C
:1003D800360821002602031D132A200035082100B3
:1003E8002502031D132A2000340821002402031DBE
:1003F800132A2000330821002302031D132A20009A
:10040800320821002202031D132A2000310821008E
:100418002102031D132A200030082100200203189E
:10042800162A172A672A00302000B0000030B100D1
:100438000030B2000030B3000030B4000030B50026
:100448000030B6000030B700210020082000B002BC
:10045800210021082000B13B210022082000B23BE6
:10046800210023082000B33B210024082000B43BCE
:10047800210025082000B53B210026082000B63BB6
:10048800210027082000B73B37082100CB002000B7
:1004980036082100CA00200035082100C9002000C4
:1004A80034082100C800200033082100C7002000BC
:1004B80032082100C600200031082100C5002000B4
:1004C80030082100C4000E30B63E86008701403F48
:1004D8002000B000413FB100423FB200433FB300AB
:1004E800443FB400453FB500463FB600473FB7001C
:1004F8001730B8002000B737B60CB50CB40CB30CE5
:10050800B20CB10CB00CB80B7E2A200033082100C5
:10051800C300200032082100C20020003108210059
:10052800C100200030082100C00036082000B000BB
:10053800210037082000B1000030B11BFF30B200A5
:10054800B3000130B035B10DB20DB30D890BA62A39
:100558003008C8003108C9003208CA003308CB0087
:100568000030CB1BFF30CC00CD00CE00CF00483090
:10057800860000308700403FB000413FB100423F55
:10058800B200433FB300443FB400453FB500463F87
:10059800B600473FB7000930B8002000B737B60C9F
:1005A800B50CB40CB30CB20CB10CB00CB80BD12A0E
:1005B800200033082100BF00200032082100BE00BF
:1005C800200031082100BD00200030082100BC00B7
:1005D80040083C072000B000210041083D3D2000B4
:1005E800B100210042083E3D2000B200210043082E
:1005F8003F3D2000B30033082100CF00200032081F
:100608002100CE00200031082100CD002000300854
:100618002100CC003708D1003608D000080020009F
:100628006C03031D182B192B4F2C0130A60026082C
:10063800E80720306806031D222B232B4F2C2100AE
:100648002E08CD3EF000FF302F3DF100F201F301FE
:100658000030F7000030F6000130F5000E30F400ED
:100668008C31BA24833170082000A6007108A700D5
:100678007208A8007308A9000830A936A80CA70CAE
:10068800A60C890B412B2908AF002808AE002708C3
:10069800AD002608AC002F08F3002E08F2002D0844
:1006A800F1002C08F0000030F7000030F6000030B0
:1006B800F500A530F4008C31BA248331700820008D
:1006C800A6007108A7007208A8007308A9000A30DC
:1006D800A936A80CA70CA60C890B6C2B26080F3E74
:1006E800AA002A08EE000030F9000030F8000030B7
:1006F800F7001930F6005A30F2000030F3006E08A7
:10070800A600A7012608F0002708F1008731E12795
:10071800833170082000A8007108A900AA01AB0164
:100728002B08FD002A08FC002908FB002808FA000D
:100738008E31EF26833177082000B1007608B000AB
:100748000030F9000030F8000030F7001930F600EA
:100758000A30F2000030F3006E08A600A701260850
:10076800F0002708F1008731E12783317008200065
:10077800A8007108A900AA01AB012B08FD002A08EE
:10078800FC002908FB002808FA008E31EF26833187
:1007980077082000B3007608B20021002C08CD3E6F
:1007A800F000FF302D3DF100F201F3010030F700B9
:1007B8000030F6000130F5000E30F4008C31BA2418
:1007C800833170082000A6007108A7007208A800ED
:1007D8007308A9000830A936A80CA70CA60C890B29
:1007E800EF2B2908AF002808AE002708AD0026081F
:1007F800AC0032083002F0003308313BF100F2015E
:10080800F3012F08F7002E08F6002D08F5002C0834
:10081800F4008C31BA24833170082000A6007108D6
:10082800A7007208A8007308A9000A30A936A80C06
:10083800A70CA60C890B1A2C32082607E3003308EC
:10084800273DE40063083202A6006408333BA70092
:1008580030082607E3003108273DE4006408310228
:10086800031D382C6308300203183B2C3C2C402C09
:100878003108E4003008E30033086402031D462C05
:10088800320863020318492C4A2C4E2C3308E40022
:100898003208E300E8010800023020006C06031962
:1008A800562C572C5D2C03306C06031D5C2C5D2CDC
:1008B800252DDC01DD0102306C06031D642C652C3E
:1008C800A02C8031B42084314F302000D20052084F
:1008D800EE001630B63E860087010030F900003081
:1008E800F8000030F7001930F6003230F20000301E
:1008F800F3006E08D200D3015208F0005308F1004B
:100908008731E127843170082000D4007108D500B0
:10091800D601D7015708FD005608FC005508FB0012
:100928005408FA008E31EF268431403F76072000C4
:10093800DC00413F773DDD000030F9000030F80071
:100948000030F7001930F6005A30F2000030F3009A
:100958006E08D200D3015208F0005308F100873125
:10096800E127843170082000D4007108D500D60131
:10097800D7015708FD005608FC005508FB0054082D
:10098800FA008E31EF26843177082000D9007608E6
:10099800D8000030F9000030F8000030F7001930B6
:1009A800F6000A30F2000030F3006E08D200D301DE
:1009B8005208F0005308F1008731E12784317008AC
:1009C8002000D4007108D500D601D7015708FD00D2
:1009D8005608FC005508FB005408FA008E31EF2633
:1009E800843177082000DB007608DA005D08E4002F
:1009F8005C08E300DD1F012D022D072D5B08E400D4
:100A08005A08E300252DDD1B0A2D0B2D252D5B082B
:100A18005D02031D112D5A085C020318142D152DB3
:100A2800162D022D5D085902031D1C2D5C08580265
:100A380003181F2D202D252D5908E4005808E30020
:100A4800252D08002100D400BF2D87309905991362
:100A58000030AB000030AA007930A9001830A80097
:100A6800EA2D190887392038990099130030AB000E
:100A78000030AA00F430A9002430A800EA2D190893
:100A880087392838990099130030AB000130AA0043
:100A9800E830A9004830A800EA2D1908873930380D
:100AA800990099130030AB000330AA00D030A90098
:100AB8009030A800EA2D1908873938389900991319
:100AC8000030AB000730AA00A130A9002030A800F0
:100AD800EA2D190887395838990099130030AB0066
:100AE8000F30AA004230A9004030A800EA2D1908AA
:100AF80087396038990099130030AB001E30AA007E
:100B08008430A9008030A800EA2D19088739683890
:100B1800990099130030AB003D30AA000930A900B4
:100B28000030A800EA2D1908873970389900991300
:100B38000030AB007A30AA001230A9000030A800BB
:100B4800EA2D7830990499130030AB00F430AA00EC
:100B58002430A9000030A800EA2D19088739703818
:100B6800990099170130AB00E830AA004830A90075
:100B78000030A800EA2D5408D200D3015308003AE7
:100B88000319C72DEA2D5208003A0319292D013AF5
:100B98000319352D033A0319432D013A0319512D31
:100BA800073A03195F2D013A03196D2D033A03190A
:100BB8007B2D013A0319892D0F3A0319972D013A14
:100BC8000319A52D033A0319B12DEA2D08002100B8
:100BD800D600D50108305602031CF32DF42DFC2D48
:100BE8005608F83ED3005308D700D501D50A012E80
:100BF8005608D3005308D700D5015508031D052E04
:100C0800062E312E520803190A2E0B2E242E0130DF
:100C1800D300570A102ED335890B0F2E5308D40052
:100C280054088C040130D300570A1B2ED335890B86
:100C38001A2E5308FF3AD400540823008C05602E5E
:100C48000130D300570A292ED335890B282E530893
:100C5800FF3AD40054088C05602E5503031D352E29
:100C6800362E602E520803193A2E3B2E542E013090
:100C7800D300570A402ED335890B3F2E5308D40092
:100C880054088D040130D300570A4B2ED335890BF5
:100C98004A2E5308FF3AD400540823008D05602ECD
:100CA8000130D300570A592ED335890B582E5308D3
:100CB800FF3AD40054088D0508002100D700D6015A
:100CC800D501D4010430570203186B2E6C2E732EF5
:100CD8005708D2005208D600D501D401D40A0930E9
:100CE8005702031C782E792E882E103057020318CD
:100CF8007E2E7F2E882E5708F83ED2005208D60046
:100D0800D501D50AD401D40A540803198C2E8D2E86
:100D1800C62E5508031D912E922EAA2E0130D20000
:100D2800560A972ED235890B962E5208D3005308AF
:100D38008C040130D200560AA22ED235890BA12E7E
:100D48005208D300530823008C04C62E5503031DF4
:100D5800AE2EAF2EC62E0130D200560AB42ED23592
:100D6800890BB32E5208D30053088D040130D200EA
:100D7800560ABF2ED235890BBE2E5208D30053080F
:100D880023008D0408002100D600D5010830560242
:100D9800031CCF2ED02ED82E5608F83ED300530869
:100DA800D700D501D50ADD2E5608D3005308D70041
:100DB800D5015508031DE12EE22E022F5208031912
:100DC800E62EE72EF42E0130D300570AEC2ED33549
:100DD800890BEB2E5308D400540822008C04262FCC
:100DE8000130D300570AF92ED335890BF82E530852
:100DF800FF3AD400540822008C05262F5503031D02
:100E0800062F072F262F520803190B2F0C2F192FE7
:100E18000130D300570A112FD335890B102F5308EF
:100E2800D400540822008D04262F0130D300570A1D
:100E38001E2FD335890B1D2F5308FF3AD4005408B1
:100E480022008D050800F400F30108307402031C29
:100E58002E2F2F2F372F7408F83EF1007108F50058
:100E6800F301F30A3C2F7408F1007108F500F3014F
:100E78007308031D402F412F612F70080319452F58
:100E8800462F532F0130F100750A4B2FF135890B8E
:100E98004A2F7108F200720822008C04852F013055
:100EA800F100750A582FF135890B572F7108FF3A51
:100EB800F200720822008C05852F7303031D652F2D
:100EC800662F852F700803196A2F6B2F782F013032
:100ED800F100750A702FF135890B6F2F7108F20038
:100EE800720822008D04852F0130F100750A7D2FCC
:100EF800F135890B7C2F7108FF3AF2007208220045
:100F08008D0508002000A9012935C23E8600013060
:100F180087002935C03E840001308500403F803F6E
:100F2800413F813F0130A0002008A9070F30290266
:100F3800031C9F2FA02F882F04308E3195268731D0
:100F480071082300DF007008DE0000302000A700D1
:100F58000030A6000030A5000030A400A801283504
:100F6800C03E860001308700403FA000413FA100FD
:100F78002008A4072108A53D0030A63DA73D013063
:100F8800A0002008A80710302802031CCC2FCD2F62
:100F9800B32F2408A0002508A1002608A2002708CE
:100FA800A3000430A336A20CA10CA00C890BD62FE9
:100FB8002108FB002008FA000800F401F501701C64
:100FC800E62FE72FEB2F7208F4077308F53D013081
:100FD800F235F30D890BEC2F0130F136F00C890B4B
:100FE800F12F70087104031DFA2FFB2FE32F7508EA
:100FF800F1007408F00008002834283449344E34CD
:10100800543443344F344E3429342634303437344E
:0C1018004634683429342C34323400345F
:1016EC002000EC0108002000EC01EC0A080001309D
:1016FC0021009D0090309E000800640080010131A3
:10170C00890B842B003403302100D20052082000B6
:10171C00EC00080002302100D20052082000EC003E
:10172C0008008B178B16210095129511053095002A
:10173C0008002000E301E401EE010430F000700821
:10174C00EC0008000930863161268B310A30863175
:10175C0061268B310800F0010B30873127278B3144
:10176C00F001F00A0B30873127278B31080021005C
:10177C00D2010B308631C7268B312100D201D20A1F
:10178C000B308631C7268B3108007108803AF20085
:10179C0080307202031DD42B013070020318D72B3A
:1017AC00D82BE42B7009F2007109F300F20A03192B
:1017BC00F30A7208F0007308F100E42B08000C30F7
:1017CC002500930020009B012500910122001D158E
:1017DC00250096151610FC3020009C052100911058
:1017EC0020001C150B1721001115D2010630853174
:1017FC00EB258B3108002100D201D20A043085314F
:10180C00EB258C310430863161268C31003021007F
:10181C00A7000030A6000030A5000130A400003065
:10182C00A3000030A2000030A1000030A00008008E
:10183C002100D201D20A03308531EB258C312100F5
:10184C00D201D20A01308531EB258C310030863142
:10185C0061268C310230863161268C312100D20117
:10186C000B308531EB258C318B31BD238C3108004D
:10187C008C318D248C31013A031D452C462C592C6E
:10188C000130FB007B082000E90703306906031DCB
:10189C00502C512C552C8B319F238C31612C8B313E
:1018AC00B1238C31612C2000690803195E2C5F2C4C
:1018BC00612C0130E9020800720820009B007108BD
:1018CC00F4007008F300F436F30CF436F30C7308E0
:1018DC002500910070080139F300F30E130873060C
:1018EC00EF397306930002307005F3000030710578
:1018FC00F400003074020230031973020318872CB1
:10190C008A2C250093168C2C25009312080001308C
:10191C008D3160258C31013A031D952C972C0130AB
:10192C00982C0030F90079082000EB0003308D3141
:10193C0060258C31013A031DA42CA62C0130A72C58
:10194C000030F90079082000EA00FA01FA0A6A0866
:10195C00031DB12CB22CB82C6B08031DB62CB72C64
:10196C00B82CFA017A0808000030FB000030FA00AD
:10197C000030F9000030F800701CC52CC62CCE2CA1
:10198C007408F8077508F93D7608FA3D7708FB3DB1
:10199C000130F435F50DF60DF70D890BCF2C013018
:1019AC00F336F20CF10CF00C890BD62C7308720484
:1019BC0071047004031DE32CE42CC22C7B08F3008F
:1019CC007A08F2007908F1007808F00008008B31F1
:1019DC0076238C310A30853126258C318B31E523E9
:1019EC008C318B3197238C318B317D238C318C3125
:1019FC001E248C318B31A8238C318C3101248C31F9
:101A0C002100D2010C308531EB258C312100D20123
:101A1C000D308531EB258C3108308D31A7258C317B
:101A2C00013A03191A2D1B2D1F2D8B3190238C314C
:101A3C00222D8B3179238C31222D803186287D0803
:101A4C002000AA007C08A9002908F0002A08F1004F
:101A5C00890D893B8909F200F3000030F700003052
:101A6C00F6001730F500D430F4008C31BA248D31E7
:101A7C0073082000A8007208A7007108A60070085F
:101A8C00A5002508A0002608A1002708A200280808
:101A9C00A3000830A400A337A20CA10CA00CA40B2B
:101AAC00512D2108AC002008AB002C08FD002B08A0
:101ABC00FC000800F800F70108307802031C672DC1
:101ACC00682D702D7808F83EF0007008F600F701CC
:101ADC00F70A752D7808F0007008F600F701770802
:101AEC00031D792D7A2D8D2D20000C08F000700827
:101AFC00F2007208F000760A842DF036890B832DE3
:101B0C0070080139F1007108F3007308A62D7703F2
:101B1C00031D912D922DA52D20000D08F0007008AD
:101B2C00F4007408F000760A9C2DF036890B9B2D7E
:101B3C0070080139F1007108F5007508A62D003008
:101B4C0008002100DA00D90108305A02031CAF2D1D
:101B5C00B02DB82D5A08F83ED2005208D800D90141
:101B6C00D90ABD2D5A08D2005208D800D9015908FB
:101B7C00031DC12DC22DD62D20000C082100D20032
:101B8C005208D4005408D200580ACD2DD236890BF5
:101B9C00CC2D52080139D3005308D5005508F02D2F
:101BAC005903031DDA2DDB2DEF2D20000D0821002C
:101BBC00D2005208D6005608D200580AE62DD2366A
:101BCC00890BE52D52080139D3005308D70057086B
:101BDC00F02D00300800713086000030870008308E
:101BEC00F00000301E00F00BF82D2000201CFF2D03
:101BFC00002E102E2808F1072908F23D2A08F33D83
:101C0C002B08F43D2C08F53D2D08F63D2E08F73D2C
:101C1C002F08F83DA835A90DAA0DAB0DAC0DAD0DD7
:101C2C00AE0DAF0DA736A60CA50CA40CA30CA20CE4
:101C3C00A10CA00C20082104220423042404250454
:101C4C0026042704031D2B2E2C2EFB2D7108A0001F
:101C5C007208A1007308A2007408A3007508A40000
:101C6C007608A5007708A6007808A7000800FB01F5
:101C7C007B35223E8600013087007B35203E840078
:101C8C0001308500403F803F413F813F0130F200F1
:101C9C007208FB070F307B02031C552E562E3E2E6E
:101CAC00200062082200BF00200061082200BE0054
:101CBC000030F9000030F8000030F7000030F6007A
:101CCC00FA017A35203E860001308700403FF20051
:101CDC00413FF3007208F6077308F73D0030F83DFA
:101CEC00F93D0130F2007208FA0710307A02031C39
:101CFC00802E812E672E7608F2007708F300780884
:101D0C00F4007908F5000430F536F40CF30CF20C01
:101D1C00890B8A2E7308F1007208F0000800F90094
:101D2C00F601F7010530790203189D2E9E2EA42E84
:101D3C007908F2007208F600F701F70A0930790207
:101D4C00031CA92EAA2EB72E103079020318AF2E21
:101D5C00B02EB72E7908143CF2007208F600F70189
:101D6C00F70A77080319BB2EBC2EEC2E21001D0898
:101D7C008330F20072089D057608F2000130F235CE
:101D8C00FF3E031DC52E7235F30073089D04F80148
:101D9C000130F2007208F80710307802031CD72EBD
:101DAC00D82ECE2E21009D149D18DD2EDE2EDA2E7F
:101DBC001C08F5001B08F4008330F20072089D0526
:101DCC009D157508F1007408F000EE2EF001F1017C
:101DDC00080000302000A4000030A3000030A20056
:101DEC000030A10079087804770476040319FF2EDB
:101DFC00002F412FA501A50A0E2F0130F635F70D46
:101E0C00F80DF90D890B042F0130A0002008A5074F
:101E1C00F91F112F122F032F0130A135A20DA30D85
:101E2C00A40D890B132F79087D02031D272F780829
:101E3C007C02031D272F77087B02031D272F7608B2
:101E4C007A02031C2A2F2B2F342F7608FA027708DC
:101E5C00FB3B7808FC3B7908FD3B21140130F9363B
:101E6C00F80CF70CF60C890B352F0130A502031D6D
:101E7C00402F412F122F2408F9002308F8002208C4
:101E8C00F7002108F60008002000A9012935223EA0
:101E9C008600023087002935203E84000230850000
:101EAC00403F803F413F813F0130A0002008A907FF
:101EBC000F302902031C632F642F4C2F09308E31F5
:101ECC0095268F3171082400BF007008BE000030C9
:101EDC002000A7000030A6000030A5000030A400B0
:101EEC00A8012835203E860002308700403FA00024
:101EFC00413FA1002008A4072108A53D0030A63DC4
:101F0C00A73D0130A0002008A80710302802031CB0
:101F1C00902F912F772F2408A0002508A1002608C8
:101F2C00A2002708A3000430A336A20CA10CA00C1D
:101F3C00890B9A2F2108FB002008FA0008002000CA
:101F4C00A9012935A23E8600013087002935A03E23
:101F5C00840001308500403F803F413F813F01308C
:101F6C00A0002008A9070F302902031CBE2FBF2F89
:101F7C00A72F0A308E3195268F3171082300BF00B0
:101F8C007008BE0000302000A7000030A600003012
:101F9C00A5000030A400A8012835A03E8600013021
:101FAC008700403FA000413FA1002008A407210862
:101FBC00A53D0030A63DA73D0130A0002008A80794
:101FCC0010302802031CEB2FEC2FD22F2408A0007A
:101FDC002508A1002608A2002708A3000430A33678
:101FEC00A20CA10CA00C890BF52F2108FB002008DA
:041FFC00FA000800DF
:020000040001F9
:08000000FF3FFF3FFF3FFF3F00
:04000E00A40FFF1C20
:00000001FF
