:04000000803185289E
:100008007E1480318631A9268031013A031D0D28DE
:100018000E281A2801302000B2003208D100003022
:10002800F000F100F2018631D62680312000530815
:10003800031D1F2820282528F0010C3084311124A5
:10004800803120005303031D2A282B286F2885316F
:10005800DC25803171082000C8007008C700843191
:10006800CB2480317C082000C6007B08C5005208DC
:10007800031D3F2840284F28F001F00A0C30843136
:10008800112480312000510303194B284C284F2894
:100098008031AB20803120005203031D542855289D
:1000A80065288531812580317C082000C2007B08C5
:1000B800C1008531262580317C082000C4007B08DA
:1000C800C3005203031D69286B2801306C280030D7
:1000D800B2003208D2005303031D7328752801307B
:1000E80076280030B2003208D3000B118731A927D7
:1000F800803171082000CC007008CB0011117E10EF
:100108000900803187283D308400003085001C308C
:100118008731C6278031A030840000308500403008
:100128008731C62780312030840001308500403077
:100138008731C6278031A030840001308500203007
:100148008731C62780317E10200087315D2F01302E
:100158002000A6002608D40720305406031DB52821
:10016800B6288D294308D33EF000FF30443DF10006
:10017800F201F3010030F7000030F6000030F5001E
:100188009030F40086317626803170082000A60071
:100198007108A7007208A8007308A9000A30A936D8
:1001A800A80CA70CA60C890BD32826080F3EAA007A
:1001B8002A08D8004108D33EF000FF30423DF10044
:1001C800F201F3015808A600A701A801A90129080E
:1001D800F7002808F6002708F5002608F4008631FD
:1001E8007626803170082000AA007108AB007208DA
:1001F800AC007308AD000830AD36AC0CAB0CAA0CE3
:10020800890B00292B08D0002A08CF000030F900FC
:100218000030F8000030F7001930F6005A30F200CC
:100228000030F3005808A600A7012608F0002708A8
:10023800F10087312127803170082000A80071085B
:10024800A900AA01AB012B08FD002A08FC00290817
:10025800FB002808FA0084317024803177082000D8
:10026800AF007608AE000030F9000030F80000302A
:10027800F7001930F6000A30F2000030F300580891
:10028800A600A7012608F0002708F10087312127DA
:10029800803170082000A8007108A900AA01AB01EC
:1002A8002B08FD002A08FC002908FB002808FA0092
:1002B80084317024803177082000B1007608B000BE
:1002C80050082F02031D6A294F082E0203186D29B2
:1002D8006E2972292F08D0002E08CF00310850024D
:1002E800031D782930084F0203187B297C298029AF
:1002F8003108D0003008CF005008F1004F08F00056
:100308005808A6002608F2008631D626803120003B
:10031800D40108002000B5003D2A87302100990546
:10032800991300302000C0000030BF007930BE00B3
:100338001830BD00682A210019088739203899002B
:10034800991300302000C0000030BF00F430BE0018
:100358002430BD00682A21001908873928389900F7
:10036800991300302000C0000130BF00E830BE0003
:100378004830BD00682A21001908873930389900AB
:10038800991300302000C0000330BF00D030BE00F9
:100398009030BD00682A210019088739383899003B
:1003A800991300302000C0000730BF00A130BE0004
:1003B8002030BD00682A210019088739583899006B
:1003C800991300302000C0000F30BF004230BE003B
:1003D8004030BD00682A2100190887396038990023
:1003E800991300302000C0001E30BF008430BE00CA
:1003F8008030BD00682A21001908873968389900BB
:10040800991300302000C0003D30BF000930BE0005
:100418000030BD00682A2100190887397038990012
:10042800991300302000C0007A30BF001230BE009F
:100438000030BD00682A78302100990499130030F3
:100448002000C000F430BF002430BE000030BD00E2
:10045800682A2100190887397038990099170130DE
:100468002000C000E830BF004830BE000030BD00AA
:10047800682A3508B300B4013408003A0319452A3C
:10048800682A3308003A03199129013A03199F2968
:10049800033A0319AF29013A0319BF29073A031987
:1004A800CF29013A0319DF29033A0319EF29013A41
:1004B8000319FF290F3A03190F2A013A03191F2AB2
:1004C800033A03192D2A682A08002000B700B6014C
:1004D80008303702031C712A722A7A2A3708F83E34
:1004E800B4003408B800B601B60A7F2A3708B40049
:1004F8003408B800B6013608031D832A842AB22AB4
:1005080033080319882A892AA42A0130B400380A32
:100518008E2AB435890B8D2A3408B5003508210098
:100528008C0401302000B400380A9B2AB435890BAA
:100538009A2A3408FF3AB500350823008C05E42AC6
:100548000130B400380AA92AB435890BA82A34081E
:10055800FF3AB500350821008C05E42A3603031D4F
:10056800B62AB72AE42A33080319BB2ABC2AD72A91
:100578000130B400380AC12AB435890BC02A3408BE
:10058800B500350821008D0401302000B400380A78
:10059800CE2AB435890BCD2A3408FF3AB500350880
:1005A80023008D05E42A0130B400380ADC2AB4356A
:1005B800890BDB2A3408FF3AB500350821008D0580
:1005C80008002000B800B701B601B50104303802B0
:1005D8000318EF2AF02AF72A3808B3003308B700BF
:1005E800B601B501B50A09303802031CFC2AFD2AF8
:1005F8000C2B103038020318022B032B0C2B380855
:10060800F83EB3003308B700B601B60AB501B50A1B
:1006180035080319102B112B4E2B3608031D152BEB
:10062800162B302B0130B300370A1B2BB335890B3F
:100638001A2B3308B400340821008C040130200040
:10064800B300370A282BB335890B272B3308B4009E
:10065800340823008C044E2B3603031D342B352B12
:100668004E2B0130B300370A3A2BB335890B392B9F
:100678003308B400340821008D0401302000B30091
:10068800370A472BB335890B462B3308B400340897
:1006980023008D040800FA00F601F70104307A02FD
:1006A8000318572B582B5E2B7A08F2007208F600B5
:1006B800F701F70A09307A02031C632B642B712BAC
:1006C80010307A020318692B6A2B712B7A08143CB4
:1006D800F2007208F600F701F70A77080319752B7C
:1006E800762BB02B21001D088330F20072089D057F
:1006F8007608F2000130F235FF3E031D7F2B72357C
:10070800F30073089D04F8010130F2007208F8073D
:1007180008307802031C912B922B882B21009D1402
:100728009D18972B982B942B1C08F5001B08F40098
:100738008330F20072089D059D15F9010130F20021
:100748007208F90708307902031CAB2BAC2BA22BDB
:100758007508F1007408F00008002000B700B60121
:1007680008303702031CB92BBA2BC22B3708F83EC6
:10077800B4003408B800B601B60AC72B3708B4006D
:100788003408B800B6013608031DCB2BCC2BEC2B54
:1007980033080319D02BD12BDE2B0130B400380AD3
:1007A800D62BB435890BD52B3408B5003508220073
:1007B8008C04102C0130B400380AE32BB435890BB3
:1007C800E22B3408FF3AB500350822008C05102CBE
:1007D8003603031DF02BF12B102C33080319F52BCE
:1007E800F62B032C0130B400380AFB2BB435890BE7
:1007F800FA2B3408B500350822008D04102C01307E
:10080800B400380A082CB435890B072C3408FF3A91
:10081800B500350822008D050800F400F301083002
:100828007402031C182C192C212C7408F83EF100B2
:100838007108F500F301F30A262C7408F100710819
:10084800F500F3017308031D2A2C2B2C4B2C700880
:1008580003192F2C302C3D2C0130F100750A352C52
:10086800F135890B342C7108F200720822008C04CF
:100878006F2C0130F100750A422CF135890B412C9F
:100888007108FF3AF200720822008C056F2C73037E
:10089800031D4F2C502C6F2C70080319542C552C09
:1008A800622C0130F100750A5A2CF135890B592C4C
:1008B8007108F200720822008D046F2C0130F100DB
:1008C800750A672CF135890B662C7108FF3AF2001E
:1008D800720822008D05080000302000A4000030B6
:1008E800A3000030A2000030A10079087804770442
:1008F80076040319802C812CC22CA501A50A8F2C03
:100908000130F635F70DF80DF90D890B852C0130FE
:10091800A0002008A507F91F922C932C842C0130E5
:10092800A135A20DA30DA40D890B942C79087D0285
:10093800031DA82C78087C02031DA82C77087B02CD
:10094800031DA82C76087A02031CAB2CAC2CB52C02
:100958007608FA027708FB3B7808FC3B7908FD3BF0
:1009680021140130F936F80CF70CF60C890BB62C6B
:100978000130A502031DC12CC22C932C2408F900B8
:100988002308F8002208F7002108F60008002000D4
:10099800A9012935423E8600013087002935403EAD
:1009A800840001308500403F803F413F813F013056
:1009B800A0002008A9070F302902031CE42CE52C0D
:1009C800CD2C043083314F23843171082200DF009D
:1009D8007008DE0000302000A7000030A6000030BC
:1009E800A5000030A400A8012835403E860001304B
:1009F8008700403FA000413FA1002008A40721082C
:100A0800A53D0030A63DA73D0130A0002008A8075D
:100A180010302802031C112D122DF82C2408A000D8
:100A28002508A1002608A2002708A3000430A33641
:100A3800A20CA10CA00C890B1B2D2108FC0020087E
:100A4800FB0008002000A9012935223E860001305C
:100A580087002935203E840001308500403F803FD3
:100A6800413F813F0130A0002008A9070F3029022B
:100A7800031C3F2D402D282D0A3083314F2385310B
:100A880071082200BF007008BE0000302000A700D7
:100A98000030A6000030A5000030A400A8012835C9
:100AA800203E860001308700403FA000413FA10062
:100AB8002008A4072108A53D0030A63DA73D013028
:100AC800A0002008A80710302802031C6C2D6D2DEB
:100AD800532D2408A0002508A1002608A2002708F5
:100AE800A3000430A336A20CA10CA00C890B762D10
:100AF8002108FC002008FB0008002000A901293576
:100B0800A23E8600013087002935A03E84000130CE
:100B18008500403F803F413F813F0130A0002008D1
:100B2800A9070F302902031C9A2D9B2D832D09300C
:100B380083314F23853171082300BF007008BE0040
:100B480000302000A7000030A6000030A5000030CB
:100B5800A400A8012835A03E860001308700403F48
:100B6800A000413FA1002008A4072108A53D0030AE
:100B7800A63DA73D0130A0002008A8071030280294
:100B8800031CC72DC82DAE2D2408A0002508A100E0
:100B98002608A2002708A3000430A336A20CA10C43
:100BA800A00C890BD12D2108FC002008FB000800AF
:100BB800FB017B35A23E860087017B35A03E840081
:100BC8008501403F803F413F813F0130F20072087C
:100BD800FB070F307B02031CF22DF32DDD2D2000C7
:100BE8004C082100BF0020004B082100BE00003047
:100BF800F9000030F8000030F7000030F600FA0184
:100C08007A35A03E86008701403FF200413FF3005D
:100C18007208F6077308F73D0030F83DF93D0130DA
:100C2800F2007208FA0710307A02031C1C2E1D2EDF
:100C3800042E7608F2007708F3007808F4007908A3
:100C4800F5000430F536F40CF30CF20C890B262E63
:100C58007308F1007208F0000800F800F701083086
:100C68007802031C382E392E412E7808F83EF00001
:100C78007008F600F701F70A462E7808F0007008A9
:100C8800F600F7017708031D4A2E4B2E5E2E200032
:100C98000C08F0007008F2007208F000760A552E71
:100CA800F036890B542E70080139F1007108F300F1
:100CB8007308752E7703031D622E632E752E200090
:100CC8000D08F0007008F4007408F000760A6D2E24
:100CD800F036890B6C2E70080139F1007108F500A7
:100CE800750808000030FB000030FA000030F900F9
:100CF8000030F800701C812E822E8A2E7408F807A6
:100D08007508F93D7608FA3D7708FB3D0130F43562
:100D1800F50DF60DF70D890B8B2E0130F336F20C1D
:100D2800F10CF00C890B922E730872047104700494
:100D3800031D9F2EA02E7E2E7B08F3007A08F2005A
:100D48007908F1007808F000080001308631312672
:100D58008631013A031DB12EB32E0130B42E003076
:100D6800F90079082000D600033086313126863113
:100D7800013A031DC02EC22E0130C32E0030F900E7
:100D880079082000D500FA01FA0A5508031DCD2E6E
:100D9800CE2ED42E5608031DD22ED32ED42EFA01D1
:100DA8007A080800720820009B007108F400700897
:100DB800F300F436F30CF436F30C730825009100B5
:100DC80070080139F300F30E13087306EF39730640
:100DD800930002307005F30000307105F400003014
:100DE80074020230031973020318FB2EFE2E25002D
:100DF8009316002F2500931208002000B301B30AB0
:100E080003308231692287312000B301B30A0130EF
:100E180082316922873100308231E5228731023000
:100E28008231E52287312000B3010B3082316922FB
:100E3800873187319B2787310800F401F501701C41
:100E4800262F272F2B2F7208F4077308F53D013042
:100E5800F235F30D890B2C2F0130F136F00C890B8C
:100E6800312F70087104031D3A2F3B2F232F75086B
:100E7800F1007408F00008000C30250093002000F1
:100E88009B012500910122001D15250096151610BD
:100E9800FC3020009C052100911020001C150B1728
:100EA800210011152000B3010630823169228731F3
:100EB80008000A3081318E218731873140278731F8
:100EC8008731BE2787318731CC2787318731012782
:100ED80087318731B52787312000B3010C30823143
:100EE80069228731762F803185282834283449347F
:100EF8004E34543443344F344E3429342634303449
:100F080037344634683429342C34323400342834A5
:100F18002834503449345234313429342634303466
:100F280037344634683429342C34323400342000C1
:100F3800B3010B308331B12387312000B301B30AE9
:100F48000B308331B1238731080021001D089D141F
:100F58009D18AF2FB02FAC2F1C08F1001B08F00014
:100F6800080009308231E52287310A308231E522D2
:100F7800873108008B178B162100951295110430C4
:100F880095000800640080010131890BC72F0034E7
:0C0F9800013021009D0080309E00080008
:020000040001F9
:08000000FF3FFF3FFF3FFF3F00
:04000E00A40FFF1C20
:00000001FF
