:04000000803186289D
:100008007E148031F001F00A0C308631D62680311A
:100018008C319C24803120006408F1006308F000D2
:100028006E08DE005E08F2008C31C02480312000AA
:100038006708031D2028212829288331FF238031C0
:10004800F0010C308631D626803120006703031D6D
:100058002E282F287828F001F00A0D308631D62670
:1000680080318E319826803171082100B1007008E6
:10007800B0008731352780317B082000E0007A08FE
:10008800DF006608031D49284A284D2883311323B9
:10009800803120006603031D5228532863288F31BE
:1000A800A52780317B082100AD007A08AC00873194
:1000B800902780317B082100AF007A08AE0020002D
:1000C8006603031D68286A2801306B280030DE00AB
:1000D8005E08E600F0010C308631D6268031F0014A
:1000E8000D308631D626803120006703031D7D2818
:1000F8007F28013080280030DE005E08E7000B1101
:100108007E100900803188285F3084000030850027
:1001180010308B31C2238031A0308400003085003C
:1001280032308B31C2238031203084000130850089
:1001380040308B31C2238031A030840001308500EB
:1001480040308B31C223803120308400023085005A
:1001580020308B31C22380317E1020008D314B2D11
:1001680020006008FD005F08FC008D31802580318B
:100178007D082000D1007C08D00008308D31BB25D7
:100188008031003A0319C928CA28D92880302000AC
:10019800B0003E30B100500830022100B600200007
:1001A8005108313B2100B700E728E0302000B000BB
:1001B8002E30B100500830022100B600200051084E
:1001C800313B2100B70036082000A0002100370885
:1001D8002000A100890D893B8909A200A300A40081
:1001E800A500A600A7000030AF000030AE00003028
:1001F800AD000030AC000030AB000030AA00253064
:10020800A9008C30A8008E314C26803120002008AF
:10021800C0002108C1002208C2002308C300240826
:10022800C4002508C5002608C6002708C7004308DB
:100238002100BB00200042082100BA00200041082C
:100248002100B900200040082100B8000E30B63E59
:1002580086008701403F2000B000413FB100423F87
:10026800B200433FB300443FB400453FB500463FAA
:10027800B600473FB700210038082000B800210029
:1002880039082000B90021003A082000BA002100EE
:100298003B082000BB000030BB1BFF30BC00BD008A
:1002A800BE00BF003808B0073908B13D3A08B23D72
:1002B8003B08B33D3C08B43D3D08B53D3E08B63D5E
:1002C8003F08B73D37082100CB0020003608210041
:1002D800CA00200035082100C90020003408210088
:1002E800C800200033082100C70020003208210080
:1002F800C600200031082100C50020003008210078
:10030800C4002708803A2000B00021004B08803A3A
:10031800200030022100031DAB294A082602031DD4
:10032800AB2949082502031DAB2948082402031DEF
:10033800AB2947082302031DAB2946082202031DE7
:10034800AB2945082102031DAB29440820020318E4
:10035800AE29AF29BF292008C4002108C5002208FA
:10036800C6002308C7002408C8002508C9002608B5
:10037800CA002708CB000E30B63E86008701473FEB
:100388002000B000B01FC929CA29672A21004508E2
:10039800F1004408F0008C310A24803170082000F4
:1003A800B0007108B1000030B11BFF30B200B300DB
:1003B800B400B500B600B70021002708803A200035
:1003C800B8003708803A38022100031D132A20009C
:1003D800360821002602031D132A200035082100B3
:1003E8002502031D132A2000340821002402031DBE
:1003F800132A2000330821002302031D132A20009A
:10040800320821002202031D132A2000310821008E
:100418002102031D132A200030082100200203189E
:10042800162A172A672A00302000B0000030B100D1
:100438000030B2000030B3000030B4000030B50026
:100448000030B6000030B700210020082000B002BC
:10045800210021082000B13B210022082000B23BE6
:10046800210023082000B33B210024082000B43BCE
:10047800210025082000B53B210026082000B63BB6
:10048800210027082000B73B37082100CB002000B7
:1004980036082100CA00200035082100C9002000C4
:1004A80034082100C800200033082100C7002000BC
:1004B80032082100C600200031082100C5002000B4
:1004C80030082100C4000E30B63E86008701403F48
:1004D8002000B000413FB100423FB200433FB300AB
:1004E800443FB400453FB500463FB600473FB7001C
:1004F8001730B8002000B737B60CB50CB40CB30CE5
:10050800B20CB10CB00CB80B7E2A200033082100C5
:10051800C300200032082100C20020003108210059
:10052800C100200030082100C00036082000B000BB
:10053800210037082000B1000030B11BFF30B200A5
:10054800B3000130B035B10DB20DB30D890BA62A39
:100558003008C8003108C9003208CA003308CB0087
:100568000030CB1BFF30CC00CD00CE00CF00483090
:10057800860000308700403FB000413FB100423F55
:10058800B200433FB300443FB400453FB500463F87
:10059800B600473FB7000930B8002000B737B60C9F
:1005A800B50CB40CB30CB20CB10CB00CB80BD12A0E
:1005B800200033082100BF00200032082100BE00BF
:1005C800200031082100BD00200030082100BC00B7
:1005D80040083C072000B000210041083D3D2000B4
:1005E800B100210042083E3D2000B200210043082E
:1005F8003F3D2000B30033082100CF00200032081F
:100608002100CE00200031082100CD002000300854
:100618002100CC003708D1003608D000080020009F
:100628006C03031D182B192BFE2B0130A60026087E
:10063800E80720306806031D222B232BFE2B210000
:100648002E08CD3EF000FF302F3DF100F201F301FE
:100658000030F7000030F6000030F500A530F40057
:100668008D311825833170082000A6007108A70075
:100678007208A8007308A9000A30A936A80CA70CAC
:10068800A60C890B412B26080F3EAA002A08EE006B
:1006980021002C08CD3EF000FF302D3DF100F20185
:1006A800F30120006E08A600A701A801A9012908E6
:1006B800F7002808F6002708F5002608F4008D3111
:1006C8001825833170082000AA007108AB00720851
:1006D800AC007308AD000830AD36AC0CAB0CAA0CFE
:1006E800890B702B2B08E4002A08E3006E08A6008B
:1006F800A701A635A70DA635A70D63082602E300B6
:100708006408273BE4000030F9000030F8000030AE
:10071800F7001930F6005A30F2000030F3006E0886
:10072800A600A7012608F0002708F1008C315D24F7
:10073800833170082000A8007108A900AA01AB0144
:100748002B08FD002A08FC002908FB002808FA00ED
:100758008F314A27833177082000AF007608AE0032
:100768000030F9000030F8000030F7001930F600CA
:100778000A30F2000030F3006E08A600A701260830
:10078800F0002708F1008C315D24833170082000C7
:10079800A8007108A900AA01AB012B08FD002A08CE
:1007A800FC002908FB002808FA008F314A2783310A
:1007B80077082000B1007608B00064082F02031DF6
:1007C800E72B63082E020318EA2BEB2BEF2B2F08DD
:1007D800E4002E08E30031086402031DF52B3008FD
:1007E80063020318F82BF92BFD2B3108E4003008BD
:1007F800E300E8010800023020006C060319052C0C
:10080800062C0C2C03306C06031D0B2C0C2CD42C42
:10081800DC01DD0102306C06031D132C142C4F2C57
:100828008031B42083314F302000D2005208EE00CE
:100838001630B63E860087010030F9000030F80017
:100848000030F7001930F6003230F2000030F300C3
:100858006E08D200D3015208F0005308F1008C3121
:100868005D24833170082000D4007108D500D601BA
:10087800D7015708FD005608FC005508FB0054082E
:10088800FA008F314A278331403F76072000DC0089
:10089800413F773DDD000030F9000030F8000030BE
:1008A800F7001930F6005A30F2000030F3006E08F5
:1008B800D200D3015208F0005308F1008C315D24B6
:1008C800833170082000D4007108D500D601D70103
:1008D8005708FD005608FC005508FB005408FA00AC
:1008E8008F314A27833177082000D9007608D8004D
:1008F8000030F9000030F8000030F7001930F60039
:100908000A30F2000030F3006E08D200D30152081A
:10091800F0005308F1008C315D2483317008200009
:10092800D4007108D500D601D7015708FD00560834
:10093800FC005508FB005408FA008F314A27833120
:1009480077082000DB007608DA005D08E4005C0820
:10095800E300DD1FB02CB12CB62C5B08E4005A086C
:10096800E300D42CDD1BB92CBA2CD42C5B085D0217
:10097800031DC02C5A085C020318C32CC42CC52CB8
:10098800B12C5D085902031DCB2C5C0858020318D2
:10099800CE2CCF2CD42C5908E4005808E300D42CD2
:1009A80008002100D4006E2D873099059913003076
:1009B800AB000030AA007930A9001830A800992DA2
:1009C800190887392038990099130030AB00003096
:1009D800AA00F430A9002430A800992D19088739F5
:1009E8002838990099130030AB000130AA00E8308C
:1009F800A9004830A800992D19088739303899007E
:100A080099130030AB000330AA00D030A900903011
:100A1800A800992D1908873938389900991300309A
:100A2800AB000730AA00A130A9002030A800992DFA
:100A3800190887395838990099130030AB000F30DE
:100A4800AA004230A9004030A800992D190887391A
:100A58006038990099130030AB001E30AA0084302A
:100A6800A9008030A800992D19088739683899009D
:100A780099130030AB003D30AA000930A9000030BE
:100A8800A800992D190887397038990099130030F2
:100A9800AB007A30AA001230A9000030A800992DC6
:100AA8007830990499130030AB00F430AA00243050
:100AB800A9000030A800992D1908873970389900C5
:100AC80099170130AB00E830AA004830A90000307F
:100AD800A800992D5408D200D3015308003A0319ED
:100AE800762D992D5208003A0319D82C013A03198A
:100AF800E42C033A0319F22C013A0319002D073AA2
:100B080003190E2D013A03191C2D033A03192A2D36
:100B1800013A0319382D0F3A0319462D013A0319E2
:100B2800542D033A0319602D992D08002100D60091
:100B3800D50108305602031CA22DA32DAB2D560853
:100B4800F83ED3005308D700D501D50AB02D560872
:100B5800D3005308D700D5015508031DB42DB52D72
:100B6800E02D52080319B92DBA2DD32D0130D30029
:100B7800570ABF2DD335890BBE2D5308D40054080E
:100B88008C040130D300570ACA2DD335890BC92DDF
:100B98005308FF3AD400540823008C050F2E013067
:100BA800D300570AD82DD335890BD72D5308FF3AD0
:100BB800D40054088C050F2E5503031DE42DE52D94
:100BC8000F2E52080319E92DEA2D032E0130D30008
:100BD800570AEF2DD335890BEE2D5308D40054084E
:100BE8008D040130D300570AFA2DD335890BF92D1E
:100BF8005308FF3AD400540823008D050F2E013006
:100C0800D300570A082ED335890B072E5308FF3A0D
:100C1800D40054088D0508002100D700D601D5015D
:100C2800D4010430570203181A2E1B2E222E5708FF
:100C3800D2005208D600D501D401D40A093057028F
:100C4800031C272E282E372E1030570203182D2E5E
:100C58002E2E372E5708F83ED2005208D600D5015E
:100C6800D50AD401D40A540803193B2E3C2E752EFC
:100C78005508031D402E412E592E0130D200560A28
:100C8800462ED235890B452E5208D30053088C04C2
:100C98000130D200560A512ED235890B502E5208F7
:100CA800D300530823008C04752E5503031D5D2EB5
:100CB8005E2E752E0130D200560A632ED235890B6E
:100CC800622E5208D30053088D040130D200560A10
:100CD8006E2ED235890B6D2E5208D300530823008F
:100CE8008D0408002100D600D50108305602031CE7
:100CF8007E2E7F2E872E5608F83ED3005308D70045
:100D0800D501D50A8C2E5608D3005308D700D50133
:100D18005508031D902E912EB12E52080319952EB9
:100D2800962EA32E0130D300570A9B2ED335890B5C
:100D38009A2E5308D400540822008C04D52E013072
:100D4800D300570AA82ED335890BA72E5308FF3A8C
:100D5800D400540822008C05D52E5503031DB52E4A
:100D6800B62ED52E52080319BA2EBB2EC82E013026
:100D7800D300570AC02ED335890BBF2E5308D40091
:100D8800540822008D04D52E0130D300570ACD2EE9
:100D9800D335890BCC2E5308FF3AD40054082200CF
:100DA8008D050800F400F30108307402031CDD2EE1
:100DB800DE2EE62E7408F83EF1007108F500F30106
:100DC800F30AEB2E7408F1007108F500F3017308BB
:100DD800031DEF2EF02E102F70080319F42EF52E98
:100DE800022F0130F100750AFA2EF135890BF92E20
:100DF8007108F200720822008C04342F0130F100CF
:100E0800750A072FF135890B062F7108FF3AF20092
:100E1800720822008C05342F7303031D142F152F1D
:100E2800342F70080319192F1A2F272F0130F100BA
:100E3800750A1F2FF135890B1E2F7108F2007208F1
:100E480022008D04342F0130F100750A2C2FF13562
:100E5800890B2B2F7108FF3AF200720822008D05CA
:100E680008002000A9012935C23E8600013087000C
:100E78002935C03E840001308500403F803F413F16
:100E8800813F0130A0002008A9070F302902031C68
:100E98004E2F4F2F372F04308E31F02687317108AF
:100EA8002300DF007008DE0000302000A7000030BB
:100EB800A6000030A5000030A400A8012835C03ED7
:100EC800860001308700403FA000413FA100200874
:100ED800A4072108A53D0030A63DA73D0130A0008C
:100EE8002008A80710302802031C7B2F7C2F622FB4
:100EF8002408A0002508A1002608A2002708A300AE
:100F08000430A336A20CA10CA00C890B852F210854
:100F1800FB002008FA0008002000A9012935A23E9C
:100F28008600013087002935A03E84000130850005
:100F3800403F803F413F813F0130A0002008A90782
:100F48000F302902031CA92FAA2F922F0A308E31A5
:100F5800F026873171082300BF007008BE000030FA
:100F68002000A7000030A6000030A5000030A40033
:100F7800A8012835A03E860001308700403FA00028
:100F8800413FA1002008A4072108A53D0030A63D47
:100F9800A73D0130A0002008A80710302802031C34
:100FA800D62FD72FBD2F2408A0002508A10026087A
:100FB800A2002708A3000430A336A20CA10CA00CA1
:100FC800890BE02F2108FB002008FA0008002834CC
:100FD800283449344E34543443344F344E3429344D
:100FE8002634303437344634683429342C34323497
:020FF8000034C3
:101770002000EC01EC0A0800013021009D009030AF
:101780009E000800640080010131890BC32B0034E6
:1017900003302100D20052082000EC000800023083
:1017A0002100D20052082000EC0008008B178B1695
:1017B0002100951295110530950008002000E301E5
:1017C000E401EE010430F0007008EC00080009307C
:1017D000863110268B310A30863110268B31080075
:1017E000F0010B308631D6268B31F001F00A0B3038
:1017F0008631D6268B3108002100D2010B3086318C
:1018000076268B312100D201D20A0B308631762622
:101810008B3108007108803AF20080307202031D9B
:10182000132C013070020318162C172C232C70096E
:10183000F2007109F300F20A0319F30A7208F000CA
:101840007308F100232C08000C30250093002000C1
:101850009B012500910122001D15250096151610EB
:10186000FC3020009C052100911020001C150B1756
:1018700021001115D201063085319A258C310800DE
:101880002100D201D20A043085319A258C310430EE
:10189000863110268C3100302100A7000030A600D0
:1018A0000030A5000130A4000030A3000030A200E9
:1018B0000030A1000030A0000800F401F501701C08
:1018C000622C632C672C7208F4077308F53D013015
:1018D000F235F30D890B682C0130F136F00C890BD1
:1018E0006D2C70087104031D762C772C5F2C750805
:1018F000F1007408F00008002100D201D20A033080
:1019000085319A258C312100D201D20A01308531EE
:101910009A258C310030863110268C310230863188
:1019200010268C312100D2010B3085319A258C3163
:101930008B31FC238C3108008C31EB248C31013A43
:10194000031DA32CA42CB72C0130FB007B08200026
:10195000E90703306906031DAE2CAF2CB32C8B3185
:10196000DE238C31BF2C8B31F0238C31BF2C200037
:1019700069080319BC2CBD2CBF2C0130E9020800FA
:10198000720820009B007108F4007008F300F43620
:10199000F30CF436F30C730825009100700801393C
:1019A000F300F30E13087306EF3973069300023049
:1019B0007005F30000307105F4000030740202304D
:1019C000031973020318E52CE82C25009316EA2C62
:1019D00025009312080001308D31BB258C31013A6E
:1019E000031DF32CF52C0130F62C0030F90079089A
:1019F0002000EB0003308D31BB258C31013A031DF3
:101A0000022D042D0130052D0030F9007908200049
:101A1000EA00FA01FA0A6A08031D0F2D102D162D8F
:101A20006B08031D142D152D162DFA017A080800D8
:101A30000030FB000030FA000030F9000030F80000
:101A4000701C232D242D2C2D7408F8077508F93DE2
:101A50007608FA3D7708FB3D0130F435F50DF60DBB
:101A6000F70D890B2D2D0130F336F20CF10CF00C33
:101A7000890B342D7308720471047004031D412D09
:101A8000422D202D7B08F3007A08F2007908F1003E
:101A90007808F00008000A308431D5248D318C316B
:101AA00024248D318B31D6238D318B31BC238D3164
:101AB0008C317C248D318B31E7238D318C31402466
:101AC0008D312100D2010C3085319A258D312100D4
:101AD000D2010D3085319A258D3108308E310226A4
:101AE0008D31013A0319752D762D7A2D8B31CF2347
:101AF0008D317D2D8B31B8238D317D2D8031862820
:101B00007D082000AA007C08A9002908F0002A0806
:101B1000F100890D893B8909F200F3000030F700DC
:101B20000030F6001730F500D430F4008D31182560
:101B30008D3173082000A8007208A7007108A60064
:101B40007008A5002508A0002608A1002708A2000B
:101B50002808A3000830A400A337A20CA10CA00CF5
:101B6000A40BAC2D2108AC002008AB002C08FD0014
:101B70002B08FC000800F800F70108307802031C6D
:101B8000C22DC32DCB2D7808F83EF0007008F6006A
:101B9000F701F70AD02D7808F0007008F600F70179
:101BA0007708031DD42DD52DE82D20000C08F0005A
:101BB0007008F2007208F000760ADF2DF036890B0B
:101BC000DE2D70080139F1007108F3007308012E51
:101BD0007703031DEC2DED2D002E20000D08F000E5
:101BE0007008F4007408F000760AF72DF036890BBF
:101BF000F62D70080139F1007108F5007508012E05
:101C0000003008002100DA00D90108305A02031C14
:101C10000A2E0B2E132E5A08F83ED2005208D80076
:101C2000D901D90A182E5A08D2005208D800D90171
:101C30005908031D1C2E1D2E312E20000C082100DA
:101C4000D2005208D4005408D200580A282ED236A6
:101C5000890B272E52080139D3005308D5005508A7
:101C60004B2E5903031D352E362E4A2E20000D080B
:101C70002100D2005208D6005608D200580A412E40
:101C8000D236890B402E52080139D3005308D700B1
:101C900057084B2E00300800713086000030870056
:101CA0000830F00000301E00F00B532E2000201CE6
:101CB0005A2E5B2E6B2E2808F1072908F23D2A08C0
:101CC000F33D2B08F43D2C08F53D2D08F63D2E087C
:101CD000F73D2F08F83DA835A90DAA0DAB0DAC0DA9
:101CE000AD0DAE0DAF0DA736A60CA50CA40CA30C24
:101CF000A20CA10CA00C200821042204230424041B
:101D0000250426042704031D862E872E562E7108CF
:101D1000A0007208A1007308A2007408A30075084F
:101D2000A4007608A5007708A6007808A700080098
:101D3000FB017B35223E8600013087007B35203E4B
:101D4000840001308500403F803F413F813F0130AA
:101D5000F2007208FB070F307B02031CB02EB12E7D
:101D6000992E200062082200BF0020006108220096
:101D7000BE000030F9000030F8000030F7000030FD
:101D8000F600FA017A35203E860001308700403F98
:101D9000F200413FF3007208F6077308F73D003088
:101DA000F83DF93D0130F2007208FA0710307A026E
:101DB000031CDB2EDC2EC22E7608F2007708F3001F
:101DC0007808F4007908F5000430F536F40CF30CCB
:101DD000F20C890BE52E7308F1007208F000080080
:101DE000F900F601F701053079020318F82EF92EF3
:101DF000FF2E7908F2007208F600F701F70A0930A1
:101E00007902031C042F052F122F103079020318BA
:101E10000A2F0B2F122F7908143CF2007208F600DB
:101E2000F701F70A77080319162F172F472F2100FC
:101E30001D088330F20072089D057608F20001301B
:101E4000F235FF3E031D202F7235F30073089D0409
:101E5000F8010130F2007208F80710307802031C14
:101E6000322F332F292F21009D149D18382F392F01
:101E7000352F1C08F5001B08F4008330F2007208AF
:101E80009D059D157508F1007408F000492FF001BB
:101E9000F101080000302000A4000030A300003051
:101EA000A2000030A10079087804770476040319B1
:101EB0005A2F5B2F9C2FA501A50A692F0130F635FB
:101EC000F70DF80DF90D890B5F2F0130A0002008E8
:101ED000A507F91F6C2F6D2F5E2F0130A135A20DC4
:101EE000A30DA40D890B6E2F79087D02031D822F8F
:101EF00078087C02031D822F77087B02031D822F46
:101F000076087A02031C852F862F8F2F7608FA0217
:101F10007708FB3B7808FC3B7908FD3B2114013036
:101F2000F936F80CF70CF60C890B902F0130A5024E
:101F3000031D9B2F9C2F6D2F2408F9002308F80008
:101F40002208F7002108F60008002000A901293521
:101F5000223E8600023087002935203E8400023070
:101F60008500403F803F413F813F0130A000200875
:101F7000A9070F302902031CBE2FBF2FA72F09303E
:101F80008E31F0268F3171082400BF007008BE002A
:101F900000302000A7000030A6000030A50000306F
:101FA000A400A8012835203E860002308700403F6B
:101FB000A000413FA1002008A4072108A53D003052
:101FC000A63DA73D0130A0002008A8071030280238
:101FD000031CEB2FEC2FD22F2408A0002508A10012
:101FE0002608A2002708A3000430A336A20CA10CE7
:101FF000A00C890BF52F2108FB002008FA0008002F
:020000040001F9
:08000000FF3FFF3FFF3FFF3F00
:04000E00A40FFF1C20
:00000001FF
