:0400000080319D2886
:100008007E1480318D3146258031013A031D0D283B
:100018000E28212801302000DC005C08EC070330A2
:100028006C06031D182819281D288C314824803196
:1000380029288C3166248031292820006C0803196E
:100048002628272829280130EC0220006608F1001C
:100058006508F0006F08DC005C08F2008D311B2594
:10006800803120006808031D3A283B284328F00106
:100078000C308631ED2680318231AF22803120006C
:100088006803031D4828492887288731A727803116
:1000980071082000E2007008E10087314C278031A8
:1000A8007C082000E0007B08DF006708031D5D284E
:1000B8005E286728F001F00A0C308631ED26803181
:1000C8008331A923803120006703031D6C286D2824
:1000D8007D288F314A2780317C082100C1007B08A8
:1000E800C0008F31A52780317C082000DE007B0806
:1000F800DD006703031D8128832801308428003030
:10010800DC005C08E7006803031D8B288D2801309C
:100118008E280030DC005C08E8000B118C315A2472
:10012800803171082000E4007008E30011117E108E
:10013800090080319F285D3084000030850013302D
:100148008C3123248031A030840000308500423077
:100158008C312324803120308400013085004030E8
:100168008C3123248031A030840001308500403058
:100178008C312324803120308400023085002030E7
:100188008C31232480317E1020008D31732D200086
:100198006008FD005F08FC008D31D52580317D08A1
:1001A8002000D1007C08D00008308E311226803122
:1001B800003A0319E028E128F02880302000B00038
:1001C8003E30B100500830022100C600200051081E
:1001D800313B2100C700FE2810302000B000273036
:1001E800B100500830022100C60020005108313B00
:1001F8002100C70046082000A00021004708200071
:10020800A100890D893B8909A200A300A400A500CB
:10021800A600A7000030AF000030AE000030AD00EF
:100228000030AC000030AB000030AA000230A9005A
:100238009E30A8008E31A326803120002008C000FF
:100248002108C1002208C2002308C3002408C400F2
:100258002508C5002608C6002708C700430821004E
:10026800CB00200042082100CA00200041082100DC
:10027800C900200040082100C8000E30C63E860094
:100288008701403F2000B000413FB100423FB2002B
:10029800433FB300443FB400453FB500463FB60076
:1002A800473FB700210048082000B800210049084E
:1002B8002000B90021004A082000BA0021004B089C
:1002C8002000BB000030BB1BFF30BC00BD00BE00DF
:1002D800BF003808B0073908B13D3A08B23D3B08BD
:1002E800B33D3C08B43D3D08B53D3E08B63D3F082A
:1002F800B73D37082100DB00200036082100DA006E
:10030800200035082100D900200034082100D80039
:10031800200033082100D700200032082100D60031
:10032800200031082100D500200030082100D40029
:10033800DB1BB5295B08031DB6295A08031DB6291E
:100348005908031DB6295808031DB629013054025F
:100358000030553B0030563B4030573B031CB52915
:10036800B629C72900302100DB000030DA00003050
:10037800D9000030D8004030D7000030D600003017
:10038800D5000030D4000E30C63E86008701473FB6
:100398002000B000B01FD129D229012A2100550818
:1003A800F1005408F0008C31A62480317008200038
:1003B800B0007108B1000030B11BFF30B200B300CB
:1003C800013030020030313B0030323B4030333BAB
:1003D800031CEF29F029012A00302100DB0000303E
:1003E800DA000030D9000030D800C030D700003023
:1003F800D6000030D5000030D4000E30C63E86004E
:100408008701403F2000B000413FB100423FB200A9
:10041800433FB300443FB400453FB500463FB600F4
:10042800473FB7001430B8002000B737B60CB50CFA
:10043800B40CB30CB20CB10CB00CB80B182A2000D9
:1004480033082100D300200032082100D200200008
:1004580031082100D100200030082100D0004608D2
:10046800F0004708F100890D893B8909F200F30083
:100478000030F7000030F6000030F5001230F400CC
:100488008D31A225803170082000C8007108C9008C
:100498007208CA007308CB000030CB1BFF30CC00B9
:1004A800CD00CE00CF004830860000308700403FA6
:1004B800B000413FB100423FB200433FB300443F68
:1004C800B400453FB500463FB600473FB7000A3085
:1004D800B8002000B737B60CB50CB40CB30CB20C8E
:1004E800B10CB00CB80B6D2A200033082100CF00E6
:1004F800200032082100CE00200031082100CD0064
:10050800200030082100CC0050084C072000B00023
:10051800210051084D3D2000B100210052084E3DF8
:100528002000B200210053084F3D2000B3003308DB
:100538002100DF00200032082100DE002000310801
:100548002100DD00200030082100DC004708E10020
:100558004608E0000800023020006D06031DB52A99
:10056800B62AF12A8031CB2082314F302000D200C8
:100578005208EF001630C63E860087010030F900A9
:100588000030F8000030F7001930F6003230F20081
:100598000030F3006F08D200D3015208F00053086E
:1005A800F1008C31DC24823170082000D4007108FD
:1005B800D500D601D7015708FD005608FC0055089C
:1005C800FB005408FA008E31EF268231403F76074F
:1005D8002000E500413F773DE60003306D06031D2E
:1005E800F62AF72A322B8C313F2482314F302000F3
:1005F800D2005208EF001630A03E86008701003076
:10060800F9000030F8000030F7001930F6003230F9
:10061800F2000030F3006F08D200D3015208F00056
:100628005308F1008C31DC24823170082000D4009A
:100638007108D500D601D7015708FD005608FC00FF
:100648005508FB005408FA008E31EF268231403FEE
:1006580076072000E500413F773DE6000030F900CD
:100668000030F8000030F7001930F6005A30F20078
:100678000030F3006F08D200D3015208F00053088D
:10068800F1008C31DC24823170082000D40071081C
:10069800D500D601D7015708FD005608FC005508BB
:1006A800FB005408FA008E31EF26823177082000CB
:1006B800D9007608D8000030F9000030F800003082
:1006C800F7001930F6000A30F2000030F3006F0826
:1006D800D200D3015208F0005308F1008C31DC2419
:1006E800823170082000D4007108D500D601D701E6
:1006F8005708FD005608FC005508FB005408FA008E
:100708008E31EF26823177082000DB007608DA0088
:1007180066085902031D922B650858020318952B89
:10072800962B9A2B5908E6005808E5005B086602E4
:10073800031DA02B5A0865020318A32BA42BA82B72
:100748005B08E6005A08E500080020006D03031D59
:10075800AE2BAF2B862C0130A6002608E9072030E7
:100768006906031DB82BB92B862C5D08D33EF00013
:10077800FF305E3DF100F201F3010030F700003078
:10078800F6000030F5009030F4008D31A225833159
:1007980070082000A6007108A7007208A800730856
:1007A800A9000A30A936A80CA70CA60C890BD62BD1
:1007B80026080F3EAA002A08EF0021004008D33E71
:1007C800F000FF30413DF100F201F30120006F0815
:1007D800A600A701A801A9012908F7002808F60022
:1007E8002708F5002608F4008D31A225833170080A
:1007F8002000AA007108AB007208AC007308AD00B5
:100808000830AD36AC0CAB0CAA0C890B052C2B08A8
:10081800E6002A08E5000030F9000030F800003052
:10082800F7001930F6005A30F2000030F3006F0874
:10083800A600A7012608F0002708F1008C31DC2467
:10084800833170082000A8007108A900AA01AB0133
:100858002B08FD002A08FC002908FB002808FA00DC
:100868008E31EF26833177082000AF007608AE007E
:100878000030F9000030F8000030F7001930F600B9
:100888000A30F2000030F3006F08A600A70126081E
:10089800F0002708F1008C31DC2483317008200037
:1008A800A8007108A900AA01AB012B08FD002A08BD
:1008B800FC002908FB002808FA008E31EF26833156
:1008C80077082000B1007608B00066082F02031DE3
:1008D8006F2C65082E020318722C732C772C2F08A6
:1008E800E6002E08E50031086602031D7D2C30085D
:1008F80065020318802C812C852C3108E60030080D
:10090800E500E90108002100E400202D8730990561
:1009180099130030BF000030BE007930BD00183098
:10092800BC004B2D190887392038990099130030DD
:10093800BF000030BE00F430BD002430BC004B2D99
:10094800190887392838990099130030BF000130F9
:10095800BE00E830BD004830BC004B2D190887396F
:100968003038990099130030BF000330BE00D030F2
:10097800BD009030BC004B2D1908873938389900D4
:1009880099130030BF000730BE00A130BD002030F1
:10099800BC004B2D19088739583899009913003035
:1009A800BF000F30BE004230BD004030BC004B2DB0
:1009B800190887396038990099130030BF001E3034
:1009C800BE008430BD008030BC004B2D190887392B
:1009D8006838990099130030BF003D30BE000930D7
:1009E800BD000030BC004B2D1908873970389900BC
:1009F80099130030BF007A30BE001230BD000030BD
:100A0800BC004B2D7830990499130030BF00F430A6
:100A1800BE002430BD000030BC004B2D19088739BA
:100A28007038990099170130BF00E830BE0048308F
:100A3800BD000030BC004B2D6408E200E3016308F0
:100A4800003A0319282D4B2D6208003A03198A2C05
:100A5800013A0319962C033A0319A42C013A0319F5
:100A6800B22C073A0319C02C013A0319CE2C033AC9
:100A78000319DC2C013A0319EA2C0F3A0319F82C54
:100A8800013A0319062D033A0319122D4B2D0800BC
:100A98002100E600E50108306602031C542D552D9F
:100AA8005D2D6608F83EE3006308E700E501E50A06
:100AB800622D6608E3006308E700E5016508031D89
:100AC800662D672D922D620803196B2D6C2D852DCF
:100AD8000130E300670A712DE335890B702D630837
:100AE800E40064088C040130E300670A7C2DE335D8
:100AF800890B7B2D6308FF3AE400640823008C050A
:100B0800C12D0130E300670A8A2DE335890B892D51
:100B18006308FF3AE40064088C05C12D6503031DD2
:100B2800962D972DC12D620803199B2D9C2DB52D4F
:100B38000130E300670AA12DE335890BA02D630876
:100B4800E40064088D040130E300670AAC2DE33546
:100B5800890BAB2D6308FF3AE400640823008D0578
:100B6800C12D0130E300670ABA2DE335890BB92D91
:100B78006308FF3AE40064088D0508002100E700D7
:100B8800E601E501E401043067020318CC2DCD2D00
:100B9800D42D6708E2006208E600E501E401E40AF2
:100BA80009306702031CD92DDA2DE92D10306702B0
:100BB8000318DF2DE02DE92D6708F83EE2006208F2
:100BC800E600E501E50AE401E40A64080319ED2DED
:100BD800EE2D272E6508031DF22DF32D0B2E013067
:100BE800E200660AF82DE235890BF72D6208E3006A
:100BF80063088C040130E200660A032EE235890B93
:100C0800022E6208E300630823008C04272E650384
:100C1800031D0F2E102E272E0130E200660A152E16
:100C2800E235890B142E6208E30063088D04013055
:100C3800E200660A202EE235890B1F2E6208E300C7
:100C4800630823008D040800FA00F601F701053057
:100C58007A020318302E312E372E7A08F2007208E5
:100C6800F600F701F70A09307A02031C3C2E3D2EE4
:100C78004A2E10307A020318422E432E4A2E7A0842
:100C8800143CF2007208F600F701F70A7708031916
:100C98004E2E4F2E8A2E21001D088330F200720836
:100CA8009D057608F2000130F235FF3E031D582EEF
:100CB8007235F30073089D04F8010130F2007208E0
:100CC800F80708307802031C6A2E6B2E612E21006B
:100CD8009D149D18702E712E6D2E1C08F5001B0892
:100CE800F4008330F20072089D059D15F90101306A
:100CF800F2007208F90708307902031C842E852E49
:100D08007B2E7508F1007408F0008C2EF001F101BB
:100D180008002100E600E50108306602031C952E54
:100D2800962E9E2E6608F83EE3006308E700E5016C
:100D3800E50AA32E6608E3006308E700E5016508F5
:100D4800031DA72EA82EC82E62080319AC2EAD2E9F
:100D5800BA2E0130E300670AB22EE335890BB12EB3
:100D68006308E400640822008C04EC2E0130E300E0
:100D7800670ABF2EE335890BBE2E6308FF3AE400ED
:100D8800640822008C05EC2E6503031DCC2ECD2EA5
:100D9800EC2E62080319D12ED22EDF2E0130E3008B
:100DA800670AD72EE335890BD62E6308E40064085A
:100DB80022008D04EC2E0130E300670AE42EE335AF
:100DC800890BE32E6308FF3AE400640822008D05CE
:100DD8000800F400F30108307402031CF42EF52E09
:100DE800FD2E7408F83EF1007108F500F301F30ACE
:100DF800022F7408F1007108F500F3017308031D50
:100E0800062F072F272F700803190B2F0C2F192FC8
:100E18000130F100750A112FF135890B102F710877
:100E2800F200720822008C044B2F0130F100750A81
:100E38001E2FF135890B1D2F7108FF3AF200720839
:100E480022008C054B2F7303031D2B2F2C2F4B2FA8
:100E580070080319302F312F3E2F0130F100750A29
:100E6800362FF135890B352F7108F20072082200F0
:100E78008D044B2F0130F100750A432FF135890B92
:100E8800422F7108FF3AF200720822008D0508000F
:100E98002000A9012935C23E860001308700293586
:100EA800C03E840001308500403F803F413F813F84
:100EB8000130A0002008A9070F302902031C652F64
:100EC800662F4E2F0430863128268731710823007B
:100ED800DF007008DE0000302000A7000030A60008
:100EE8000030A5000030A400A8012835C03E8600C7
:100EF80001308700403FA000413FA1002008A4071F
:100F08002108A53D0030A63DA73D0130A0002008DE
:100F1800A80710302802031C922F932F792F24083A
:100F2800A0002508A1002608A2002708A300043075
:100F3800A336A20CA10CA00C890B9C2F2108FC0045
:100F48002008FB000800FB017B35223E86000130AB
:100F580087007B35203E840001308500403F803F7C
:100F6800413F813F0130F2007208FB070F307B02DE
:100F7800031CBF2FC02FA82F200064082200BF0029
:100F8800200063082200BE000030F9000030F8009D
:100F98000030F7000030F600FA017A35203E86006E
:100FA80001308700403FF200413FF3007208F60726
:100FB8007308F73D0030F83DF93D0130F200720842
:100FC800FA0710307A02031CEA2FEB2FD12F76088C
:100FD800F2007708F3007808F4007908F500043087
:100FE800F536F40CF30CF20C890BF42F7308F100AE
:100FF8007208F00008002834283449344E34543438
:1010080043344F344E34293426343034373446345C
:10101800683429342C343234003428342834503499
:101028004934523431342934263430343734463450
:0A103800683429342C3432340034BB
:101832002000ED01ED0A0800013021009D008030FA
:101842009E000800640080010131890B242C0034C1
:1018520003302100E20062082000ED00080002309F
:101862002100E20062082000ED0008008B178B16B1
:10187200210095129511043095000800200062089D
:10188200F7006108F6008C318C248C3108002000AE
:10189200E501E601EF010430F0007008ED000800F8
:1018A20009308531C2258C310A308531C2258C310F
:1018B200080021001D089D149D18602C612C5D2CD0
:1018C2001C08F1001B08F0000800F0010B30863103
:1018D200ED268C31F001F00A0B308631ED268C3189
:1018E20008002100E201E20A043085314C258C31E6
:1018F20004308531C2258C3108002100E2010B3011
:1019020086318D268C312100E201E20A0B308631CC
:101912008D268C3108007608433EF800FE30773D74
:10192200F9007908F1007808F0002930F2000B3054
:10193200F3008C31DC248C317108FB007008FA0052
:101942007B08F7007A08F60008007108803AF20076
:1019520080307202031DAF2C013070020318B22CCA
:10196200B32CBF2C7009F2007109F300F20A0319BB
:10197200F30A7208F0007308F100BF2C08000C3063
:101982002500930020009B012500910122001D15D6
:10199200250096151610FC3020009C0521009110A0
:1019A20020001C150B1721001115E20106308531AC
:1019B2004C258C310800F401F501701CE12CE22C5D
:1019C200E62C7208F4077308F53D0130F235F30D89
:1019D200890BE72C0130F136F00C890BEC2C7008E6
:1019E2007104031DF52CF62CDE2C7508F100740829
:1019F200F00008002100E201E20A033085314C25A3
:101A02008C312100E201E20A013085314C258C3112
:101A120000308531C2258C3102308531C2258C31AE
:101A22002100E2010B3085314C258C318C317E2432
:101A32008C310800720820009B007108F4007008C5
:101A4200F300F436F30CF436F30C7308250091001E
:101A520070080139F300F30E13087306EF397306A9
:101A6200930002307005F30000307105F40000307D
:101A720074020230031973020318402D432D25000E
:101A82009316452D25009312080001308E3112263F
:101A92008D31013A031D4E2D502D0130512D003054
:101AA200F90079082000EB0003308E3112268D31C7
:101AB200013A031D5D2D5F2D0130602D0030F900CC
:101AC20079082000EA00FA01FA0A6A08031D6A2D61
:101AD2006B2D712D6B08031D6F2D702D712DFA0169
:101AE2007A0808000A30843187248D318C31C02471
:101AF2008D318C3137248D318C311D248D318C31D7
:101B0200FB248D318C3151248D318C3172248D31F5
:101B12002100E2010C3085314C258D3108308E31A7
:101B220059268D31013A0319972D982D9C2D8C3110
:101B320030248D319F2D8C3119248D319F2D803190
:101B42009D280030FB000030FA000030F900003020
:101B5200F800701CAD2DAE2DB62D7408F80775086F
:101B6200F93D7608FA3D7708FB3D0130F435F50D75
:101B7200F60DF70D890BB72D0130F336F20CF10C8F
:101B8200F00C890BBE2D7308720471047004031DDE
:101B9200CB2DCC2DAA2D7B08F3007A08F200790810
:101BA200F1007808F00008007C08F63E2000A90049
:101BB200FF307D3DAA002908F0002A08F100890DB6
:101BC200893B8909F200F3000030F7000030F6008B
:101BD2001730F500D430F4008D31A2258D31730811
:101BE2002000A8007208A7007108A6007008A500CE
:101BF2002508A0002608A1002708A2002808A300A3
:101C02000830A400A337A20CA10CA00CA40B032E35
:101C12002108AC002008AB002C08FD002B08FC00BA
:101C22000800F800F70108307802031C192E1A2E5A
:101C3200222E7808F83EF0007008F600F701F70A45
:101C4200272E7808F0007008F600F7017708031DC8
:101C52002B2E2C2E3F2E20000C08F0007008F200D4
:101C62007208F000760A362EF036890B352E70088F
:101C72000139F1007108F3007308582E7703031D30
:101C8200432E442E572E20000D08F0007008F40059
:101C92007408F000760A4E2EF036890B4D2E70082D
:101CA2000139F1007108F5007508582E003008005E
:101CB2002100EA00E90108306A02031C612E622E4B
:101CC2006A2E6A08F83EE2006208E800E901E90AC1
:101CD2006F2E6A08E2006208E800E9016908031D44
:101CE200732E742E882E20000C082100E200620858
:101CF200E4006408E200680A7F2EE236890B7E2E39
:101D020062080139E3006308E5006508A22E690351
:101D1200031D8C2E8D2EA12E20000D082100E20025
:101D22006208E6006608E200680A982EE236890B2D
:101D3200972E62080139E3006308E7006708A22EC4
:101D42000030080071308600003087000830F00053
:101D520000301E00F00BAA2E2000201CB12EB22E45
:101D6200C22E2808F1072908F23D2A08F33D2B0864
:101D7200F43D2C08F53D2D08F63D2E08F73D2F08C1
:101D8200F83DA835A90DAA0DAB0DAC0DAD0DAE0DEC
:101D9200AF0DA736A60CA50CA40CA30CA20CA10C8B
:101DA200A00C200821042204230424042504260470
:101DB2002704031DDD2EDE2EAD2E7108A000720851
:101DC200A1007308A2007408A3007508A400760895
:101DD200A5007708A6007808A700080000302000B8
:101DE200A4000030A3000030A2000030A100790856
:101DF2007804770476040319FF2E002F412FA501E2
:101E0200A50A0E2F0130F635F70DF80DF90D890BE5
:101E1200042F0130A0002008A507F91F112F122F4F
:101E2200032F0130A135A20DA30DA40D890B132F91
:101E320079087D02031D272F78087C02031D272FB6
:101E420077087B02031D272F76087A02031C2A2FAC
:101E52002B2F342F7608FA027708FB3B7808FC3BDD
:101E62007908FD3B21140130F936F80CF70CF60C19
:101E7200890B352F0130A502031D402F412F122F50
:101E82002408F9002308F8002208F7002108F600C8
:101E920008002000A9012935223E86000230870071
:101EA2002935203E840002308500403F803F413F7B
:101EB200813F0130A0002008A9070F302902031C2E
:101EC200632F642F4C2F0930863128268F317108F9
:101ED2002400BF007008BE0000302000A7000030C0
:101EE200A6000030A5000030A400A8012835203E3D
:101EF200860002308700403FA000413FA100200839
:101F0200A4072108A53D0030A63DA73D0130A00051
:101F12002008A80710302802031C902F912F772F3A
:101F22002408A0002508A1002608A2002708A30073
:101F32000430A336A20CA10CA00C890B9A2F210805
:101F4200FC002008FB0008002000A9012935A23E60
:101F52008600013087002935A03E840001308500CB
:101F6200403F803F413F813F0130A0002008A90748
:101F72000F302902031CBE2FBF2FA72F0A30863134
:101F820028268F3171082300BF007008BE00003080
:101F92002000A7000030A6000030A5000030A400F9
:101FA200A8012835A03E860001308700403FA000EE
:101FB200413FA1002008A4072108A53D0030A63D0D
:101FC200A73D0130A0002008A80710302802031CFA
:101FD200EB2FEC2FD22F2408A0002508A100260801
:101FE200A2002708A3000430A336A20CA10CA00C67
:0E1FF200890BF52F2108FC002008FB000800D9
:020000040001F9
:08000000FF3FFF3FFF3FFF3F00
:04000E00A40FFF1C20
:00000001FF
