:0400000080318228A1
:100008007E148031873112278031013A031D0D2873
:100018000E2811288F31EB27803120005308F1007A
:100028005208F0005B08B2003208F20087313F271F
:10003800803120005508031D222823282828F00194
:100048000C3084310724803120005503031D2D28EE
:100058002E286C288531D225803171082000CB00EC
:100068007008CA008431C12480317C082000C9008E
:100078007B08C8005408031D422843284C28F00177
:10008800F00A0C308431072480318031A820803177
:1000980020005403031D51285228622885317725F2
:1000A80080317C082000C5007B08C40085311C25F0
:1000B80080317C082000C7007B08C6005403031D5C
:1000C80066286828013069280030B2003208D40058
:1000D8005503031D70287228013073280030B200C0
:1000E8003208D5000B118F31F427803171082000B8
:1000F800CF007008CE0011117E10090080318428CD
:1001080040308400003085001C308F31DD2780317D
:10011800A03084000030850040308F31DD278031E9
:10012800203084000130850040308F31DD27803158
:10013800A03084000130850020308F31DD278031E8
:100148007E1020008631E32E20005A03031DAD28BF
:10015800AE2883290130A6002608D6072030560687
:10016800031DB728B82883294608D33EF000FF307E
:10017800473DF100F201F3010030F7000030F600CE
:100188000030F5009030F4008631B02680317008D8
:100198002000A6007108A7007208A8007308A9002B
:1001A8000A30A936A80CA70CA60C890BD528260856
:1001B8000F3EAA002A08DB004408D33EF000FF30B7
:1001C800453DF100F201F3015B08A600A701A80173
:1001D800A9012908F7002808F6002708F5002608CD
:1001E800F4008631B026803170082000AA0071081A
:1001F800AB007208AC007308AD000830AD36AC0C2B
:10020800AB0CAA0C890B02292B08D3002A08D200B0
:100218000030F9000030F8000030F7001930F6001F
:100228005A30F2000030F3005B08A600A701260848
:10023800F0002708F10087318A27803170082000F4
:10024800A8007108A900AA01AB012B08FD002A0823
:10025800FC002908FB002808FA0084316624803154
:1002680077082000AF007608AE000030F9000030B3
:10027800F8000030F7001930F6000A30F2000030BC
:10028800F3005B08A600A7012608F0002708F10084
:1002980087318A27803170082000A8007108A900DA
:1002A800AA01AB012B08FD002A08FC002908FB0065
:1002B8002808FA0084316624803177082000B100CC
:1002C8007608B00053082F02031D6C2952082E022D
:1002D80003186F29702974292F08D3002E08D2001B
:1002E80031085302031D7A293008520203187D2968
:1002F8007E2982293108D3003008D200D6010800AF
:100308002000B500332A8730210099059913003061
:100318002000C3000030C2007930C1001830C0008E
:100328005E2A21001908873920389900991300306E
:100338002000C3000030C200F430C1002430C000E7
:100348005E2A210019088739283899009913003046
:100358002000C3000130C200E830C1004830C000AE
:100368005E2A21001908873930389900991300301E
:100378002000C3000330C200D030C1009030C0005C
:100388005E2A2100190887393838990099130030F6
:100398002000C3000730C200A130C1002030C000D7
:1003A8005E2A2100190887395838990099130030B6
:1003B8002000C3000F30C2004230C1004030C000EE
:1003C8005E2A21001908873960389900991300308E
:1003D8002000C3001E30C2008430C1008030C0003D
:1003E8005E2A210019088739683899009913003066
:1003F8002000C3003D30C2000930C1000030C000F9
:100408005E2A21001908873970389900991300303D
:100418002000C3007A30C2001230C1000030C00092
:100428005E2A783021009904991300302000C30017
:10043800F430C2002430C1000030C0005E2A210020
:100448001908873970389900991701302000C300BE
:10045800E830C2004830C1000030C0005E2A3508CC
:10046800B300B4013408003A03193B2A5E2A330862
:10047800003A03198729013A03199529033A031900
:10048800A529013A0319B529073A0319C529013ADB
:100498000319D529033A0319E529013A0319F5295E
:1004A8000F3A0319052A013A0319152A033A0319C1
:1004B800232A5E2A08002000B700B6010830370258
:1004C800031C672A682A702A3708F83EB4003408E3
:1004D800B800B601B60A752A3708B4003408B8005F
:1004E800B6013608031D792A7A2AA82A330803197F
:1004F8007E2A7F2A9A2A0130B400380A842AB43521
:10050800890B832A3408B500350821008C04013092
:100518002000B400380A912AB435890B902A34088F
:10052800FF3AB500350823008C05DA2A0130B400FB
:10053800380A9F2AB435890B9E2A3408FF3AB50039
:10054800350821008C05DA2A3603031DAC2AAD2AAA
:10055800DA2A33080319B12AB22ACD2A0130B400A5
:10056800380AB72AB435890BB62A3408B5003508D5
:1005780021008D0401302000B400380AC42AB435A3
:10058800890BC32A3408FF3AB500350823008D05C6
:10059800DA2A0130B400380AD22AB435890BD12AB4
:1005A8003408FF3AB500350821008D050800200001
:1005B800B800B701B601B501043038020318E52ABE
:1005C800E62AED2A3808B3003308B700B601B501AA
:1005D800B50A09303802031CF22AF32A022B10301C
:1005E80038020318F82AF92A022B3808F83EB30013
:1005F8003308B700B601B60AB501B50A35080319BC
:10060800062B072B442B3608031D0B2B0C2B262BF4
:100618000130B300370A112BB335890B102B33087F
:10062800B400340821008C0401302000B300370ADC
:100638001E2BB335890B1D2B3308B4003408230057
:100648008C04442B3603031D2A2B2B2B442B0130FF
:10065800B300370A302BB335890B2F2B3308B4007E
:10066800340821008D0401302000B300370A3D2BE7
:10067800B335890B3C2B3308B400340823008D04B0
:100688000800FA00F601F70104307A0203184D2B2E
:100698004E2B542B7A08F2007208F600F701F70A7D
:1006A80009307A02031C592B5A2B672B10307A0217
:1006B80003185F2B602B672B7A08143CF200720832
:1006C800F600F701F70A770803196B2B6C2BA62B9A
:1006D80021001D088330F20072089D057608F2009B
:1006E8000130F235FF3E031D752B7235F300730898
:1006F8009D04F8010130F2007208F807083078020A
:10070800031C872B882B7E2B21009D149D188D2B75
:100718008E2B8A2B1C08F5001B08F4008330F2008E
:1007280072089D059D15F9010130F2007208F9075C
:1007380008307902031CA12BA22B982B7508F10015
:100748007408F00008002000B700B601083037022E
:10075800031CAF2BB02BB82B3708F83EB400340875
:10076800B800B601B60ABD2B3708B4003408B80083
:10077800B6013608031DC12BC22BE22B330803191F
:10078800C62BC72BD42B0130B400380ACC2BB43578
:10079800890BCB2B3408B500350822008C04062CB5
:1007A8000130B400380AD92BB435890BD82B34085A
:1007B800FF3AB500350822008C05062C3603031DC8
:1007C800E62BE72B062C33080319EB2BEC2BF92B24
:1007D8000130B400380AF12BB435890BF02B3408FA
:1007E800B500350822008D04062C0130B400380A03
:1007F800FE2BB435890BFD2B3408FF3AB5003508BC
:1008080022008D050800F400F30108307402031C6F
:100818000E2C0F2C172C7408F83EF1007108F50007
:10082800F301F30A1C2C7408F1007108F500F301B8
:100838007308031D202C212C412C70080319252C2A
:10084800262C332C0130F100750A2B2CF135890B3D
:100858002A2C7108F200720822008C04652C0130E1
:10086800F100750A382CF135890B372C7108FF3ADD
:10087800F200720822008C05652C7303031D452CB9
:10088800462C652C700803194A2C4B2C582C013027
:10089800F100750A502CF135890B4F2C7108F200C4
:1008A800720822008D04652C0130F100750A5D2C58
:1008B800F135890B5C2C7108FF3AF20072082200AE
:1008C8008D05080000302000A4000030A30000308F
:1008D800A2000030A100790878047704760403198F
:1008E800762C772CB82CA501A50A852C0130F63575
:1008F800F70DF80DF90D890B7B2C0130A0002008AD
:10090800A507F91F882C892C7A2C0130A135A20D56
:10091800A30DA40D890B8A2C79087D02031D9E2C3A
:1009280078087C02031D9E2C77087B02031D9E2CF1
:1009380076087A02031CA12CA22CAB2C7608FA02AA
:100948007708FB3B7808FC3B7908FD3B2114013014
:10095800F936F80CF70CF60C890BAC2C0130A50213
:10096800031DB72CB82C892C2408F9002308F8009B
:100978002208F7002108F60008002000A9012935FF
:10098800423E8600013087002935403E8400013010
:100998008500403F803F413F813F0130A000200853
:1009A800A9070F302902031CDA2CDB2CC32C0430D6
:1009B80083314523843171082200DF007008DE008E
:1009C80000302000A7000030A6000030A50000304D
:1009D800A400A8012835403E860001308700403F2A
:1009E800A000413FA1002008A4072108A53D003030
:1009F800A63DA73D0130A0002008A8071030280216
:100A0800031C072D082DEE2C2408A0002508A100A2
:100A18002608A2002708A3000430A336A20CA10CC4
:100A2800A00C890B112D2108FC002008FB000800F0
:100A38002000A9012935223E86000130870029358A
:100A4800203E840001308500403F803F413F813F88
:100A58000130A0002008A9070F302902031C352DFA
:100A6800362D1E2D0A308331452385317108220029
:100A7800BF007008BE0000302000A7000030A600AC
:100A88000030A5000030A400A8012835203E8600CB
:100A980001308700403FA000413FA1002008A40783
:100AA8002108A53D0030A63DA73D0130A000200843
:100AB800A80710302802031C622D632D492D240835
:100AC800A0002508A1002608A2002708A3000430DA
:100AD800A336A20CA10CA00C890B6C2D2108FC00DC
:100AE8002008FB0008002000A9012935A23E860045
:100AF800013087002935A03E840001308500403F41
:100B0800803F413F813F0130A0002008A9070F30F6
:100B18002902031C902D912D792D0930833145230D
:100B2800853171082300BF007008BE000030200026
:100B3800A7000030A6000030A5000030A400A801DE
:100B48002835A03E860001308700403FA000413F85
:100B5800A1002008A4072108A53D0030A63DA73D17
:100B68000130A0002008A80710302802031CBD2D62
:100B7800BE2DA42D2408A0002508A1002608A20047
:100B88002708A3000430A336A20CA10CA00C890BE3
:100B9800C72D2108FC002008FB000800FB017B355D
:100BA800A23E860087017B35A03E84008501403F38
:100BB800803F413F813F0130F2007208FB070F3050
:100BC8007B02031CE82DE92DD32D20004F082100BE
:100BD800BF0020004E082100BE000030F9000030A0
:100BE800F8000030F7000030F600FA017A35A03E30
:100BF80086008701403FF200413FF3007208F60784
:100C08007308F73D0030F83DF93D0130F2007208F5
:100C1800FA0710307A02031C122E132EFA2D7608CA
:100C2800F2007708F3007808F4007908F50004303A
:100C3800F536F40CF30CF20C890B1C2E7308F1003A
:100C48007208F0000800F800F70108307802031C69
:100C58002E2E2F2E372E7808F83EF0007008F6005A
:100C6800F701F70A3C2E7808F0007008F600F70143
:100C78007708031D402E412E542E20000C08F0004A
:100C88007008F2007208F000760A4B2EF036890BD5
:100C98004A2E70080139F1007108F30073086B2EB1
:100CA8007703031D582E592E6B2E20000D08F000D7
:100CB8007008F4007408F000760A632EF036890B89
:100CC800622E70080139F1007108F50075080800F6
:100CD8002000BB00BA0108303B02031C742E752E9D
:100CE8007D2E3B08F83EB3003308B900BA01BA0AB2
:100CF800822E3B08B3003308B900BA013A08031D35
:100D0800862E872E992E0C08B3003308B5003508B7
:100D1800B300390A902EB336890B8F2E3308013968
:100D2800B4003408B6003608AF2E3A03031D9D2ED2
:100D38009E2EAF2E0D08B3003308B7003708B30056
:100D4800390AA72EB336890BA62E33080139B40009
:100D58003408B800380808000030FB000030FA00FA
:100D68000030F9000030F800701CBB2EBC2EC42ED9
:100D78007408F8077508F93D7608FA3D7708FB3DD1
:100D88000130F435F50DF60DF70D890BC52E013040
:100D9800F336F20CF10CF00C890BCC2E73087204AC
:100DA80071047004031DD92EDA2EB82E7B08F300C7
:100DB8007A08F2007908F1007808F00008000A3093
:100DC8008131842186318731A92786318F31E32704
:100DD80086318F31CB27863187316A278631873133
:100DE800F62786312000B3010C3082315F2286312C
:100DF800083086316C268631013A0319042F052FF5
:100E08000C2F8F31D72786318F31D12786310F2F7D
:100E18008F31C72786310F2F8031822801308631E4
:100E280027268731013A031D1A2F1C2F01301D2F49
:100E38000030F90079082000D800033086312726D1
:100E48008731013A031D292F2B2F01302C2F003019
:100E5800F90079082000D700FA01FA0A5708031D9B
:100E6800362F372F3D2F5808031D3B2F3C2F3D2F82
:100E7800FA017A080800720820009B007108F40043
:100E88007008F300F436F30CF436F30C73082500FD
:100E9800910070080139F300F30E13087306EF3957
:100EA8007306930002307005F30000307105F400FA
:100EB800003074020230031973020318642F672F7D
:100EC80025009316692F2500931208002000B3010E
:100ED800B30A033082315F2287312000B301B30A9D
:100EE800013082315F22873100308231DB22873145
:100EF80002308231DB2287312000B3010B3082318E
:100F08005F2287318731E82787310800F401F5012E
:100F1800701C8F2F902F942F7208F4077308F53DDB
:100F28000130F235F30D890B952F0130F136F00CB5
:100F3800890B9A2F70087104031DA32FA42F8C2FDF
:100F48007508F1007408F00008000C3025009300C3
:100F580020009B012500910122001D1525009615F2
:100F68001610FC3020009C052100911020001C1553
:100F78000B17210011152000B301063082315F22C2
:100F8800873108002834283449344E3454344334E3
:100F98004F344E34293426343034373446346834A8
:100FA80029342C3432340034283428345034493429
:100FB80052343134293426343034373446346834A2
:100FC80029342C34323400342000B3010B308331FF
:100FD800A72387312000B301B30A0B308331A7233D
:100FE8008731080009308231DB2287310A308231AB
:060FF800DB228731080036
:101F8E002000DA01DA0A0800013021009D008030BD
:101F9E009E00080003302000B3003308DA0008006A
:101FAE0002302000B3003308DA000800640080011C
:101FBE000131890BDE2F00348B178B162100951201
:101FCE0095110430950008002000D201D301DB01E9
:101FDE000430F0007008DA00080021001D089D147E
:101FEE009D18FA2FFB2FF72F1C08F1001B08F0008D
:021FFE000800D9
:020000040001F9
:08000000FF3FFF3FFF3FFF3F00
:04000E00A40FFF1C20
:00000001FF
