:04000000803186289D
:100008007E148031F001F00A0C308631D22680311E
:100018008C319924803120006408F1006308F000D5
:100028006E08DE005E08F2008C31BD2480312000AD
:100038006708031D2028212829288331FB238031C4
:10004800F0010C308631D226803120006703031D71
:100058002E282F287828F001F00A0D308631D22674
:1000680080318E319826803171082100B1007008E6
:10007800B0008731312780317B082000E0007A0802
:10008800DF006608031D49284A284D2883311323B9
:10009800803120006603031D5228532863288F31BE
:1000A800A52780317B082100AD007A08AC00873194
:1000B8008C2780317B082100AF007A08AE00200031
:1000C8006603031D68286A2801306B280030DE00AB
:1000D8005E08E600F0010C308631D2268031F0014E
:1000E8000D308631D226803120006703031D7D281C
:1000F8007F28013080280030DE005E08E7000B1101
:100108007E100900803188285F3084000030850027
:1001180010308B31C6238031A03084000030850038
:1001280032308B31C6238031203084000130850085
:1001380040308B31C6238031A030840001308500E7
:1001480040308B31C6238031203084000230850056
:1001580020308B31C62380317E1020008D31482D10
:1001680020006008FD005F08FC008D31802580318B
:100178007D082000D1007C08D00008308D31BB25D7
:100188008031003A0319C928CA28D92880302000AC
:10019800B0003E30B100500830022100B600200007
:1001A8005108313B2100B700E728E0302000B000BB
:1001B8002E30B100500830022100B600200051084E
:1001C800313B2100B70036082000A0002100370885
:1001D8002000A100890D893B8909A200A300A40081
:1001E800A500A600A7000030AF000030AE00003028
:1001F800AD000030AC000030AB000030AA00253064
:10020800A9008C30A8008E314C26803120002008AF
:10021800C0002108C1002208C2002308C300240826
:10022800C4002508C5002608C6002708C7004308DB
:100238002100BB00200042082100BA00200041082C
:100248002100B900200040082100B8000E30B63E59
:1002580086008701403F2000B000413FB100423F87
:10026800B200433FB300443FB400453FB500463FAA
:10027800B600473FB700210038082000B800210029
:1002880039082000B90021003A082000BA002100EE
:100298003B082000BB000030BB1BFF30BC00BD008A
:1002A800BE00BF003808B0073908B13D3A08B23D72
:1002B8003B08B33D3C08B43D3D08B53D3E08B63D5E
:1002C8003F08B73D37082100CB0020003608210041
:1002D800CA00200035082100C90020003408210088
:1002E800C800200033082100C70020003208210080
:1002F800C600200031082100C50020003008210078
:10030800C4002708803A2000B00021004B08803A3A
:10031800200030022100031DAB294A082602031DD4
:10032800AB2949082502031DAB2948082402031DEF
:10033800AB2947082302031DAB2946082202031DE7
:10034800AB2945082102031DAB29440820020318E4
:10035800AE29AF29BF292008C4002108C5002208FA
:10036800C6002308C7002408C8002508C9002608B5
:10037800CA002708CB000E30B63E86008701473FEB
:100388002000B000B01FC929CA29672A21004508E2
:10039800F1004408F0008C310724803170082000F7
:1003A800B0007108B1000030B11BFF30B200B300DB
:1003B800B400B500B600B70021002708803A200035
:1003C800B8003708803A38022100031D132A20009C
:1003D800360821002602031D132A200035082100B3
:1003E8002502031D132A2000340821002402031DBE
:1003F800132A2000330821002302031D132A20009A
:10040800320821002202031D132A2000310821008E
:100418002102031D132A200030082100200203189E
:10042800162A172A672A00302000B0000030B100D1
:100438000030B2000030B3000030B4000030B50026
:100448000030B6000030B700210020082000B002BC
:10045800210021082000B13B210022082000B23BE6
:10046800210023082000B33B210024082000B43BCE
:10047800210025082000B53B210026082000B63BB6
:10048800210027082000B73B37082100CB002000B7
:1004980036082100CA00200035082100C9002000C4
:1004A80034082100C800200033082100C7002000BC
:1004B80032082100C600200031082100C5002000B4
:1004C80030082100C4000E30B63E86008701403F48
:1004D8002000B000413FB100423FB200433FB300AB
:1004E800443FB400453FB500463FB600473FB7001C
:1004F8001730B8002000B737B60CB50CB40CB30CE5
:10050800B20CB10CB00CB80B7E2A200033082100C5
:10051800C300200032082100C20020003108210059
:10052800C100200030082100C00036082000B000BB
:10053800210037082000B1000030B11BFF30B200A5
:10054800B3000130B035B10DB20DB30D890BA62A39
:100558003008C8003108C9003208CA003308CB0087
:100568000030CB1BFF30CC00CD00CE00CF00483090
:10057800860000308700403FB000413FB100423F55
:10058800B200433FB300443FB400453FB500463F87
:10059800B600473FB7000930B8002000B737B60C9F
:1005A800B50CB40CB30CB20CB10CB00CB80BD12A0E
:1005B800200033082100BF00200032082100BE00BF
:1005C800200031082100BD00200030082100BC00B7
:1005D80040083C072000B000210041083D3D2000B4
:1005E800B100210042083E3D2000B200210043082E
:1005F8003F3D2000B30033082100CF00200032081F
:100608002100CE00200031082100CD002000300854
:100618002100CC003708D1003608D000080020009F
:100628006C03031D182B192BFA2B0130A600260882
:10063800E80720306806031D222B232BFA2B210004
:100648002E08CD3EF000FF302F3DF100F201F301FE
:100658000030F7000030F6000030F500A530F40057
:100668008D311525833170082000A6007108A70078
:100678007208A8007308A9000A30A936A80CA70CAC
:10068800A60C890B412B26080F3EAA002A08EE006B
:100698000030F9000030F8000030F7001930F6009B
:1006A8005A30F2000030F3006E08A600A7012608B1
:1006B800F0002708F1008C315A248331700820009B
:1006C800A8007108A900AA01AB012B08FD002A089F
:1006D800FC002908FB002808FA008F314A278331DB
:1006E80077082000AD007608AC000030F900003033
:1006F800F8000030F7001930F6000A30F200003038
:10070800F3006E08A600A7012608F0002708F100EC
:100718008C315A24833170082000A8007108A90080
:10072800AA01AB012B08FD002A08FC002908FB00E0
:100738002808FA008F314A27833177082000AF0054
:100748007608AE0021002C08CD3EF000FF302D3D8C
:10075800F100F201F30120002E082C02F4002F080A
:100768002D3BF500F601F7018D3115258331700811
:100778002000A6007108A7007208A8007308A90045
:100788000A30A936A80CA70CA60C890BC52B2E0875
:100798002607E3002F08273DE40063082E02A60081
:1007A80064082F3BA7002C082607E3002D08273DE7
:1007B800E40064082D02031DE32B63082C020318D0
:1007C800E62BE72BEB2B2D08E4002C08E3002F0881
:1007D8006402031DF12B2E0863020318F42BF52B7A
:1007E800F92B2F08E4002E08E300E8010800023086
:1007F80020006C060319012C022C082C03306C060F
:10080800031D072C082CD02CDC01DD0102306C06FE
:10081800031D0F2C102C4B2C8031B42083314F300A
:100828002000D2005208EE001630B63E860087013E
:100838000030F9000030F8000030F7001930F600F9
:100848003230F2000030F3006E08D200D3015208B3
:10085800F0005308F1008C315A24833170082000CD
:10086800D4007108D500D601D7015708FD005608F5
:10087800FC005508FB005408FA008F314A278331E1
:10088800403F76072000DC00413F773DDD00003027
:10089800F9000030F8000030F7001930F6005A303F
:1008A800F2000030F3006E08D200D3015208F000C5
:1008B8005308F1008C315A24833170082000D40089
:1008C8007108D500D601D7015708FD005608FC006D
:1008D8005508FB005408FA008F314A2783317708FE
:1008E8002000D9007608D8000030F9000030F80060
:1008F8000030F7001930F6000A30F2000030F3003B
:100908006E08D200D3015208F0005308F1008C3170
:100918005A24833170082000D4007108D500D6010C
:10092800D7015708FD005608FC005508FB0054087D
:10093800FA008F314A27833177082000DB007608D8
:10094800DA005D08E4005C08E300DD1FAC2CAD2C88
:10095800B22C5B08E4005A08E300D02CDD1BB52C50
:10096800B62CD02C5B085D02031DBC2C5A085C0217
:100978000318BF2CC02CC12CAD2C5D085902031DD7
:10098800C72C5C0858020318CA2CCB2CD02C590849
:10099800E4005808E300D02C08002100D4006A2D98
:1009A8008730990599130030AB000030AA007930E0
:1009B800A9001830A800952D190887392038990002
:1009C80099130030AB000030AA00F430A90024309D
:1009D800A800952D190887392838990099130030EF
:1009E800AB000130AA00E830A9004830A800952DD6
:1009F800190887393038990099130030AB00033053
:100A0800AA00D030A9009030A800952D1908873980
:100A18003838990099130030AB000730AA00A1308C
:100A2800A9002030A800952D190887395838990051
:100A380099130030AB000F30AA004230A9004030B3
:100A4800A800952D19088739603899009913003046
:100A5800AB001E30AA008430A9008030A800952D74
:100A6800190887396838990099130030AB003D3070
:100A7800AA000930A9000030A800952D1908873967
:100A88007038990099130030AB007A30AA00123000
:100A9800A9000030A800952D7830990499130030EA
:100AA800AB00F430AA002430A9000030A800952D2E
:100AB800190887397038990099170130AB00E83068
:100AC800AA004830A9000030A800952D5408D2008B
:100AD800D3015308003A0319722D952D5208003A94
:100AE8000319D42C013A0319E02C033A0319EE2C0C
:100AF800013A0319FC2C073A03190A2D013A031984
:100B0800182D033A0319262D013A0319342D0F3AEB
:100B18000319422D013A0319502D033A03195C2D8C
:100B2800952D08002100D600D50108305602031C77
:100B38009E2D9F2DA72D5608F83ED3005308D700A9
:100B4800D501D50AAC2D5608D3005308D700D501D6
:100B58005508031DB02DB12DDC2D52080319B52DF4
:100B6800B62DCF2D0130D300570ABB2DD335890BB5
:100B7800BA2D5308D40054088C040130D300570A06
:100B8800C62DD335890BC52D5308FF3AD400540818
:100B980023008C050B2E0130D300570AD42DD335F2
:100BA800890BD32D5308FF3AD40054088C050B2E1B
:100BB8005503031DE02DE12D0B2E52080319E52DD9
:100BC800E62DFF2D0130D300570AEB2DD335890BC5
:100BD800EA2D5308D40054088D040130D300570A75
:100BE800F62DD335890BF52D5308FF3AD400540858
:100BF80023008D050B2E0130D300570A042ED33560
:100C0800890B032E5308FF3AD40054088D050800B9
:100C18002100D700D601D501D401043057020318AA
:100C2800162E172E1E2E5708D2005208D600D501B0
:100C3800D401D40A09305702031C232E242E332E44
:100C4800103057020318292E2A2E332E5708F83E43
:100C5800D2005208D600D501D50AD401D40A5408C6
:100C68000319372E382E712E5508031D3C2E3D2EA4
:100C7800552E0130D200560A422ED235890B412E0C
:100C88005208D30053088C040130D200560A4D2E66
:100C9800D235890B4C2E5208D300530823008C04FC
:100CA800712E5503031D592E5A2E712E0130D20074
:100CB800560A5F2ED235890B5E2E5208D300530890
:100CC8008D040130D200560A6A2ED235890B692E5E
:100CD8005208D300530823008D0408002100D600D1
:100CE800D50108305602031C7A2E7B2E832E560817
:100CF800F83ED3005308D700D501D50A882E5608E8
:100D0800D3005308D700D5015508031D8C2E8D2E0E
:100D1800AD2E52080319912E922E9F2E0130D3002A
:100D2800570A972ED335890B962E5308D4005408AA
:100D380022008C04D12E0130D300570AA42ED335BB
:100D4800890BA32E5308FF3AD400540822008C05BF
:100D5800D12E5503031DB12EB22ED12E52080319E0
:100D6800B62EB72EC42E0130D300570ABC2ED33569
:100D7800890BBB2E5308D400540822008D04D12EB1
:100D88000130D300570AC92ED335890BC82E530812
:100D9800FF3AD400540822008D050800F400F3013E
:100DA80008307402031CD92EDA2EE22E7408F83E9D
:100DB800F1007108F500F301F30AE72E7408F10059
:100DC8007108F500F3017308031DEB2EEC2E0C2FB0
:100DD80070080319F02EF12EFE2E0130F100750A6D
:100DE800F62EF135890BF52E7108F20072082200F3
:100DF8008C04302F0130F100750A032FF135890B6F
:100E0800022F7108FF3AF200720822008C05302F79
:100E18007303031D102F112F302F70080319152F7E
:100E2800162F232F0130F100750A1B2FF135890B7E
:100E38001A2F7108F200720822008D04302F013039
:100E4800F100750A282FF135890B272F7108FF3A11
:100E5800F200720822008D0508002000A90129353A
:100E6800C23E8600013087002935C03E840001302B
:100E78008500403F803F413F813F0130A00020086E
:100E8800A9070F302902031C4A2F4B2F332F043098
:100E98008E31F026873171082300DF007008DE00EC
:100EA80000302000A7000030A6000030A500003068
:100EB800A400A8012835C03E860001308700403FC5
:100EC800A000413FA1002008A4072108A53D00304B
:100ED800A63DA73D0130A0002008A8071030280231
:100EE800031C772F782F5E2F2408A0002508A10067
:100EF8002608A2002708A3000430A336A20CA10CE0
:100F0800A00C890B812F2108FB002008FA0008009B
:100F18002000A9012935A23E860001308700293525
:100F2800A03E840001308500403F803F413F813F23
:100F38000130A0002008A9070F302902031CA52FA3
:100F4800A62F8E2F0A308E31F026873171082300A4
:100F5800BF007008BE0000302000A7000030A600C7
:100F68000030A5000030A400A8012835A03E860066
:100F780001308700403FA000413FA1002008A4079E
:100F88002108A53D0030A63DA73D0130A00020085E
:100F9800A80710302802031CD22FD32FB92F2408FA
:100FA800A0002508A1002608A2002708A3000430F5
:100FB800A336A20CA10CA00C890BDC2F2108FB0086
:100FC8002008FA0008002834283449344E345434B0
:100FD80043344F344E34293426343034373446348D
:100FE800683429342C343234003402302100D200E1
:080FF80052082000EC00080083
:101772002000EC0108002000EC01EC0A0800013016
:1017820021009D0090309E0008006400800101311C
:10179200890BC72B003403302100D20052082000ED
:1017A200EC0008008B178B1621009512951105305D
:1017B200950008002000E301E401EE010430F0008E
:1017C2007008EC000800093086310C268B310A3093
:1017D20086310C268B310800F0010B308631D2267F
:1017E2008B31F001F00A0B308631D2268B310800A2
:1017F2002100D2010B30863172268B312100D201B9
:10180200D20A0B30863172268B3108007108803A79
:10181200F20080307202031D102C01307002031896
:10182200132C142C202C7009F2007109F300F20A17
:101832000319F30A7208F0007308F100202C080063
:101842000C302500930020009B012500910122000D
:101852001D15250096151610FC3020009C05210050
:10186200911020001C150B1721001115D201063012
:10187200853196258C3108002100D201D20A04302C
:10188200853196258C31043086310C268C3100301E
:101892002100A7000030A6000030A5000130A400FE
:1018A2000030A3000030A2000030A1000030A000F0
:1018B2000800F401F501701C5F2C602C642C720886
:1018C200F4077308F53D0130F235F30D890B652CF1
:1018D2000130F136F00C890B6A2C70087104031D7B
:1018E200732C742C5C2C7508F1007408F00008004D
:1018F2002100D201D20A0330853196258C31210094
:10190200D201D20A0130853196258C3100308631E0
:101912000C268C31023086310C268C312100D2010A
:101922000B30853196258C318B31F9238C310800AF
:101932008C31E8248C31013A031DA02CA12CB42C4B
:101942000130FB007B082000E90703306906031D14
:10195200AB2CAC2CB02C8B31DB238C31BC2C8B31DF
:10196200ED238C31BC2C200069080319B92CBA2C48
:10197200BC2C0130E9020800720820009B007108AB
:10198200F4007008F300F436F30CF436F30C730829
:101992002500910070080139F300F30E1308730655
:1019A200EF397306930002307005F30000307105C1
:1019B200F400003074020230031973020318E22C9F
:1019C200E52C25009316E72C250093120800013020
:1019D2008D31BB258C31013A031DF02CF22C0130E4
:1019E200F32C0030F90079082000EB0003308D3130
:1019F200BB258C31013A031DFF2C012D0130022D34
:101A02000030F90079082000EA00FA01FA0A6A08AF
:101A1200031D0C2D0D2D132D6B08031D112D122DE1
:101A2200132DFA017A0808000030FB000030FA009A
:101A32000030F9000030F800701C202D212D292DD6
:101A42007408F8077508F93D7608FA3D7708FB3DFA
:101A52000130F435F50DF60DF70D890B2A2D013005
:101A6200F336F20CF10CF00C890B312D7308720471
:101A720071047004031D3E2D3F2D1D2D7B08F300C4
:101A82007A08F2007908F1007808F00008008B313A
:101A9200B9238D310A308431D1248D318C31212406
:101AA2008D318B31D3238D318B31C0238D318C31EC
:101AB20079248D318B31E4238D318C313D248D316C
:101AC2002100D2010C30853196258D312100D201C1
:101AD2000D30853196258D3108308E3102268D31BB
:101AE200013A0319752D762D7A2D8731F9278D311B
:101AF2007D2D8B31BC238D317D2D803186287D0853
:101B02002000AA007C08A9002908F0002A08F10098
:101B1200890D893B8909F200F3000030F70000309B
:101B2200F6001730F500D430F4008D3115258D31D3
:101B320073082000A8007208A7007108A6007008A8
:101B4200A5002508A0002608A1002708A200280851
:101B5200A3000830A400A337A20CA10CA00CA40B74
:101B6200AC2D2108AC002008AB002C08FD002B088E
:101B7200FC000800F800F70108307802031CC22DAF
:101B8200C32DCB2D7808F83EF0007008F600F7015F
:101B9200F70AD02D7808F0007008F600F7017708F0
:101BA200031DD42DD52DE82D20000C08F00070085F
:101BB200F2007208F000760ADF2DF036890BDE2D76
:101BC20070080139F1007108F3007308012E7703E0
:101BD200031DEC2DED2D002E20000D08F0007008E5
:101BE200F4007408F000760AF72DF036890BF62D12
:101BF20070080139F1007108F5007508012E0030F6
:101C020008002100DA00D90108305A02031C0A2E0A
:101C12000B2E132E5A08F83ED2005208D800D901D2
:101C2200D90A182E5A08D2005208D800D9015908E8
:101C3200031D1C2E1D2E312E20000C082100D20067
:101C42005208D4005408D200580A282ED236890BE2
:101C5200272E52080139D3005308D50055084B2EC0
:101C62005903031D352E362E4A2E20000D08210061
:101C7200D2005208D6005608D200580A412ED23657
:101C8200890B402E52080139D3005308D700570858
:101C92004B2E00300800713086000030870008307B
:101CA200F00000301E00F00B532E2000201C5A2E94
:101CB2005B2E6B2E2808F1072908F23D2A08F33D16
:101CC2002B08F43D2C08F53D2D08F63D2E08F73D76
:101CD2002F08F83DA835A90DAA0DAB0DAC0DAD0D21
:101CE200AE0DAF0DA736A60CA50CA40CA30CA20C2E
:101CF200A10CA00C2008210422042304240425049E
:101D020026042704031D862E872E562E7108A00056
:101D12007208A1007308A2007408A3007508A40049
:101D22007608A5007708A6007808A7000800FB013E
:101D32007B35223E8600013087007B35203E8400C1
:101D420001308500403F803F413F813F0130F2003A
:101D52007208FB070F307B02031CB02EB12E992EA6
:101D6200200062082200BF00200061082200BE009D
:101D72000030F9000030F8000030F7000030F600C3
:101D8200FA017A35203E860001308700403FF2009A
:101D9200413FF3007208F6077308F73D0030F83D43
:101DA200F93D0130F2007208FA0710307A02031C82
:101DB200DB2EDC2EC22E7608F2007708F3007808BC
:101DC200F4007908F5000430F536F40CF30CF20C4B
:101DD200890BE52E7308F1007208F0000800F90083
:101DE200F601F701053079020318F82EF92EFF2EBD
:101DF2007908F2007208F600F701F70A0930790251
:101E0200031C042F052F122F1030790203180A2FFA
:101E12000B2F122F7908143CF2007208F600F7011A
:101E2200F70A77080319162F172F472F21001D08CD
:101E32008330F20072089D057608F2000130F23517
:101E4200FF3E031D202F7235F30073089D04F80135
:101E52000130F2007208F80710307802031C322FAA
:101E6200332F292F21009D149D18382F392F352FFC
:101E72001C08F5001B08F4008330F20072089D056F
:101E82009D157508F1007408F000492FF001F10169
:101E9200080000302000A4000030A3000030A2009F
:101EA2000030A100790878047704760403195A2FC8
:101EB2005B2F9C2FA501A50A692F0130F635F70D7E
:101EC200F80DF90D890B5F2F0130A0002008A5073E
:101ED200F91F6C2F6D2F5E2F0130A135A20DA30DBE
:101EE200A40D890B6E2F79087D02031D822F7808BD
:101EF2007C02031D822F77087B02031D822F760846
:101F02007A02031C852F862F8F2F7608FA02770814
:101F1200FB3B7808FC3B7908FD3B21140130F93684
:101F2200F80CF70CF60C890B902F0130A502031D5B
:101F32009B2F9C2F6D2F2408F9002308F8002208FC
:101F4200F7002108F60008002000A9012935223EE9
:101F52008600023087002935203E84000230850049
:101F6200403F803F413F813F0130A0002008A90748
:101F72000F302902031CBE2FBF2FA72F09308E312D
:101F8200F0268F3171082400BF007008BE000030B7
:101F92002000A7000030A6000030A5000030A400F9
:101FA200A8012835203E860002308700403FA0006D
:101FB200413FA1002008A4072108A53D0030A63D0D
:101FC200A73D0130A0002008A80710302802031CFA
:101FD200EB2FEC2FD22F2408A0002508A100260801
:101FE200A2002708A3000430A336A20CA10CA00C67
:0E1FF200890BF52F2108FB002008FA000800DB
:020000040001F9
:08000000FF3FFF3FFF3FFF3F00
:04000E00A40FFF1C20
:00000001FF
