:0400000080317228B1
:100008007E148031863187268031003A031D0D2801
:100018000E281A2801302000B2003208CF00003024
:10002800F000F100F2018531E2258031200051080D
:10003800031D1F2820282528F0010C308331F623C2
:10004800803120005103031D2A282B2860285008DE
:10005800031D2F2830285528F001F00A0C30833171
:10006800F6238031F001F00A09308331F62380311C
:1000780085310B2580317C082000C2007B08C10037
:100088008431B02480317C082000C4007B08C30080
:100098004F0303195028512855288031902080316A
:1000A800552820005003031D5A285C2801305D287C
:1000B8000030B2003208D0005103031D64286628BE
:1000C800013067280030B2003208D1000B1100302F
:1000D800C9000030CA0011117E100900803174284F
:1000E8003D3084000030850018308631D1268031BB
:1000F800A03084000030850040308631D126803120
:10010800203084000130850040308631D12680318E
:100118007E10200086314F2E01302000A6002608D0
:10012800D20720305206031D9A289B2872294308BB
:10013800D33EF000FF30443DF100F201F3010030FE
:10014800F7000030F6000030F5009030F4008531FB
:10015800AF25803170082000A6007108A70072083A
:10016800A8007308A9000A30A936A80CA70CA60C89
:10017800890BB82826080F3EAA002A08D40041088F
:10018800D33EF000FF30423DF100F201F301540884
:10019800A600A701A801A9012908F7002808F60068
:1001A8002708F5002608F4008531AF25803170084E
:1001B8002000AA007108AB007208AC007308AD00FB
:1001C8000830AD36AC0CAB0CAA0C890BE5282B0813
:1001D800CE002A08CD000030F9000030F8000030C9
:1001E800F7001930F6005A30F2000030F3005408D6
:1001F800A600A7012608F0002708F100863130265E
:10020800803170082000A8007108A900AA01AB017C
:100218002B08FD002A08FC002908FB002808FA0022
:1002280084315524803177082000AF007608AE006D
:100238000030F9000030F8000030F7001930F600FF
:100248000A30F2000030F3005408A600A70126087F
:10025800F0002708F1008631302680317008200030
:10026800A8007108A900AA01AB012B08FD002A0803
:10027800FC002908FB002808FA0084315524803145
:1002880077082000B1007608B0004E082F02031D41
:100298004F294D082E0203185229532957292F0890
:1002A800CE002E08CD0031084E02031D5D2930080E
:1002B8004D0203186029612965293108CE003008EC
:1002C800CD004E08F1004D08F0005408A60026089D
:1002D800F2008531E22580312000D201080020009B
:1002E800B500222A87302100990599130030200093
:1002F800C0000030BF007930BE001830BD004D2A64
:1003080021001908873920389900991300302000F6
:10031800C0000030BF00F430BE002430BD004D2ABC
:1003280021001908873928389900991300302000CE
:10033800C0000130BF00E830BE004830BD004D2A83
:1003480021001908873930389900991300302000A6
:10035800C0000330BF00D030BE009030BD004D2A31
:10036800210019088739383899009913003020007E
:10037800C0000730BF00A130BE002030BD004D2AAC
:10038800210019088739583899009913003020003E
:10039800C0000F30BF004230BE004030BD004D2AC3
:1003A8002100190887396038990099130030200016
:1003B800C0001E30BF008430BE008030BD004D2A12
:1003C80021001908873968389900991300302000EE
:1003D800C0003D30BF000930BE000030BD004D2ACE
:1003E80021001908873970389900991300302000C6
:1003F800C0007A30BF001230BE000030BD004D2A68
:10040800783021009904991300302000C000F4309E
:10041800BF002430BE000030BD004D2A210019085D
:10042800873970389900991701302000C000E830EA
:10043800BF004830BE000030BD004D2A3508B3006B
:10044800B4013408003A03192A2A4D2A3308003A1D
:1004580003197629013A03198429033A03199429BF
:10046800013A0319A429073A0319B429013A0319CF
:10047800C429033A0319D429013A0319E4290F3A84
:100488000319F429013A0319042A033A0319122A11
:100498004D2A08002000B700B60108303702031CB7
:1004A800562A572A5F2A3708F83EB4003408B8009D
:1004B800B601B60A642A3708B4003408B800B60191
:1004C8003608031D682A692A972A330803196D2AF2
:1004D8006E2A892A0130B400380A732AB435890B88
:1004E800722A3408B500350821008C040130200038
:1004F800B400380A802AB435890B7F2A3408FF3AB9
:10050800B500350823008C05C92A0130B400380A23
:100518008E2AB435890B8D2A3408FF3AB500350880
:1005280021008C05C92A3603031D9B2A9C2AC92A47
:1005380033080319A02AA12ABC2A0130B400380ABA
:10054800A62AB435890BA52A3408B5003508210038
:100558008D0401302000B400380AB32AB435890B61
:10056800B22A3408FF3AB500350823008D05C92A98
:100578000130B400380AC12AB435890BC02A3408BE
:10058800FF3AB500350821008D0508002000B800A5
:10059800B701B601B501043038020318D42AD52AA8
:1005A800DC2A3808B3003308B700B601B501B50A2C
:1005B80009303802031CE12AE22AF12A10303802F5
:1005C8000318E72AE82AF12A3808F83EB300330866
:1005D800B700B601B60AB501B50A35080319F52AF8
:1005E800F62A332B3608031DFA2AFB2A152B01306D
:1005F800B300370A002BB335890BFF2A3308B40040
:10060800340821008C0401302000B300370A0D2B78
:10061800B335890B0C2B3308B400340823008C0441
:10062800332B3603031D192B1A2B332B0130B30040
:10063800370A1F2BB335890B1E2B3308B400340837
:1006480021008D0401302000B300370A2C2BB3356C
:10065800890B2B2B3308B400340823008D040800C1
:10066800FA00F601F70104307A0203183C2B3D2BFF
:10067800432B7A08F2007208F600F701F70A0930EE
:100688007A02031C482B492B562B10307A02031888
:100698004E2B4F2B562B7A08143CF2007208F600AA
:1006A800F701F70A770803195A2B5B2B952B2100C2
:1006B8001D088330F20072089D057608F2000130AB
:1006C800F235FF3E031D642B7235F30073089D0459
:1006D800F8010130F2007208F80708307802031CAC
:1006E800762B772B6D2B21009D149D187C2B7D2B51
:1006F800792B1C08F5001B08F4008330F2007208FF
:100708009D059D15F9010130F2007208F9070830BE
:100718007902031C902B912B872B7508F100740824
:10072800F00008002000B700B60108303702031CAB
:100738009E2B9F2BA72B3708F83EB4003408B8002F
:10074800B601B60AAC2B3708B4003408B800B601B5
:100758003608031DB02BB12BD12B33080319B52B49
:10076800B62BC32B0130B400380ABB2BB435890B28
:10077800BA2B3408B500350822008C04F52B01305B
:10078800B400380AC82BB435890BC72B3408FF3A94
:10079800B500350822008C05F52B3603031DD52B33
:1007A800D62BF52B33080319DA2BDB2BE82B01307A
:1007B800B400380AE02BB435890BDF2B3408B500B8
:1007C800350822008D04F52B0130B400380AED2BD2
:1007D800B435890BEC2B3408FF3AB50035082200F4
:1007E8008D050800F400F30108307402031CFD2B8A
:1007F800FE2B062C7408F83EF1007108F500F30191
:10080800F30A0B2C7408F1007108F500F301730862
:10081800031D0F2C102C302C70080319142C152CC8
:10082800222C0130F100750A1A2CF135890B192C8C
:100838007108F200720822008C04542C0130F10077
:10084800750A272CF135890B262C7108FF3AF2001E
:10085800720822008C05542C7303031D342C352C8C
:10086800542C70080319392C3A2C472C0130F1000C
:10087800750A3F2CF135890B3E2C7108F20072087D
:1008880022008D04542C0130F100750A4C2CF135EE
:10089800890B4B2C7108FF3AF200720822008D0573
:1008A800080000302000A4000030A3000030A2009F
:1008B8000030A10079087804770476040319652CC0
:1008C800662CA72CA501A50A742C0130F635F70D66
:1008D800F80DF90D890B6A2C0130A0002008A50736
:1008E800F91F772C782C692C0130A135A20DA30DA6
:1008F800A40D890B792C79087D02031D8D2C7808AD
:100908007C02031D8D2C77087B02031D8D2C760835
:100918007A02031C902C912C9A2C7608FA027708FC
:10092800FB3B7808FC3B7908FD3B21140130F93684
:10093800F80CF70CF60C890B9B2C0130A502031D53
:10094800A62CA72C782C2408F9002308F8002208E4
:10095800F7002108F60008002000A9012935423EC9
:100968008600013087002935403E8400013085002B
:10097800403F803F413F813F0130A0002008A90748
:100988000F302902031CC92CCA2CB22C0A3083311F
:100998003423843171082200DF007008DE00003043
:1009A8002000A7000030A6000030A5000030A400F9
:1009B800A8012835403E860001308700403FA0004E
:1009C800413FA1002008A4072108A53D0030A63D0D
:1009D800A73D0130A0002008A80710302802031CFA
:1009E800F62CF72CDD2C2408A0002508A1002608E9
:1009F800A2002708A3000430A336A20CA10CA00C67
:100A0800890B002D2108FC002008FB0008002000AD
:100A1800A9012935223E8600013087002935203E6C
:100A2800840001308500403F803F413F813F0130D5
:100A3800A0002008A9070F302902031C242D252D0A
:100A48000D2D093083313423853171082200BF0010
:100A58007008BE0000302000A7000030A60000305B
:100A6800A5000030A400A8012835203E86000130EA
:100A78008700403FA000413FA1002008A4072108AB
:100A8800A53D0030A63DA73D0130A0002008A807DD
:100A980010302802031C512D522D382D2408A00097
:100AA8002508A1002608A2002708A3000430A336C1
:100AB800A20CA10CA00C890B5B2D2108FC002008BE
:100AC800FB000800F400F30108307402031C6D2DCC
:100AD8006E2D762D7408F83EF0007008F500F301CD
:100AE800F30A7B2D7408F0007008F500F301730811
:100AF800031D7F2D802D952D0130F000750A852D61
:100B0800F035890B842D7008F100710820008C05E0
:100B18000C08F200750A912DF236890B902D720897
:100B2800AE2D7303031D992D9A2DAE2D0130F000C3
:100B3800750A9F2DF035890B9E2D7008F1007108FC
:100B480020008D050D08F200750AAB2DF236890BD1
:100B5800AA2D720808000030FB000030FA000030AF
:100B6800F9000030F800701CBA2DBB2DC32D740895
:100B7800F8077508F93D7608FA3D7708FB3D01301E
:100B8800F435F50DF60DF70D890BC42D0130F3364C
:100B9800F20CF10CF00C890BCB2D73087204710464
:100BA8007004031DD82DD92DB72D7B08F3007A08C2
:100BB800F2007908F1007808F000080072082000B7
:100BC8009B007108F4007008F300F436F30CF43657
:100BD800F30C73082500910070080139F300F30E37
:100BE80013087306EF397306930002307005F3009B
:100BF80000307105F40000307402023003197302EA
:100C08000318072E0A2E250093160C2E2500931282
:100C180008002000B301B30A033082314E22863126
:100C28002000B301B30A013082314E2286310030F0
:100C38008231CA22863103308231CA2286312000AD
:100C4800B3010B3082314E2286312000B3010930C6
:100C58008331962386310800F401F501701C352E86
:100C6800362E3A2E7208F4077308F53D0130F23536
:100C7800F30D890B3B2E0130F136F00C890B402E19
:100C880070087104031D492E4A2E322E7508F10092
:100C98007408F00008000A308131732186318631EA
:100CA8006B2686318631C92686318631D72686312C
:100CB80086310D2686318631C02686312000B30163
:100CC8000C3082314E228631682E803172280C30E9
:100CD8002500930020009B012500910122001D158D
:100CE80025009615FC3020009C052100911020005D
:100CF8001C150B17210011152000B3010630823195
:100D08004E2286310800F601F60A03308531662541
:100D18008631003A031D912E922E9C2E013085318A
:100D280066258631003A031D9A2E9B2E9C2EF601CD
:100D3800760908002834283449344E34543443346E
:100D48004F344E34293426343034373446346834FA
:100D580029342C343234003428342834503449347B
:100D680052343134293426343034373446346834F4
:100D780029342C343234003409308231CA22863185
:100D88000A308231CA22863108008B178B1621005F
:100D98009512951104309500080064008001013116
:100DA800890BD22E0034013021009D0080309E0036
:020DB800080031
:020000040001F9
:08000000FF3FFF3FFF3FFF3F00
:04000E00A40FFF1C20
:00000001FF
