:04000000803185289E
:100008007E148031F001F00A0C308631AC26803144
:100018008C31D724803120006408F1006308F00097
:100028006E08DC005C08F2008C31FB248031200073
:100038006708031D2028212829288431B724803106
:10004800F0010C308631AC26803120006703031D97
:100058002E282F287728F001F00A0D308631AC269B
:1000680080318E319826803171082100AF007008E8
:10007800AE0087310B2780317B082000E0007A082A
:10008800DF006608031D49284A284D2883311423B8
:10009800803120006603031D5228532863288F31BE
:1000A800A52780317B082100AD007A08AC00873194
:1000B800662780317B082000DE007A08DD006603B1
:1000C800031D6728692801306A280030DC005C08B5
:1000D800E600F0010C308631AC268031F0010D309D
:1000E8008631AC26803120006703031D7C287E28DA
:1000F80001307F280030DC005C08E7000B117E101F
:100108000900803187285D30840000308500123076
:100118008B31FD238031A0308400003085003030E1
:100128008B31FD2380312030840001308500403040
:100138008B31FD238031A0308400013085004030B0
:100148008B31FD238031203084000230850020303F
:100158008B31FD2380317E1020008D31862D2000CB
:100168006008FD005F08FC008731C12780317D08E9
:100178002000D1007C08D00008308D31BB258031AB
:10018800003A0319C828C928D82880302000B000B0
:100198003E30B100500830022100B4002000510860
:1001A800313B2100B500E628E0302000B0002E30B9
:1001B800B100500830022100B40020005108313B42
:1001C8002100B50034082000A000210035082000D7
:1001D800A100890D893B8909A200A300A400A500FC
:1001E800A600A7000030AF000030AE000030AD0020
:1001F8000030AC000030AB000030AA000F30A9007E
:10020800A530A8008E314C26803120002008C0007F
:100218002108C1002208C2002308C3002408C40022
:100228002508C5002608C6002708C700430821007E
:10023800B900200042082100B80020004108210030
:10024800B700200040082100B6000E30B43E8600FA
:100258008701403F2000B000413FB100423FB2005B
:10026800433FB300443FB400453FB500463FB600A6
:10027800473FB700210036082000B80021003708A2
:100288002000B900210038082000BA0021003908F0
:100298002000BB000030BB1BFF30BC00BD00BE000F
:1002A800BF003808B0073908B13D3A08B23D3B08ED
:1002B800B33D3C08B43D3D08B53D3E08B63D3F085A
:1002C800B73D37082100C900200036082100C800C2
:1002D800200035082100C700200034082100C6008E
:1002E800200033082100C500200032082100C40086
:1002F800200031082100C300200030082100C2007E
:100308002708803A2000B00021004908803A2000E0
:1003180030022100031DAA2948082602031DAA2924
:1003280047082502031DAA2946082402031DAA29F5
:1003380045082302031DAA2944082202031DAA29ED
:1003480043082102031DAA29420820020318AD29E7
:10035800AE29BE292008C2002108C3002208C40013
:100368002308C5002408C6002508C7002608C800B9
:100378002708C9000E30B43E86008701473F200099
:10038800B000B01FC829C929662A21004308F10016
:100398004208F0008C314524803170082000B000FC
:1003A8007108B1000030B11BFF30B200B300B400D7
:1003B800B500B600B70021002708803A2000B80031
:1003C8003708803A38022100031D122A2000360817
:1003D80021002602031D122A2000350821002502CB
:1003E800031D122A2000340821002402031D122AAA
:1003F8002000330821002302031D122A200032089E
:1004080021002202031D122A2000310821002102A6
:10041800031D122A20003008210020020318152A83
:10042800162A662A00302000B0000030B1000030E3
:10043800B2000030B3000030B4000030B500003026
:10044800B6000030B700210020082000B0022100CB
:1004580021082000B13B210022082000B23B2100E6
:1004680023082000B33B210024082000B43B2100CE
:1004780025082000B53B210026082000B63B2100B6
:1004880027082000B73B37082100C900200036089C
:100498002100C800200035082100C70020003408CA
:1004A8002100C600200033082100C50020003208C2
:1004B8002100C400200031082100C30020003008BA
:1004C8002100C2000E30B43E86008701403F200064
:1004D800B000413FB100423FB200433FB300443F48
:1004E800B400453FB500463FB600473FB700163059
:1004F800B8002000B737B60CB50CB40CB30CB20C6E
:10050800B10CB00CB80B7D2A200033082100C100C3
:10051800200032082100C000200031082100BF005F
:10052800200030082100BE003408F0003508F10032
:10053800890D893B8909F200F3000030F70000308B
:10054800F6000030F5001230F4008D31532580316B
:1005580070082000C8007108C9007208CA00730832
:10056800CB000030CB1BFF30CC00CD00CE00CF003D
:100578004830860000308700403FB000413FB1005E
:10058800423FB200433FB300443FB400453FB5008B
:10059800463FB600473FB7000A30B8002000B737DB
:1005A800B60CB50CB40CB30CB20CB10CB00CB80B47
:1005B800D22A200033082100BD0020003208210083
:1005C800BC00200031082100BB00200030082100B9
:1005D800BA003E083A072000B00021003F083B3D22
:1005E8002000B100210040083C3D2000B20021005D
:1005F80041083D3D2000B30033082100CD00200014
:1006080032082100CC00200031082100CB00200056
:1006180030082100CA003508CF003408CE00080091
:1006280020006C03031D192B1A2BF12B0130A60097
:100638002608E80720306806031D232B242BF12BFE
:100648005D08D33EF000FF305E3DF100F201F3019A
:100658000030F7000030F6000030F5009030F4006C
:100668008D315325833170082000A6007108A7003A
:100678007208A8007308A9000A30A936A80CA70CAC
:10068800A60C890B412B26080F3EAA002A08EE006B
:1006980021002C08D33EF000FF302D3DF100F2017F
:1006A800F30120006E08A600A701A801A9012908E6
:1006B800F7002808F6002708F5002608F4008D3111
:1006C8005325833170082000AA007108AB00720816
:1006D800AC007308AD000830AD36AC0CAB0CAA0CFE
:1006E800890B702B2B08E4002A08E3000030F9007E
:1006F8000030F8000030F7001930F6005A30F200E8
:100708000030F3006E08A600A7012608F0002708AD
:10071800F1008C319824833170082000A8007108FA
:10072800A900AA01AB012B08FD002A08FC00290832
:10073800FB002808FA008F314A2783317708200008
:10074800AF007608AE000030F9000030F800003045
:10075800F7001930F6000A30F2000030F3006E0896
:10076800A600A7012608F0002708F1008C3198247C
:10077800833170082000A8007108A900AA01AB0104
:100788002B08FD002A08FC002908FB002808FA00AD
:100798008F314A27833177082000B1007608B000EE
:1007A80064082F02031DDA2B63082E020318DD2BC1
:1007B800DE2BE22B2F08E4002E08E3003108640248
:1007C800031DE82B300863020318EB2BEC2BF02BEE
:1007D8003108E4003008E300E80108002100D200F5
:1007E8008B2C8730990599130030AB000030AA0094
:1007F8007930A9001830A800B62C19088739203894
:10080800990099130030AB000030AA00F430A90019
:100818002430A800B62C190887392838990099136C
:100828000030AB000130AA00E830A9004830A80029
:10083800B62C190887393038990099130030AB0065
:100848000330AA00D030A9009030A800B62C1908AF
:1008580087393838990099130030AB000730AA005F
:10086800A130A9002030A800B62C190887395838BB
:10087800990099130030AB000F30AA004230A9004C
:100888004030A800B62C19088739603899009913A8
:100898000030AB001E30AA008430A9008030A800C8
:1008A800B62C190887396838990099130030AB00BD
:1008B8003D30AA000930A9000030A800B62C19085C
:1008C80087397038990099130030AB007A30AA0044
:1008D8001230A9000030A800B62C7830990499137A
:1008E8000030AB00F430AA002430A9000030A80082
:1008F800B62C190887397038990099170130AB0060
:10090800E830AA004830A9000030A800B62C5208E8
:10091800D000D1015108003A0319932CB62C500885
:10092800003A0319F52B013A0319012C033A03196C
:100938000F2C013A03191D2C073A03192B2C013AE5
:100948000319392C033A0319472C013A0319552C7A
:100958000F3A0319632C013A0319712C033A03194E
:100968007D2CB62C0800023020006C06031DBD2C1F
:10097800BE2CF92C8031B32084314F302000D200B6
:100988005208EE001630B43E860087010030F900A8
:100998000030F8000030F7001930F6003230F2006D
:1009A8000030F3006E08D200D3015208F00053085B
:1009B800F1008C319824843170082000D40071082B
:1009C800D500D601D7015708FD005608FC00550888
:1009D800FB005408FA008F314A278431403F7607DC
:1009E8002000E300413F773DE4000030F90000308B
:1009F800F8000030F7001930F6005A30F2000030E5
:100A0800F3006E08D200D3015208F0005308F10039
:100A18008C319824843170082000D4007108D500E6
:100A2800D601D7015708FD005608FC005508FB0001
:100A38005408FA008F314A27843177082000D900FA
:100A48007608D8000030F9000030F8000030F700D0
:100A58001930F6000A30F2000030F3006E08D200B8
:100A6800D3015208F0005308F1008C3198248431E6
:100A780070082000D4007108D500D601D7015708A6
:100A8800FD005608FC005508FB005408FA008F3199
:100A98004A27843177082000DB007608DA006408EA
:100AA8005902031D592D6308580203185C2D5D2D4A
:100AB800612D5908E4005808E3005B086402031D2F
:100AC800672D5A08630203186A2D6B2D6F2D5B087A
:100AD800E4005A08E30008002100D400D3010830DC
:100AE8005402031C782D792D812D5408F83ED1002D
:100AF8005108D500D301D30A862D5408D1005108D6
:100B0800D500D3015308031D8A2D8B2DB62D50080F
:100B180003198F2D902DA92D0130D100550A952D3F
:100B2800D135890B942D5108D20052088C0401301C
:100B3800D100550AA02DD135890B9F2D5108FF3AB8
:100B4800D200520823008C05E52D0130D100550A4A
:100B5800AE2DD135890BAD2D5108FF3AD200520880
:100B68008C05E52D5303031DBA2DBB2DE52D50082B
:100B78000319BF2DC02DD92D0130D100550AC52D1F
:100B8800D135890BC42D5108D20052088D0401308B
:100B9800D100550AD02DD135890BCF2D5108FF3AF8
:100BA800D200520823008D05E52D0130D100550AE9
:100BB800DE2DD135890BDD2D5108FF3AD2005208C0
:100BC8008D0508002100D500D401D301D2010430DD
:100BD80055020318F02DF12DF82D5508D0005008B6
:100BE800D400D301D201D20A09305502031CFD2DCD
:100BF800FE2D0D2E103055020318032E042E0D2E37
:100C08005508F83ED0005008D400D301D30AD201C9
:100C1800D20A52080319112E122E4B2E5308031D07
:100C2800162E172E2F2E0130D000540A1C2ED03528
:100C3800890B1B2E5008D10051088C040130D000BC
:100C4800540A272ED035890B262E5008D10051087A
:100C580023008C044B2E5303031D332E342E4B2EAE
:100C68000130D000540A392ED035890B382E50085F
:100C7800D10051088D040130D000540A442ED035DB
:100C8800890B432E5008D100510823008D04080019
:100C98002100D400D30108305402031C542E552ED1
:100CA8005D2E5408F83ED1005108D500D301D30A6F
:100CB800622E5408D1005108D500D3015308031DF2
:100CC800662E672E872E500803196B2E6C2E792EF0
:100CD8000130D100550A712ED135890B702E51087B
:100CE800D200520822008C04AB2E0130D100550AE4
:100CF8007E2ED135890B7D2E5108FF3AD20052083D
:100D080022008C05AB2E5303031D8B2E8C2EAB2E8D
:100D180050080319902E912E9E2E0130D100550AAD
:100D2800962ED135890B952E5108D20052082200F3
:100D38008D04AB2E0130D100550AA32ED135890B75
:100D4800A22E5108FF3AD200520822008D05080051
:100D5800F400F30108307402031CB32EB42EBC2E29
:100D68007408F83EF1007108F500F301F30AC12E8A
:100D78007408F1007108F500F3017308031DC52E0E
:100D8800C62EE62E70080319CA2ECB2ED82E013097
:100D9800F100750AD02EF135890BCF2E7108F200BB
:100DA800720822008C040A2F0130F100750ADD2E2A
:100DB800F135890BDC2E7108FF3AF2007208220027
:100DC8008C050A2F7303031DEA2EEB2E0A2F7008D9
:100DD8000319EF2EF02EFD2E0130F100750AF52EC5
:100DE800F135890BF42E7108F200720822008D0487
:100DF8000A2F0130F100750A022FF135890B012FF6
:100E08007108FF3AF200720822008D0508002000E0
:100E1800A9012935C23E8600013087002935C03E28
:100E2800840001308500403F803F413F813F0130D1
:100E3800A0002008A9070F302902031C242F252F02
:100E48000D2F04308E31F026873171082300DF0022
:100E58007008DE0000302000A7000030A600003037
:100E6800A5000030A400A8012835C03E8600013046
:100E78008700403FA000413FA1002008A4072108A7
:100E8800A53D0030A63DA73D0130A0002008A807D9
:100E980010302802031C512F522F382F2408A0008D
:100EA8002508A1002608A2002708A3000430A336BD
:100EB800A20CA10CA00C890B5B2F2108FB002008B9
:100EC800FA0008002000A9012935A23E8600013059
:100ED80087002935A03E840001308500403F803FCF
:100EE800413F813F0130A0002008A9070F302902A7
:100EF800031C7F2F802F682F0A308E31F026873110
:100F080071082300BF007008BE0000302000A70051
:100F18000030A6000030A5000030A400A801283544
:100F2800A03E860001308700403FA000413FA1005D
:100F38002008A4072108A53D0030A63DA73D0130A3
:100F4800A0002008A80710302802031CAC2FAD2FE2
:100F5800932F2408A0002508A1002608A20027082E
:100F6800A3000430A336A20CA10CA00C890BB62F49
:100F78002108FB002008FA0008007D082000AA00CC
:100F88007C08A9002908F0002A08F100890D893B8E
:100F98008909F200F3000030F7000030F60017303E
:100FA800F500D430F4008D315325873173082000C3
:100FB800A8007208A7007108A6007008A5002508F7
:100FC800A0002608A1002708A2002808A3000830CE
:100FD800A400A337A20CA10CA00CA40BED2F210890
:100FE800AC002008AB002C08FD002B08FC00080012
:100FF8002834283449344E34543443344F344E342E
:1010080029342634303437344634683429342C347F
:04101800323400343A
:1017E6002000EC01EC0A0800013021009D00903039
:1017F6009E000800640080010131890BFE2B003435
:1018060003302100D00050082000EC000800023010
:101816002100D00050082000EC0008008B178B1622
:101826002100951295110530950008002000E3016E
:10183600E401EE010430F0007008EC000800093005
:101846008531E6258C310A308531E6258C31080054
:10185600F0010B308631AC268C31F001F00A0B30EA
:101866008631AC268C3108002100D0010B30863140
:101876004C268C312100D001D00A0B3086314C2603
:101886008C3108007108803AF20080307202031D24
:101896004E2C013070020318512C522C5E2C70090C
:1018A600F2007109F300F20A0319F30A7208F00054
:1018B6007308F1005E2C08000C3025009300200010
:1018C6009B012500910122001D1525009615161075
:1018D600FC3020009C052100911020001C150B17E0
:1018E60021001115D0010630853170258C31080094
:1018F6002100D001D00A0430853170258C310430A6
:101906008531E6258C3100302100A7000030A60085
:101916000030A5000030A4008030A3000030A200F3
:101926000030A1000030A0000800F401F501701C91
:101936009D2C9E2CA22C7208F4077308F53D0130ED
:10194600F235F30D890BA32C0130F136F00C890B1F
:10195600A82C70087104031DB12CB22C9A2C7508A2
:10196600F1007408F00008002100D001D00A03300D
:10197600853170258C312100D001D00A01308531A6
:1019860070258C3100308531E6258C310230853169
:10199600E6258C312100D0010B30853170258C3144
:1019A6008C3137248C3108008D3126258C31013A53
:1019B600031DDE2CDF2CF22C0130FB007B082000FF
:1019C600E90703306906031DE92CEA2CEE2C8C315D
:1019D60019248C31FA2C8C312B248C31FA2C2000D2
:1019E60069080319F72CF82CFA2C0130E9020800D3
:1019F600720820009B007108F4007008F300F436AA
:101A0600F30CF436F30C73082500910070080139C5
:101A1600F300F30E13087306EF39730693000230D2
:101A26007005F30000307105F400003074020230D6
:101A3600031973020318202D232D25009316252D37
:101A460025009312080001308D31BB258D31013AF6
:101A5600031D2E2D302D0130312D0030F90079086F
:101A66002000EB0003308D31BB258D31013A031D7B
:101A76003D2D3F2D0130402D0030F9007908200022
:101A8600EA00FA01FA0A6A08031D4A2D4B2D512D68
:101A96006B08031D4F2D502D512DFA017A080800B1
:101AA6000030FB000030FA000030F9000030F8008A
:101AB600701C5E2D5F2D672D7408F8077508F93DBB
:101AC6007608FA3D7708FB3D0130F435F50DF60D45
:101AD600F70D890B682D0130F336F20CF10CF00C82
:101AE600890B6F2D7308720471047004031D7C2D1D
:101AF6007D2D5B2D7B08F3007A08F2007908F10052
:101B06007808F00008000A308331F2238D318C31D9
:101B16005F248D318C3111248D318B31F7238D313A
:101B26008C31B7248D318C3122248D318C317B243C
:101B36008D312100D0010C30853170258D31210089
:101B4600D0010D30853170258D3108308E31022659
:101B56008D31013A0319B02DB12DB52D8C310A24E2
:101B66008D31B82D8B31F3238D31B82D80318528F9
:101B7600F800F70108307802031CC22DC32DCB2DC7
:101B86007808F83EF0007008F600F701F70AD02D45
:101B96007808F0007008F600F7017708031DD42DC9
:101BA600D52DE82D20000C08F0007008F200720810
:101BB600F000760ADF2DF036890BDE2D700801392C
:101BC600F1007108F3007308012E7703031DEC2D55
:101BD600ED2D002E20000D08F0007008F4007408AA
:101BE600F000760AF72DF036890BF62D70080139CC
:101BF600F1007108F5007508012E0030080021007B
:101C0600D800D70108305802031C0A2E0B2E132EBB
:101C16005808F83ED0005008D600D701D70A182E2B
:101C26005808D0005008D600D7015708031D1C2EAF
:101C36001D2E312E20000C082100D0005008D200A5
:101C46005208D000560A282ED036890B272E500867
:101C56000139D1005108D30053084B2E5703031DF9
:101C6600352E362E4A2E20000D082100D0005008B1
:101C7600D4005408D000560A412ED036890B402E87
:101C860050080139D1005108D50055084B2E0030B7
:101C9600080071308600003087000830F000003000
:101CA6001E00F00B532E2000201C5A2E5B2E6B2E8E
:101CB6002808F1072908F23D2A08F33D2B08F43DD0
:101CC6002C08F53D2D08F63D2E08F73D2F08F83D6A
:101CD600A835A90DAA0DAB0DAC0DAD0DAE0DAF0D12
:101CE600A736A60CA50CA40CA30CA20CA10CA00C48
:101CF600200821042204230424042504260427049E
:101D0600031D862E872E562E7108A0007208A1008C
:101D16007308A2007408A3007508A4007608A5003D
:101D26007708A6007808A7000800FB017B35223E4D
:101D36008600013087007B35203E84000130850017
:101D4600403F803F413F813F0130F2007208FB0770
:101D56000F307B02031CB02EB12E992E2000620894
:101D66002200BF00200061082200BE000030F900FA
:101D76000030F8000030F7000030F600FA017A353E
:101D8600203E860001308700403FF200413FF300CD
:101D96007208F6077308F73D0030F83DF93D01304B
:101DA600F2007208FA0710307A02031CDB2EDC2ED2
:101DB600C22E7608F2007708F3007808F400790856
:101DC600F5000430F536F40CF30CF20C890BE52E15
:101DD6007308F1007208F0000800F900F601F70137
:101DE600053079020318F82EF92EFF2E7908F20035
:101DF6007208F600F701F70A09307902031C042F6E
:101E0600052F122F1030790203180A2F0B2F122FCD
:101E16007908143CF2007208F600F701F70A770811
:101E26000319162F172F472F21001D088330F200A4
:101E360072089D057608F2000130F235FF3E031D5B
:101E4600202F7235F30073089D04F8010130F2006B
:101E56007208F80710307802031C322F332F292F0F
:101E660021009D149D18382F392F352F1C08F50099
:101E76001B08F4008330F20072089D059D15750855
:101E8600F1007408F000492FF001F101080000305C
:101E96002000A4000030A3000030A2000030A10002
:101EA600790878047704760403195A2F5B2F9C2F40
:101EB600A501A50A692F0130F635F70DF80DF90DC4
:101EC600890B5F2F0130A0002008A507F91F6C2F92
:101ED6006D2F5E2F0130A135A20DA30DA40D890B28
:101EE6006E2F79087D02031D822F78087C02031D60
:101EF600822F77087B02031D822F76087A02031C45
:101F0600852F862F8F2F7608FA027708FB3B7808F5
:101F1600FC3B7908FD3B21140130F936F80CF70C2F
:101F2600F60C890B902F0130A502031D9B2F9C2FC9
:101F36006D2F2408F9002308F8002208F70021086D
:101F4600F60008002000A9012935223E860002304D
:101F560087002935203E840002308500403F803FBF
:101F6600413F813F0130A0002008A9070F30290218
:101F7600031CBE2FBF2FA72F09308E31F0268F31BD
:101F860071082400BF007008BE0000302000A700C2
:101F96000030A6000030A5000030A400A8012835B6
:101FA600203E860002308700403FA000413FA1004E
:101FB6002008A4072108A53D0030A63DA73D013015
:101FC600A0002008A80710302802031CEB2FEC2FD6
:101FD600D22F2408A0002508A1002608A200270861
:101FE600A3000430A336A20CA10CA00C890BF52F7C
:0A1FF6002108FB002008FA00080093
:020000040001F9
:08000000FF3FFF3FFF3FFF3F00
:04000E00A40FFF1C20
:00000001FF
