:0400000080316C28B7
:100008007E148031863115268031003A031D0D2873
:100018000E281A2801302000B2003208CF00003024
:10002800F000F100F20185317C2580312000510873
:10003800031D1F2820282528F0010C308331902328
:10004800803120005103031D2A282B285A285008E4
:10005800031D2F2830284F28F001F00A0C30833177
:10006800902380318431A52480317C082000C2008F
:100078007B08C10084314A2480317C082000C400F8
:100088007B08C3004F0303194A284B284F288031A7
:100098008A2080314F2820005003031D54285628F9
:1000A800013057280030B2003208D0005103031D38
:1000B8005E286028013061280030B2003208D10083
:1000C8000B110030C9000030CA0011117E10090060
:1000D80080316E283D30840000308500183086312C
:1000E8005F268031A03084000030850040308631A2
:1000F8005F26803120308400013085004030863111
:100108005F2680317E1020008531C62D0130200009
:10011800A6002608D20720305206031D94289528E9
:100128006C294308D33EF000FF30443DF100F20152
:10013800F3010030F7000030F6000030F500903091
:10014800F40085314925803170082000A600710827
:10015800A7007208A8007308A9000A30A936A80CDD
:10016800A70CA60C890BB22826080F3EAA002A085D
:10017800D4004108D33EF000FF30423DF100F201C7
:10018800F3015408A600A701A801A9012908F7004E
:100198002808F6002708F5002608F40085314925C7
:1001A800803170082000AA007108AB007208AC000A
:1001B8007308AD000830AD36AC0CAB0CAA0C890B3B
:1001C800DF282B08CE002A08CD000030F9000030C7
:1001D800F8000030F7001930F6005A30F20000300D
:1001E800F3005408A600A7012608F0002708F1002C
:1001F8008531A725803170082000A8007108A90062
:10020800AA01AB012B08FD002A08FC002908FB0005
:100218002808FA008331EF23803177082000AF00E7
:100228007608AE000030F9000030F8000030F70022
:100238001930F6000A30F2000030F3005408A60026
:10024800A7012608F0002708F1008531A72580318D
:1002580070082000A8007108A900AA01AB012B08AA
:10026800FD002A08FC002908FB002808FA00833151
:10027800EF23803177082000B1007608B0004E08DF
:100288002F02031D49294D082E0203184C294D2918
:1002980051292F08CE002E08CD0031084E02031D2B
:1002A800572930084D0203185A295B295F2931085C
:1002B800CE003008CD004E08F1004D08F00054087B
:1002C800A6002608F20085317C2580312000D20165
:1002D80008002000B5001C2A8730210099059913D1
:1002E80000302000C0000030BF007930BE00183058
:1002F800BD00472A21001908873920389900991329
:1003080000302000C0000030BF00F430BE002430B0
:10031800BD00472A21001908873928389900991300
:1003280000302000C0000130BF00E830BE00483077
:10033800BD00472A210019088739303899009913D8
:1003480000302000C0000330BF00D030BE00903025
:10035800BD00472A210019088739383899009913B0
:1003680000302000C0000730BF00A130BE002030A0
:10037800BD00472A21001908873958389900991370
:1003880000302000C0000F30BF004230BE004030B7
:10039800BD00472A21001908873960389900991348
:1003A80000302000C0001E30BF008430BE00803006
:1003B800BD00472A21001908873968389900991320
:1003C80000302000C0003D30BF000930BE000030C2
:1003D800BD00472A210019088739703899009913F8
:1003E80000302000C0007A30BF001230BE0000305C
:1003F800BD00472A78302100990499130030200065
:10040800C000F430BF002430BE000030BD00472AD1
:100418002100190887397038990099170130200090
:10042800C000E830BF004830BE000030BD00472A99
:100438003508B300B4013408003A0319242A472ABE
:100448003308003A03197029013A03197E29033A3F
:1004580003198E29013A03199E29073A0319AE296F
:10046800013A0319BE29033A0319CE29013A03199F
:10047800DE290F3A0319EE29013A0319FE29033A36
:1004880003190C2A472A08002000B700B6010830D3
:100498003702031C502A512A592A3708F83EB4005B
:1004A8003408B800B601B60A5E2A3708B400340822
:1004B800B800B6013608031D622A632A912A330858
:1004C8000319672A682A832A0130B400380A6D2A7A
:1004D800B435890B6C2A3408B500350821008C0422
:1004E80001302000B400380A7A2AB435890B792AF9
:1004F8003408FF3AB500350823008C05C32A0130BB
:10050800B400380A882AB435890B872A3408FF3A98
:10051800B500350821008C05C32A3603031D952A2A
:10052800962AC32A330803199A2A9B2AB62A013025
:10053800B400380AA02AB435890B9F2A3408B500BC
:10054800350821008D0401302000B400380AAD2A96
:10055800B435890BAC2A3408FF3AB50035082300B6
:100568008D05C32A0130B400380ABB2AB435890B7B
:10057800BA2A3408FF3AB500350821008D0508006D
:100588002000B800B701B601B501043038020318DD
:10059800CE2ACF2AD62A3808B3003308B700B601C6
:1005A800B501B50A09303802031CDB2ADC2AEB2A1C
:1005B800103038020318E12AE22AEB2A3808F83EFC
:1005C800B3003308B700B601B60AB501B50A350855
:1005D8000319EF2AF02A2D2B3608031DF42AF52AD1
:1005E8000F2B0130B300370AFA2AB335890BF92AE1
:1005F8003308B400340821008C0401302000B30013
:10060800370A072BB335890B062B3308B400340897
:1006180023008C042D2B3603031D132B142B2D2B99
:100628000130B300370A192BB335890B182B33085F
:10063800B400340821008D0401302000B300370ACB
:10064800262BB335890B252B3308B4003408230037
:100658008D040800FA00F601F70104307A02031845
:10066800362B372B3D2B7A08F2007208F600F7017B
:10067800F70A09307A02031C422B432B502B103007
:100688007A020318482B492B502B7A08143CF200A5
:100698007208F600F701F70A77080319542B552B4F
:1006A8008F2B21001D088330F20072089D05760803
:1006B800F2000130F235FF3E031D5E2B7235F30068
:1006C80073089D04F8010130F2007208F807083039
:1006D8007802031C702B712B672B21009D149D1829
:1006E800762B772B732B1C08F5001B08F40083303E
:1006F800F20072089D059D15F9010130F20072089B
:10070800F90708307902031C8A2B8B2B812B75087B
:10071800F1007408F0000800F400F30108307402D6
:10072800031C972B982BA02B7408F83EF100710836
:10073800F500F301F30AA52B7408F1007108F50020
:10074800F3017308031DA92BAA2BCA2B70080319E0
:10075800AE2BAF2BBC2B0130F100750AB42BF13551
:10076800890BB32B7108F200720822008C04EE2B5F
:100778000130F100750AC12BF135890BC02B7108C6
:10078800FF3AF200720822008C05EE2B7303031D5A
:10079800CE2BCF2BEE2B70080319D32BD42BE12BA8
:1007A8000130F100750AD92BF135890BD82B710866
:1007B800F200720822008D04EE2B0130F100750A58
:1007C800E62BF135890BE52B7108FF3AF200720828
:1007D80022008D05080000302000A4000030A3008E
:1007E8000030A2000030A10079087804770476046C
:1007F8000319FF2B002C412CA501A50A0E2C013052
:10080800F635F70DF80DF90D890B042C0130A00011
:100818002008A507F91F112C122C032C0130A13533
:10082800A20DA30DA40D890B132C79087D02031DBD
:10083800272C78087C02031D272C77087B02031DD0
:10084800272C76087A02031C2A2C2B2C342C7608A9
:10085800FA027708FB3B7808FC3B7908FD3B21143A
:100868000130F936F80CF70CF60C890B352C0130F1
:10087800A502031D402C412C122C2408F900230842
:10088800F8002208F7002108F60008002000A90156
:100898002935423E8600013087002935403E8400D4
:1008A80001308500403F803F413F813F0130A0003B
:1008B8002008A9070F302902031C632C642C4C2C38
:1008C8000A3083312E23843171082200DF0070083A
:1008D800DE0000302000A7000030A6000030A50090
:1008E8000030A400A8012835403E8600013087006A
:1008F800403FA000413FA1002008A4072108A53DD2
:100908000030A63DA73D0130A0002008A807103000
:100918002802031C902C912C772C2408A000250871
:10092800A1002608A2002708A3000430A336A20CC1
:10093800A10CA00C890B9A2C2108FC002008FB00B4
:1009480008002000A9012935223E860001308700D1
:100958002935203E840001308500403F803F413FDB
:10096800813F0130A0002008A9070F302902031C8D
:10097800BE2CBF2CA72C093083312E23843171085B
:100988002200BF007008BE0000302000A700003021
:10099800A6000030A5000030A400A8012835203E9C
:1009A800860001308700403FA000413FA100200899
:1009B800A4072108A53D0030A63DA73D0130A000B1
:1009C8002008A80710302802031CEB2CEC2CD22C92
:1009D8002408A0002508A1002608A2002708A300D3
:1009E8000430A336A20CA10CA00C890BF52C21080D
:1009F800FC002008FB000800F400F3010830740232
:100A0800031C072D082D102D7408F83EF0007008FF
:100A1800F500F301F30A152D7408F0007008F500CD
:100A2800F3017308031D192D1A2D2F2D0130F00025
:100A3800750A1F2DF035890B1E2D7008F1007108FD
:100A480020008C050C08F200750A2B2DF236890B54
:100A58002A2D7208482D7303031D332D342D482D7C
:100A68000130F000750A392DF035890B382D7008E2
:100A7800F100710820008D050D08F200750A452D5A
:100A8800F236890B442D720808000030FB00003054
:100A9800FA000030F9000030F800701C542D552D74
:100AA8005D2D7408F8077508F93D7608FA3D770852
:100AB800FB3D0130F435F50DF60DF70D890B5E2D74
:100AC8000130F336F20CF10CF00C890B652D73082C
:100AD800720471047004031D722D732D512D7B084F
:100AE800F3007A08F2007908F1007808F0000800AD
:100AF800720820009B007108F4007008F300F436B7
:100B0800F30CF436F30C73082500910070080139D2
:100B1800F300F30E13087306EF39730693000230DF
:100B28007005F30000307105F400003074020230E3
:100B3800031973020318A12DA42D25009316A62DC1
:100B4800250093120800F401F501701CAC2DAD2DA1
:100B5800B12D7208F4077308F53D0130F235F30D35
:100B6800890BB22D0130F136F00C890BB72D7008C6
:100B78007104031DC02DC12DA92D7508F10074083D
:100B8800F00008000A3081316D2185318531E22578
:100B980085318631572685318631652685318531FF
:100BA800FE25853186314E2685312000B3010C3073
:100BB800823148228531DF2D80316C280C302500A8
:100BC800930020009B012500910122001D1525009E
:100BD8009615FC3020009C052100911020001C1562
:100BE8000B17210011152000B3010630823148226D
:100BF800853108002000B301B30A0330823148224E
:100C080085312000B301B30A013082314822853191
:100C180000308231C422853103308231C4228531CB
:100C28000800F601F60A0330853100258631003ABE
:100C3800031D1F2E202E2A2E0130853100258631D6
:100C4800003A031D282E292E2A2EF60176080800C0
:100C58002834283449344E34543443344F344E34D1
:100C680029342634303437344634683429342C3423
:100C7800323400342834283450344934523431342E
:100C880029342634303437344634683429342C3403
:100C98003234003409308231C42286310A3082313C
:100CA800C422863108008B178B16210095129511E6
:100CB800043095000800640080010131890B602E22
:0E0CC8000034013021009D0080309E000800A5
:020000040001F9
:08000000FF3FFF3FFF3FFF3F00
:04000E00A40FFF1C20
:00000001FF
